{
  "_format": "hh-sol-artifact-1",
  "contractName": "Voting",
  "sourceName": "contracts/voting.sol",
  "abi": [
    {
      "inputs": [],
      "name": "InvalidInitialization",
      "type": "error"
    },
    {
      "inputs": [],
      "name": "NotInitializing",
      "type": "error"
    },
    {
      "anonymous": false,
      "inputs": [
        {
          "indexed": true,
          "internalType": "address",
          "name": "candidate",
          "type": "address"
        },
        {
          "indexed": false,
          "internalType": "uint256",
          "name": "groupId",
          "type": "uint256"
        }
      ],
      "name": "AddedCandidateToGroup",
      "type": "event"
    },
    {
      "anonymous": false,
      "inputs": [
        {
          "indexed": true,
          "internalType": "address",
          "name": "addr",
          "type": "address"
        },
        {
          "indexed": true,
          "internalType": "string",
          "name": "name",
          "type": "string"
        }
      ],
      "name": "CandidateCreated",
      "type": "event"
    },
    {
      "anonymous": false,
      "inputs": [
        {
          "indexed": true,
          "internalType": "uint256",
          "name": "groupId",
          "type": "uint256"
        },
        {
          "indexed": true,
          "internalType": "address",
          "name": "candidateAddr",
          "type": "address"
        }
      ],
      "name": "CandidateRemovedFromGroup",
      "type": "event"
    },
    {
      "anonymous": false,
      "inputs": [
        {
          "indexed": false,
          "internalType": "address",
          "name": "prevOrganizer",
          "type": "address"
        },
        {
          "indexed": true,
          "internalType": "address",
          "name": "newOrganizer",
          "type": "address"
        }
      ],
      "name": "ChangeOrganizer",
      "type": "event"
    },
    {
      "anonymous": false,
      "inputs": [
        {
          "indexed": true,
          "internalType": "uint256",
          "name": "groupId",
          "type": "uint256"
        },
        {
          "indexed": false,
          "internalType": "string",
          "name": "name",
          "type": "string"
        },
        {
          "indexed": true,
          "internalType": "bool",
          "name": "requiresRegisteredVoters",
          "type": "bool"
        },
        {
          "indexed": false,
          "internalType": "uint256",
          "name": "startTime",
          "type": "uint256"
        },
        {
          "indexed": false,
          "internalType": "uint256",
          "name": "endTime",
          "type": "uint256"
        }
      ],
      "name": "GroupCreated",
      "type": "event"
    },
    {
      "anonymous": false,
      "inputs": [
        {
          "indexed": true,
          "internalType": "uint256",
          "name": "groupId",
          "type": "uint256"
        }
      ],
      "name": "GroupDeleted",
      "type": "event"
    },
    {
      "anonymous": false,
      "inputs": [
        {
          "indexed": true,
          "internalType": "uint256",
          "name": "groupId",
          "type": "uint256"
        },
        {
          "indexed": false,
          "internalType": "string",
          "name": "newImage",
          "type": "string"
        },
        {
          "indexed": false,
          "internalType": "string",
          "name": "newIpfs",
          "type": "string"
        }
      ],
      "name": "GroupImageUpdated",
      "type": "event"
    },
    {
      "anonymous": false,
      "inputs": [
        {
          "indexed": true,
          "internalType": "address",
          "name": "user",
          "type": "address"
        },
        {
          "indexed": false,
          "internalType": "string",
          "name": "newImage",
          "type": "string"
        },
        {
          "indexed": false,
          "internalType": "string",
          "name": "newIpfs",
          "type": "string"
        }
      ],
      "name": "ImageUpdated",
      "type": "event"
    },
    {
      "anonymous": false,
      "inputs": [
        {
          "indexed": false,
          "internalType": "uint64",
          "name": "version",
          "type": "uint64"
        }
      ],
      "name": "Initialized",
      "type": "event"
    },
    {
      "anonymous": false,
      "inputs": [
        {
          "indexed": true,
          "internalType": "address",
          "name": "voter",
          "type": "address"
        },
        {
          "indexed": true,
          "internalType": "address",
          "name": "candidate",
          "type": "address"
        },
        {
          "indexed": true,
          "internalType": "uint256",
          "name": "groupId",
          "type": "uint256"
        }
      ],
      "name": "Voted",
      "type": "event"
    },
    {
      "anonymous": false,
      "inputs": [
        {
          "indexed": true,
          "internalType": "address",
          "name": "addr",
          "type": "address"
        },
        {
          "indexed": true,
          "internalType": "string",
          "name": "name",
          "type": "string"
        }
      ],
      "name": "VoterCreated",
      "type": "event"
    },
    {
      "inputs": [
        {
          "internalType": "address",
          "name": "_addr",
          "type": "address"
        }
      ],
      "name": "addCandidateByApproval",
      "outputs": [],
      "stateMutability": "nonpayable",
      "type": "function"
    },
    {
      "inputs": [
        {
          "internalType": "uint256",
          "name": "_groupId",
          "type": "uint256"
        },
        {
          "internalType": "address",
          "name": "_candidateAddress",
          "type": "address"
        }
      ],
      "name": "addCandidateToGroup",
      "outputs": [],
      "stateMutability": "nonpayable",
      "type": "function"
    },
    {
      "inputs": [
        {
          "internalType": "address",
          "name": "_addr",
          "type": "address"
        }
      ],
      "name": "addVoterByApproval",
      "outputs": [],
      "stateMutability": "nonpayable",
      "type": "function"
    },
    {
      "inputs": [
        {
          "internalType": "string",
          "name": "_name",
          "type": "string"
        },
        {
          "internalType": "address",
          "name": "_addr",
          "type": "address"
        },
        {
          "internalType": "uint8",
          "name": "_age",
          "type": "uint8"
        },
        {
          "internalType": "string",
          "name": "_image",
          "type": "string"
        },
        {
          "internalType": "string",
          "name": "_ipfs",
          "type": "string"
        }
      ],
      "name": "applyToBeCandidate",
      "outputs": [],
      "stateMutability": "nonpayable",
      "type": "function"
    },
    {
      "inputs": [
        {
          "internalType": "string",
          "name": "_name",
          "type": "string"
        },
        {
          "internalType": "address",
          "name": "_addr",
          "type": "address"
        },
        {
          "internalType": "uint8",
          "name": "_age",
          "type": "uint8"
        },
        {
          "internalType": "string",
          "name": "_image",
          "type": "string"
        },
        {
          "internalType": "string",
          "name": "_ipfs",
          "type": "string"
        }
      ],
      "name": "applyToBeVoter",
      "outputs": [],
      "stateMutability": "nonpayable",
      "type": "function"
    },
    {
      "inputs": [
        {
          "internalType": "uint256",
          "name": "",
          "type": "uint256"
        }
      ],
      "name": "candidateAddresses",
      "outputs": [
        {
          "internalType": "address",
          "name": "",
          "type": "address"
        }
      ],
      "stateMutability": "view",
      "type": "function"
    },
    {
      "inputs": [],
      "name": "candidateId",
      "outputs": [
        {
          "internalType": "uint256",
          "name": "",
          "type": "uint256"
        }
      ],
      "stateMutability": "view",
      "type": "function"
    },
    {
      "inputs": [
        {
          "internalType": "address",
          "name": "",
          "type": "address"
        }
      ],
      "name": "candidates",
      "outputs": [
        {
          "internalType": "uint256",
          "name": "id",
          "type": "uint256"
        },
        {
          "internalType": "string",
          "name": "name",
          "type": "string"
        },
        {
          "internalType": "address",
          "name": "candidateAddress",
          "type": "address"
        },
        {
          "internalType": "uint8",
          "name": "age",
          "type": "uint8"
        },
        {
          "internalType": "string",
          "name": "image",
          "type": "string"
        },
        {
          "internalType": "string",
          "name": "ipfs",
          "type": "string"
        },
        {
          "internalType": "uint256",
          "name": "voteCount",
          "type": "uint256"
        },
        {
          "internalType": "bool",
          "name": "exists",
          "type": "bool"
        }
      ],
      "stateMutability": "view",
      "type": "function"
    },
    {
      "inputs": [
        {
          "internalType": "address",
          "name": "",
          "type": "address"
        }
      ],
      "name": "candidatesToBeAllowed",
      "outputs": [
        {
          "internalType": "uint256",
          "name": "id",
          "type": "uint256"
        },
        {
          "internalType": "string",
          "name": "name",
          "type": "string"
        },
        {
          "internalType": "address",
          "name": "candidateAddress",
          "type": "address"
        },
        {
          "internalType": "uint8",
          "name": "age",
          "type": "uint8"
        },
        {
          "internalType": "string",
          "name": "image",
          "type": "string"
        },
        {
          "internalType": "string",
          "name": "ipfs",
          "type": "string"
        },
        {
          "internalType": "uint256",
          "name": "voteCount",
          "type": "uint256"
        },
        {
          "internalType": "bool",
          "name": "exists",
          "type": "bool"
        }
      ],
      "stateMutability": "view",
      "type": "function"
    },
    {
      "inputs": [],
      "name": "candidatesToBeAllowedId",
      "outputs": [
        {
          "internalType": "uint256",
          "name": "",
          "type": "uint256"
        }
      ],
      "stateMutability": "view",
      "type": "function"
    },
    {
      "inputs": [
        {
          "internalType": "uint256",
          "name": "",
          "type": "uint256"
        }
      ],
      "name": "candidatesToBeAllowedList",
      "outputs": [
        {
          "internalType": "address",
          "name": "",
          "type": "address"
        }
      ],
      "stateMutability": "view",
      "type": "function"
    },
    {
      "inputs": [
        {
          "internalType": "address",
          "name": "_addr",
          "type": "address"
        }
      ],
      "name": "changeOwner",
      "outputs": [],
      "stateMutability": "nonpayable",
      "type": "function"
    },
    {
      "inputs": [
        {
          "internalType": "string",
          "name": "_name",
          "type": "string"
        },
        {
          "internalType": "address",
          "name": "_addr",
          "type": "address"
        },
        {
          "internalType": "uint8",
          "name": "_age",
          "type": "uint8"
        },
        {
          "internalType": "string",
          "name": "_image",
          "type": "string"
        },
        {
          "internalType": "string",
          "name": "_ipfs",
          "type": "string"
        }
      ],
      "name": "createCandidate",
      "outputs": [],
      "stateMutability": "nonpayable",
      "type": "function"
    },
    {
      "inputs": [
        {
          "internalType": "string",
          "name": "_name",
          "type": "string"
        },
        {
          "internalType": "string",
          "name": "_image",
          "type": "string"
        },
        {
          "internalType": "string",
          "name": "_ipfs",
          "type": "string"
        },
        {
          "internalType": "bool",
          "name": "_requiresRegisteredVoters",
          "type": "bool"
        },
        {
          "internalType": "uint256",
          "name": "_startTime",
          "type": "uint256"
        },
        {
          "internalType": "uint256",
          "name": "_endTime",
          "type": "uint256"
        },
        {
          "internalType": "string",
          "name": "_description",
          "type": "string"
        }
      ],
      "name": "createGroup",
      "outputs": [],
      "stateMutability": "nonpayable",
      "type": "function"
    },
    {
      "inputs": [
        {
          "internalType": "uint256",
          "name": "_groupId",
          "type": "uint256"
        },
        {
          "internalType": "address",
          "name": "_candidateAddr",
          "type": "address"
        }
      ],
      "name": "deleteCandidateFromGroup",
      "outputs": [],
      "stateMutability": "nonpayable",
      "type": "function"
    },
    {
      "inputs": [
        {
          "internalType": "uint256",
          "name": "_groupId",
          "type": "uint256"
        }
      ],
      "name": "deleteGroup",
      "outputs": [],
      "stateMutability": "nonpayable",
      "type": "function"
    },
    {
      "inputs": [
        {
          "internalType": "address",
          "name": "_addr",
          "type": "address"
        }
      ],
      "name": "getCandidateData",
      "outputs": [
        {
          "components": [
            {
              "internalType": "uint256",
              "name": "id",
              "type": "uint256"
            },
            {
              "internalType": "string",
              "name": "name",
              "type": "string"
            },
            {
              "internalType": "address",
              "name": "candidateAddress",
              "type": "address"
            },
            {
              "internalType": "uint8",
              "name": "age",
              "type": "uint8"
            },
            {
              "internalType": "string",
              "name": "image",
              "type": "string"
            },
            {
              "internalType": "string",
              "name": "ipfs",
              "type": "string"
            },
            {
              "internalType": "uint256",
              "name": "voteCount",
              "type": "uint256"
            },
            {
              "internalType": "bool",
              "name": "exists",
              "type": "bool"
            }
          ],
          "internalType": "struct VotingStorage.Candidate",
          "name": "",
          "type": "tuple"
        }
      ],
      "stateMutability": "view",
      "type": "function"
    },
    {
      "inputs": [],
      "name": "getCandidatesLength",
      "outputs": [
        {
          "internalType": "uint256",
          "name": "",
          "type": "uint256"
        }
      ],
      "stateMutability": "view",
      "type": "function"
    },
    {
      "inputs": [],
      "name": "getCandidatesToBeAllowedListLength",
      "outputs": [
        {
          "internalType": "uint256",
          "name": "",
          "type": "uint256"
        }
      ],
      "stateMutability": "view",
      "type": "function"
    },
    {
      "inputs": [
        {
          "internalType": "address",
          "name": "_addr",
          "type": "address"
        }
      ],
      "name": "getVoterData",
      "outputs": [
        {
          "components": [
            {
              "internalType": "uint256",
              "name": "id",
              "type": "uint256"
            },
            {
              "internalType": "string",
              "name": "name",
              "type": "string"
            },
            {
              "internalType": "address",
              "name": "voterAddress",
              "type": "address"
            },
            {
              "internalType": "uint8",
              "name": "age",
              "type": "uint8"
            },
            {
              "internalType": "string",
              "name": "image",
              "type": "string"
            },
            {
              "internalType": "string",
              "name": "ipfs",
              "type": "string"
            },
            {
              "internalType": "uint256",
              "name": "voteCount",
              "type": "uint256"
            },
            {
              "internalType": "bool",
              "name": "exists",
              "type": "bool"
            }
          ],
          "internalType": "struct VotingStorage.Voter",
          "name": "",
          "type": "tuple"
        }
      ],
      "stateMutability": "view",
      "type": "function"
    },
    {
      "inputs": [],
      "name": "getVotersLength",
      "outputs": [
        {
          "internalType": "uint256",
          "name": "",
          "type": "uint256"
        }
      ],
      "stateMutability": "view",
      "type": "function"
    },
    {
      "inputs": [],
      "name": "getVotersToBeAllowedListLength",
      "outputs": [
        {
          "internalType": "uint256",
          "name": "",
          "type": "uint256"
        }
      ],
      "stateMutability": "view",
      "type": "function"
    },
    {
      "inputs": [],
      "name": "groupId",
      "outputs": [
        {
          "internalType": "uint256",
          "name": "",
          "type": "uint256"
        }
      ],
      "stateMutability": "view",
      "type": "function"
    },
    {
      "inputs": [
        {
          "internalType": "uint256",
          "name": "",
          "type": "uint256"
        }
      ],
      "name": "groups",
      "outputs": [
        {
          "internalType": "uint256",
          "name": "id",
          "type": "uint256"
        },
        {
          "internalType": "string",
          "name": "name",
          "type": "string"
        },
        {
          "internalType": "string",
          "name": "image",
          "type": "string"
        },
        {
          "internalType": "string",
          "name": "ipfs",
          "type": "string"
        },
        {
          "internalType": "bool",
          "name": "requiresRegisteredVoters",
          "type": "bool"
        },
        {
          "internalType": "bool",
          "name": "exists",
          "type": "bool"
        },
        {
          "internalType": "uint256",
          "name": "startTime",
          "type": "uint256"
        },
        {
          "internalType": "uint256",
          "name": "endTime",
          "type": "uint256"
        },
        {
          "internalType": "string",
          "name": "description",
          "type": "string"
        }
      ],
      "stateMutability": "view",
      "type": "function"
    },
    {
      "inputs": [
        {
          "internalType": "address",
          "name": "",
          "type": "address"
        },
        {
          "internalType": "uint256",
          "name": "",
          "type": "uint256"
        }
      ],
      "name": "hasVotedInGroup",
      "outputs": [
        {
          "internalType": "bool",
          "name": "",
          "type": "bool"
        }
      ],
      "stateMutability": "view",
      "type": "function"
    },
    {
      "inputs": [
        {
          "internalType": "address",
          "name": "_organizer",
          "type": "address"
        }
      ],
      "name": "initialize",
      "outputs": [],
      "stateMutability": "nonpayable",
      "type": "function"
    },
    {
      "inputs": [],
      "name": "totalVotes",
      "outputs": [
        {
          "internalType": "uint256",
          "name": "",
          "type": "uint256"
        }
      ],
      "stateMutability": "view",
      "type": "function"
    },
    {
      "inputs": [
        {
          "internalType": "string",
          "name": "_newImage",
          "type": "string"
        },
        {
          "internalType": "string",
          "name": "_newIpfs",
          "type": "string"
        }
      ],
      "name": "updateCandidateImage",
      "outputs": [],
      "stateMutability": "nonpayable",
      "type": "function"
    },
    {
      "inputs": [
        {
          "internalType": "uint256",
          "name": "_groupId",
          "type": "uint256"
        },
        {
          "internalType": "string",
          "name": "_newImage",
          "type": "string"
        },
        {
          "internalType": "string",
          "name": "_newIpfs",
          "type": "string"
        }
      ],
      "name": "updateGroupImage",
      "outputs": [],
      "stateMutability": "nonpayable",
      "type": "function"
    },
    {
      "inputs": [
        {
          "internalType": "string",
          "name": "_newImage",
          "type": "string"
        },
        {
          "internalType": "string",
          "name": "_newIpfs",
          "type": "string"
        }
      ],
      "name": "updateVoterImage",
      "outputs": [],
      "stateMutability": "nonpayable",
      "type": "function"
    },
    {
      "inputs": [
        {
          "internalType": "uint256",
          "name": "_groupId",
          "type": "uint256"
        },
        {
          "internalType": "address",
          "name": "_candidateAddress",
          "type": "address"
        }
      ],
      "name": "vote",
      "outputs": [],
      "stateMutability": "nonpayable",
      "type": "function"
    },
    {
      "inputs": [
        {
          "internalType": "uint256",
          "name": "",
          "type": "uint256"
        }
      ],
      "name": "voterAddresses",
      "outputs": [
        {
          "internalType": "address",
          "name": "",
          "type": "address"
        }
      ],
      "stateMutability": "view",
      "type": "function"
    },
    {
      "inputs": [],
      "name": "voterId",
      "outputs": [
        {
          "internalType": "uint256",
          "name": "",
          "type": "uint256"
        }
      ],
      "stateMutability": "view",
      "type": "function"
    },
    {
      "inputs": [
        {
          "internalType": "address",
          "name": "",
          "type": "address"
        }
      ],
      "name": "voters",
      "outputs": [
        {
          "internalType": "uint256",
          "name": "id",
          "type": "uint256"
        },
        {
          "internalType": "string",
          "name": "name",
          "type": "string"
        },
        {
          "internalType": "address",
          "name": "voterAddress",
          "type": "address"
        },
        {
          "internalType": "uint8",
          "name": "age",
          "type": "uint8"
        },
        {
          "internalType": "string",
          "name": "image",
          "type": "string"
        },
        {
          "internalType": "string",
          "name": "ipfs",
          "type": "string"
        },
        {
          "internalType": "uint256",
          "name": "voteCount",
          "type": "uint256"
        },
        {
          "internalType": "bool",
          "name": "exists",
          "type": "bool"
        }
      ],
      "stateMutability": "view",
      "type": "function"
    },
    {
      "inputs": [
        {
          "internalType": "address",
          "name": "",
          "type": "address"
        }
      ],
      "name": "votersToBeAllowed",
      "outputs": [
        {
          "internalType": "uint256",
          "name": "id",
          "type": "uint256"
        },
        {
          "internalType": "string",
          "name": "name",
          "type": "string"
        },
        {
          "internalType": "address",
          "name": "voterAddress",
          "type": "address"
        },
        {
          "internalType": "uint8",
          "name": "age",
          "type": "uint8"
        },
        {
          "internalType": "string",
          "name": "image",
          "type": "string"
        },
        {
          "internalType": "string",
          "name": "ipfs",
          "type": "string"
        },
        {
          "internalType": "uint256",
          "name": "voteCount",
          "type": "uint256"
        },
        {
          "internalType": "bool",
          "name": "exists",
          "type": "bool"
        }
      ],
      "stateMutability": "view",
      "type": "function"
    },
    {
      "inputs": [],
      "name": "votersToBeAllowedId",
      "outputs": [
        {
          "internalType": "uint256",
          "name": "",
          "type": "uint256"
        }
      ],
      "stateMutability": "view",
      "type": "function"
    },
    {
      "inputs": [
        {
          "internalType": "uint256",
          "name": "",
          "type": "uint256"
        }
      ],
      "name": "votersToBeAllowedList",
      "outputs": [
        {
          "internalType": "address",
          "name": "",
          "type": "address"
        }
      ],
      "stateMutability": "view",
      "type": "function"
    },
    {
      "inputs": [],
      "name": "votingOrganizer",
      "outputs": [
        {
          "internalType": "address",
          "name": "",
          "type": "address"
        }
      ],
      "stateMutability": "view",
      "type": "function"
    }
  ],
  "bytecode": "0x6080604052348015600f57600080fd5b50615fce8061001f6000396000f3fe608060405234801561001057600080fd5b50600436106102325760003560e01c80635cc48aa711610130578063a0f44c92116100b8578063d6a405451161007c578063d6a40545146106d3578063dd0e2373146106ef578063de2237d31461071f578063e8fec1fd1461073d578063ea675d361461075957610232565b8063a0f44c9214610616578063a3ec138d14610634578063a6f9dae11461066b578063c4d66de814610687578063d55d73c5146106a357610232565b80638ab66a90116100ff5780638ab66a901461053d5780638fb4cd801461057457806396324bd4146105a45780639e23690b146105dc5780639f91e6bf146105f857610232565b80635cc48aa7146104ae5780635f1573f3146104cc57806372eea056146104ea5780637463bc231461050657610232565b80632a466ac7116101be578063501075861161018257806350107586146103db5780635744a7651461040b57806357b018b41461044257806358f17f83146104605780635b9e467c1461047e57610232565b80632a466ac71461033b5780633e69982c1461036b578063442f5b391461038757806345d88d2d146103a35780634da7f5ae146103bf57610232565b80630d15fd77116102055780630d15fd77146102a95780630fea346b146102c75780631859df65146102e35780631d6049301461030157806322795fd51461031f57610232565b806301502d101461023757806302d947ef146102535780630548f3b41461026f5780630b5351b31461028d575b600080fd5b610251600480360381019061024c919061478d565b610789565b005b61026d60048036038101906102689190614892565b6109a5565b005b610277610d05565b60405161028491906148e1565b60405180910390f35b6102a760048036038101906102a291906148fc565b610d12565b005b6102b1610e95565b6040516102be91906148e1565b60405180910390f35b6102e160048036038101906102dc9190614a0c565b610e9b565b005b6102eb61104f565b6040516102f891906148e1565b60405180910390f35b61030961105c565b60405161031691906148e1565b60405180910390f35b61033960048036038101906103349190614b30565b611062565b005b61035560048036038101906103509190614bbb565b611154565b6040516103629190614d61565b60405180910390f35b610385600480360381019061038091906148fc565b611406565b005b6103a1600480360381019061039c9190614892565b611589565b005b6103bd60048036038101906103b89190614d83565b61189b565b005b6103d960048036038101906103d4919061478d565b611b53565b005b6103f560048036038101906103f09190614db0565b611dd3565b6040516104029190614dff565b60405180910390f35b61042560048036038101906104209190614bbb565b611e02565b604051610439989796959493929190614e82565b60405180910390f35b61044a61201c565b60405161045791906148e1565b60405180910390f35b610468612022565b60405161047591906148e1565b60405180910390f35b61049860048036038101906104939190614d83565b612028565b6040516104a59190614f15565b60405180910390f35b6104b6612067565b6040516104c39190614f15565b60405180910390f35b6104d461208d565b6040516104e191906148e1565b60405180910390f35b61050460048036038101906104ff9190614892565b61209a565b005b610520600480360381019061051b9190614bbb565b61244c565b604051610534989796959493929190614e82565b60405180910390f35b61055760048036038101906105529190614bbb565b612666565b60405161056b989796959493929190614e82565b60405180910390f35b61058e60048036038101906105899190614bbb565b612880565b60405161059b9190614fee565b60405180910390f35b6105be60048036038101906105b99190614d83565b612b32565b6040516105d399989796959493929190615010565b60405180910390f35b6105f660048036038101906105f19190614bbb565b612dba565b005b61060061342f565b60405161060d91906148e1565b60405180910390f35b61061e613435565b60405161062b91906148e1565b60405180910390f35b61064e60048036038101906106499190614bbb565b61343b565b604051610662989796959493929190614e82565b60405180910390f35b61068560048036038101906106809190614bbb565b613655565b005b6106a1600480360381019061069c9190614bbb565b6136ef565b005b6106bd60048036038101906106b89190614d83565b6138b6565b6040516106ca9190614f15565b60405180910390f35b6106ed60048036038101906106e8919061478d565b6138f5565b005b61070960048036038101906107049190614d83565b613b75565b6040516107169190614f15565b60405180910390f35b610727613bb4565b60405161073491906148e1565b60405180910390f35b61075760048036038101906107529190614bbb565b613bc1565b005b610773600480360381019061076e9190614d83565b614236565b6040516107809190614f15565b60405180910390f35b610791614275565b600760008573ffffffffffffffffffffffffffffffffffffffff1673ffffffffffffffffffffffffffffffffffffffff16815260200190815260200160002060060160009054906101000a900460ff1615610821576040517f08c379a000000000000000000000000000000000000000000000000000000000815260040161081890615105565b60405180910390fd5b6002600081548092919061083490615154565b91905055506000600760008673ffffffffffffffffffffffffffffffffffffffff1673ffffffffffffffffffffffffffffffffffffffff168152602001908152602001600020905060025481600001819055508581600101908161089891906153a8565b50848160020160006101000a81548173ffffffffffffffffffffffffffffffffffffffff021916908373ffffffffffffffffffffffffffffffffffffffff160217905550838160020160146101000a81548160ff021916908360ff1602179055508281600301908161090a91906153a8565b508181600401908161091c91906153a8565b506000816005018190555060018160060160006101000a81548160ff0219169083151502179055508560405161095291906154b6565b60405180910390208573ffffffffffffffffffffffffffffffffffffffff167f315d9b8a7d71955c1a45dbe38fa8a1f8811097de4cedb8e4a3adc7cfe10da19560405160405180910390a3505050505050565b816109af81614307565b600960003373ffffffffffffffffffffffffffffffffffffffff1673ffffffffffffffffffffffffffffffffffffffff168152602001908152602001600020600084815260200190815260200160002060009054906101000a900460ff1615610a4d576040517f08c379a0000000000000000000000000000000000000000000000000000000008152600401610a4490615519565b60405180910390fd5b6000600760008473ffffffffffffffffffffffffffffffffffffffff1673ffffffffffffffffffffffffffffffffffffffff1681526020019081526020016000209050600e600085815260200190815260200160002060070160009054906101000a900460ff1615610ba157600860003373ffffffffffffffffffffffffffffffffffffffff1673ffffffffffffffffffffffffffffffffffffffff16815260200190815260200160002060060160009054906101000a900460ff16610b48576040517f08c379a0000000000000000000000000000000000000000000000000000000008152600401610b3f90615585565b60405180910390fd5b600860003373ffffffffffffffffffffffffffffffffffffffff1673ffffffffffffffffffffffffffffffffffffffff1681526020019081526020016000206005016000815480929190610b9b90615154565b91905055505b806005016000815480929190610bb690615154565b9190505550600e600085815260200190815260200160002060060160008473ffffffffffffffffffffffffffffffffffffffff1673ffffffffffffffffffffffffffffffffffffffff1681526020019081526020016000206000815480929190610c1f90615154565b91905055506001600960003373ffffffffffffffffffffffffffffffffffffffff1673ffffffffffffffffffffffffffffffffffffffff168152602001908152602001600020600086815260200190815260200160002060006101000a81548160ff021916908315150217905550600080815480929190610c9f90615154565b9190505550838373ffffffffffffffffffffffffffffffffffffffff163373ffffffffffffffffffffffffffffffffffffffff167f174ba19ba3c8bb5c679c87e51db79fff7c3f04bb84c1fd55b7dacb470b674aa660405160405180910390a450505050565b6000601080549050905090565b600860003373ffffffffffffffffffffffffffffffffffffffff1673ffffffffffffffffffffffffffffffffffffffff16815260200190815260200160002060060160009054906101000a900460ff16610da1576040517f08c379a0000000000000000000000000000000000000000000000000000000008152600401610d98906155f1565b60405180910390fd5b81600860003373ffffffffffffffffffffffffffffffffffffffff1673ffffffffffffffffffffffffffffffffffffffff1681526020019081526020016000206003019081610df091906153a8565b5080600860003373ffffffffffffffffffffffffffffffffffffffff1673ffffffffffffffffffffffffffffffffffffffff1681526020019081526020016000206004019081610e4091906153a8565b503373ffffffffffffffffffffffffffffffffffffffff167f7a8ac81ab7cc0529a626364c8a0455eac81c033e2b0e7a0677922c3133a4e29f8383604051610e89929190615611565b60405180910390a25050565b60005481565b610ea3614275565b828410610ee5576040517f08c379a0000000000000000000000000000000000000000000000000000000008152600401610edc906156ba565b60405180910390fd5b428311610f27576040517f08c379a0000000000000000000000000000000000000000000000000000000008152600401610f1e90615726565b60405180910390fd5b60036000815480929190610f3a90615154565b91905055506000600e60006003548152602001908152602001600020905060035481600001819055508b8b826001019182610f76929190615751565b508989826002019182610f8a929190615751565b508787826003019182610f9e929190615751565b50858160070160006101000a81548160ff02191690831515021790555060018160070160016101000a81548160ff021916908315150217905550848160080181905550838160090181905550828282600a019182610ffd929190615751565b508515156003547fbb20abc750af3ecbf4c7cede72f601071ccc06b8a45978b84e8c54b4075400228e8e8989604051611039949392919061584e565b60405180910390a3505050505050505050505050565b6000600580549050905090565b600b5481565b61106a614275565b600e600084815260200190815260200160002060070160019054906101000a900460ff166110cd576040517f08c379a00000000000000000000000000000000000000000000000000000000081526004016110c4906158da565b60405180910390fd5b81600e600085815260200190815260200160002060020190816110f091906153a8565b5080600e6000858152602001908152602001600020600301908161111491906153a8565b50827f5b0454a518b42dc7b8ef64a805f66978c1b6e536e568b0e32160007b24710e698383604051611147929190615611565b60405180910390a2505050565b61115c61445e565b600760008373ffffffffffffffffffffffffffffffffffffffff1673ffffffffffffffffffffffffffffffffffffffff16815260200190815260200160002060405180610100016040529081600082015481526020016001820180546111c1906151cb565b80601f01602080910402602001604051908101604052809291908181526020018280546111ed906151cb565b801561123a5780601f1061120f5761010080835404028352916020019161123a565b820191906000526020600020905b81548152906001019060200180831161121d57829003601f168201915b505050505081526020016002820160009054906101000a900473ffffffffffffffffffffffffffffffffffffffff1673ffffffffffffffffffffffffffffffffffffffff1673ffffffffffffffffffffffffffffffffffffffff1681526020016002820160149054906101000a900460ff1660ff1660ff1681526020016003820180546112c6906151cb565b80601f01602080910402602001604051908101604052809291908181526020018280546112f2906151cb565b801561133f5780601f106113145761010080835404028352916020019161133f565b820191906000526020600020905b81548152906001019060200180831161132257829003601f168201915b50505050508152602001600482018054611358906151cb565b80601f0160208091040260200160405190810160405280929190818152602001828054611384906151cb565b80156113d15780601f106113a6576101008083540402835291602001916113d1565b820191906000526020600020905b8154815290600101906020018083116113b457829003601f168201915b50505050508152602001600582015481526020016006820160009054906101000a900460ff1615151515815250509050919050565b600760003373ffffffffffffffffffffffffffffffffffffffff1673ffffffffffffffffffffffffffffffffffffffff16815260200190815260200160002060060160009054906101000a900460ff16611495576040517f08c379a000000000000000000000000000000000000000000000000000000000815260040161148c9061596c565b60405180910390fd5b81600760003373ffffffffffffffffffffffffffffffffffffffff1673ffffffffffffffffffffffffffffffffffffffff16815260200190815260200160002060030190816114e491906153a8565b5080600760003373ffffffffffffffffffffffffffffffffffffffff1673ffffffffffffffffffffffffffffffffffffffff168152602001908152602001600020600401908161153491906153a8565b503373ffffffffffffffffffffffffffffffffffffffff167f7a8ac81ab7cc0529a626364c8a0455eac81c033e2b0e7a0677922c3133a4e29f838360405161157d929190615611565b60405180910390a25050565b611591614275565b600e600083815260200190815260200160002060070160019054906101000a900460ff166115f4576040517f08c379a00000000000000000000000000000000000000000000000000000000081526004016115eb906159d8565b60405180910390fd5b600073ffffffffffffffffffffffffffffffffffffffff16600760008373ffffffffffffffffffffffffffffffffffffffff1673ffffffffffffffffffffffffffffffffffffffff16815260200190815260200160002060020160009054906101000a900473ffffffffffffffffffffffffffffffffffffffff1673ffffffffffffffffffffffffffffffffffffffff16036116c5576040517f08c379a00000000000000000000000000000000000000000000000000000000081526004016116bc90615a44565b60405180910390fd5b600e600083815260200190815260200160002060050160008273ffffffffffffffffffffffffffffffffffffffff1673ffffffffffffffffffffffffffffffffffffffff16815260200190815260200160002060009054906101000a900460ff1615611766576040517f08c379a000000000000000000000000000000000000000000000000000000000815260040161175d90615ab0565b60405180910390fd5b600e6000838152602001908152602001600020600401819080600181540180825580915050600190039060005260206000200160009091909190916101000a81548173ffffffffffffffffffffffffffffffffffffffff021916908373ffffffffffffffffffffffffffffffffffffffff1602179055506001600e600084815260200190815260200160002060050160008373ffffffffffffffffffffffffffffffffffffffff1673ffffffffffffffffffffffffffffffffffffffff16815260200190815260200160002060006101000a81548160ff0219169083151502179055508073ffffffffffffffffffffffffffffffffffffffff167f87d4c30c7e9c7f4f2f74f171678d253bfc5b2d8fc939be21c22e9b127c7da1a38360405161188f91906148e1565b60405180910390a25050565b6118a3614275565b600e600082815260200190815260200160002060070160019054906101000a900460ff16611906576040517f08c379a00000000000000000000000000000000000000000000000000000000081526004016118fd90615b1c565b60405180910390fd5b6000600e6000838152602001908152602001600020600401905060005b8180549050811015611a7b576000600e6000858152602001908152602001600020600501600084848154811061195c5761195b615b3c565b5b9060005260206000200160009054906101000a900473ffffffffffffffffffffffffffffffffffffffff1673ffffffffffffffffffffffffffffffffffffffff1673ffffffffffffffffffffffffffffffffffffffff16815260200190815260200160002060006101000a81548160ff0219169083151502179055506000600e60008581526020019081526020016000206006016000848481548110611a0557611a04615b3c565b5b9060005260206000200160009054906101000a900473ffffffffffffffffffffffffffffffffffffffff1673ffffffffffffffffffffffffffffffffffffffff1673ffffffffffffffffffffffffffffffffffffffff168152602001908152602001600020819055508080600101915050611923565b50600e6000838152602001908152602001600020600080820160009055600182016000611aa891906144be565b600282016000611ab891906144be565b600382016000611ac891906144be565b600482016000611ad891906144fe565b6007820160006101000a81549060ff02191690556007820160016101000a81549060ff021916905560088201600090556009820160009055600a82016000611b2091906144be565b5050817f05f39787bb37d43683a578f1d720308a1e4cd944934f11f73c9564925aca900d60405160405180910390a25050565b6000600d60008673ffffffffffffffffffffffffffffffffffffffff1673ffffffffffffffffffffffffffffffffffffffff1681526020019081526020016000206000015414611bd8576040517f08c379a0000000000000000000000000000000000000000000000000000000008152600401611bcf90615bb7565b60405180910390fd5b600b6000815480929190611beb90615154565b9190505550604051806101000160405280600b5481526020018681526020018573ffffffffffffffffffffffffffffffffffffffff1681526020018460ff1681526020018381526020018281526020016000815260200160001515815250600d60008673ffffffffffffffffffffffffffffffffffffffff1673ffffffffffffffffffffffffffffffffffffffff168152602001908152602001600020600082015181600001556020820151816001019081611ca791906153a8565b5060408201518160020160006101000a81548173ffffffffffffffffffffffffffffffffffffffff021916908373ffffffffffffffffffffffffffffffffffffffff16021790555060608201518160020160146101000a81548160ff021916908360ff1602179055506080820151816003019081611d2591906153a8565b5060a0820151816004019081611d3b91906153a8565b5060c0820151816005015560e08201518160060160006101000a81548160ff0219169083151502179055509050506010849080600181540180825580915050600190039060005260206000200160009091909190916101000a81548173ffffffffffffffffffffffffffffffffffffffff021916908373ffffffffffffffffffffffffffffffffffffffff1602179055505050505050565b60096020528160005260406000206020528060005260406000206000915091509054906101000a900460ff1681565b600c602052806000526040600020600091509050806000015490806001018054611e2b906151cb565b80601f0160208091040260200160405190810160405280929190818152602001828054611e57906151cb565b8015611ea45780601f10611e7957610100808354040283529160200191611ea4565b820191906000526020600020905b815481529060010190602001808311611e8757829003601f168201915b5050505050908060020160009054906101000a900473ffffffffffffffffffffffffffffffffffffffff16908060020160149054906101000a900460ff1690806003018054611ef2906151cb565b80601f0160208091040260200160405190810160405280929190818152602001828054611f1e906151cb565b8015611f6b5780601f10611f4057610100808354040283529160200191611f6b565b820191906000526020600020905b815481529060010190602001808311611f4e57829003601f168201915b505050505090806004018054611f80906151cb565b80601f0160208091040260200160405190810160405280929190818152602001828054611fac906151cb565b8015611ff95780601f10611fce57610100808354040283529160200191611ff9565b820191906000526020600020905b815481529060010190602001808311611fdc57829003601f168201915b5050505050908060050154908060060160009054906101000a900460ff16905088565b600a5481565b60015481565b600f818154811061203857600080fd5b906000526020600020016000915054906101000a900473ffffffffffffffffffffffffffffffffffffffff1681565b600460009054906101000a900473ffffffffffffffffffffffffffffffffffffffff1681565b6000600f80549050905090565b6120a2614275565b600e600083815260200190815260200160002060070160019054906101000a900460ff16612105576040517f08c379a00000000000000000000000000000000000000000000000000000000081526004016120fc90615c23565b60405180910390fd5b600e600083815260200190815260200160002060050160008273ffffffffffffffffffffffffffffffffffffffff1673ffffffffffffffffffffffffffffffffffffffff16815260200190815260200160002060009054906101000a900460ff166121a5576040517f08c379a000000000000000000000000000000000000000000000000000000000815260040161219c90615c8f565b60405180910390fd5b6000600e600084815260200190815260200160002060050160008373ffffffffffffffffffffffffffffffffffffffff1673ffffffffffffffffffffffffffffffffffffffff16815260200190815260200160002060006101000a81548160ff021916908315150217905550600e600083815260200190815260200160002060060160008273ffffffffffffffffffffffffffffffffffffffff1673ffffffffffffffffffffffffffffffffffffffff168152602001908152602001600020600090556000600e6000848152602001908152602001600020600401905060005b8180549050811015612402578273ffffffffffffffffffffffffffffffffffffffff168282815481106122bb576122ba615b3c565b5b9060005260206000200160009054906101000a900473ffffffffffffffffffffffffffffffffffffffff1673ffffffffffffffffffffffffffffffffffffffff16036123f55781600183805490506123139190615caf565b8154811061232457612323615b3c565b5b9060005260206000200160009054906101000a900473ffffffffffffffffffffffffffffffffffffffff1682828154811061236257612361615b3c565b5b9060005260206000200160006101000a81548173ffffffffffffffffffffffffffffffffffffffff021916908373ffffffffffffffffffffffffffffffffffffffff160217905550818054806123bb576123ba615ce3565b5b6001900381819060005260206000200160006101000a81549073ffffffffffffffffffffffffffffffffffffffff02191690559055612402565b8080600101915050612285565b508173ffffffffffffffffffffffffffffffffffffffff16837f19f4cb769a462bec6c45ca9cd4feeed63307779833a27f011a5cfa025fd1e92260405160405180910390a3505050565b600d602052806000526040600020600091509050806000015490806001018054612475906151cb565b80601f01602080910402602001604051908101604052809291908181526020018280546124a1906151cb565b80156124ee5780601f106124c3576101008083540402835291602001916124ee565b820191906000526020600020905b8154815290600101906020018083116124d157829003601f168201915b5050505050908060020160009054906101000a900473ffffffffffffffffffffffffffffffffffffffff16908060020160149054906101000a900460ff169080600301805461253c906151cb565b80601f0160208091040260200160405190810160405280929190818152602001828054612568906151cb565b80156125b55780601f1061258a576101008083540402835291602001916125b5565b820191906000526020600020905b81548152906001019060200180831161259857829003601f168201915b5050505050908060040180546125ca906151cb565b80601f01602080910402602001604051908101604052809291908181526020018280546125f6906151cb565b80156126435780601f1061261857610100808354040283529160200191612643565b820191906000526020600020905b81548152906001019060200180831161262657829003601f168201915b5050505050908060050154908060060160009054906101000a900460ff16905088565b600760205280600052604060002060009150905080600001549080600101805461268f906151cb565b80601f01602080910402602001604051908101604052809291908181526020018280546126bb906151cb565b80156127085780601f106126dd57610100808354040283529160200191612708565b820191906000526020600020905b8154815290600101906020018083116126eb57829003601f168201915b5050505050908060020160009054906101000a900473ffffffffffffffffffffffffffffffffffffffff16908060020160149054906101000a900460ff1690806003018054612756906151cb565b80601f0160208091040260200160405190810160405280929190818152602001828054612782906151cb565b80156127cf5780601f106127a4576101008083540402835291602001916127cf565b820191906000526020600020905b8154815290600101906020018083116127b257829003601f168201915b5050505050908060040180546127e4906151cb565b80601f0160208091040260200160405190810160405280929190818152602001828054612810906151cb565b801561285d5780601f106128325761010080835404028352916020019161285d565b820191906000526020600020905b81548152906001019060200180831161284057829003601f168201915b5050505050908060050154908060060160009054906101000a900460ff16905088565b61288861451f565b600860008373ffffffffffffffffffffffffffffffffffffffff1673ffffffffffffffffffffffffffffffffffffffff16815260200190815260200160002060405180610100016040529081600082015481526020016001820180546128ed906151cb565b80601f0160208091040260200160405190810160405280929190818152602001828054612919906151cb565b80156129665780601f1061293b57610100808354040283529160200191612966565b820191906000526020600020905b81548152906001019060200180831161294957829003601f168201915b505050505081526020016002820160009054906101000a900473ffffffffffffffffffffffffffffffffffffffff1673ffffffffffffffffffffffffffffffffffffffff1673ffffffffffffffffffffffffffffffffffffffff1681526020016002820160149054906101000a900460ff1660ff1660ff1681526020016003820180546129f2906151cb565b80601f0160208091040260200160405190810160405280929190818152602001828054612a1e906151cb565b8015612a6b5780601f10612a4057610100808354040283529160200191612a6b565b820191906000526020600020905b815481529060010190602001808311612a4e57829003601f168201915b50505050508152602001600482018054612a84906151cb565b80601f0160208091040260200160405190810160405280929190818152602001828054612ab0906151cb565b8015612afd5780601f10612ad257610100808354040283529160200191612afd565b820191906000526020600020905b815481529060010190602001808311612ae057829003601f168201915b50505050508152602001600582015481526020016006820160009054906101000a900460ff1615151515815250509050919050565b600e602052806000526040600020600091509050806000015490806001018054612b5b906151cb565b80601f0160208091040260200160405190810160405280929190818152602001828054612b87906151cb565b8015612bd45780601f10612ba957610100808354040283529160200191612bd4565b820191906000526020600020905b815481529060010190602001808311612bb757829003601f168201915b505050505090806002018054612be9906151cb565b80601f0160208091040260200160405190810160405280929190818152602001828054612c15906151cb565b8015612c625780601f10612c3757610100808354040283529160200191612c62565b820191906000526020600020905b815481529060010190602001808311612c4557829003601f168201915b505050505090806003018054612c77906151cb565b80601f0160208091040260200160405190810160405280929190818152602001828054612ca3906151cb565b8015612cf05780601f10612cc557610100808354040283529160200191612cf0565b820191906000526020600020905b815481529060010190602001808311612cd357829003601f168201915b5050505050908060070160009054906101000a900460ff16908060070160019054906101000a900460ff169080600801549080600901549080600a018054612d37906151cb565b80601f0160208091040260200160405190810160405280929190818152602001828054612d63906151cb565b8015612db05780601f10612d8557610100808354040283529160200191612db0565b820191906000526020600020905b815481529060010190602001808311612d9357829003601f168201915b5050505050905089565b612dc2614275565b600860008273ffffffffffffffffffffffffffffffffffffffff1673ffffffffffffffffffffffffffffffffffffffff16815260200190815260200160002060060160009054906101000a900460ff1615612e52576040517f08c379a0000000000000000000000000000000000000000000000000000000008152600401612e4990615d5e565b60405180910390fd5b6000600c60008373ffffffffffffffffffffffffffffffffffffffff1673ffffffffffffffffffffffffffffffffffffffff1681526020019081526020016000206040518061010001604052908160008201548152602001600182018054612eb9906151cb565b80601f0160208091040260200160405190810160405280929190818152602001828054612ee5906151cb565b8015612f325780601f10612f0757610100808354040283529160200191612f32565b820191906000526020600020905b815481529060010190602001808311612f1557829003601f168201915b505050505081526020016002820160009054906101000a900473ffffffffffffffffffffffffffffffffffffffff1673ffffffffffffffffffffffffffffffffffffffff1673ffffffffffffffffffffffffffffffffffffffff1681526020016002820160149054906101000a900460ff1660ff1660ff168152602001600382018054612fbe906151cb565b80601f0160208091040260200160405190810160405280929190818152602001828054612fea906151cb565b80156130375780601f1061300c57610100808354040283529160200191613037565b820191906000526020600020905b81548152906001019060200180831161301a57829003601f168201915b50505050508152602001600482018054613050906151cb565b80601f016020809104026020016040519081016040528092919081815260200182805461307c906151cb565b80156130c95780601f1061309e576101008083540402835291602001916130c9565b820191906000526020600020905b8154815290600101906020018083116130ac57829003601f168201915b50505050508152602001600582015481526020016006820160009054906101000a900460ff16151515158152505090506001600081548092919061310c90615154565b91905055506040518061010001604052806001548152602001826020015181526020018373ffffffffffffffffffffffffffffffffffffffff168152602001826060015160ff168152602001826080015181526020018260a0015181526020016000815260200160011515815250600860008473ffffffffffffffffffffffffffffffffffffffff1673ffffffffffffffffffffffffffffffffffffffff1681526020019081526020016000206000820151816000015560208201518160010190816131d891906153a8565b5060408201518160020160006101000a81548173ffffffffffffffffffffffffffffffffffffffff021916908373ffffffffffffffffffffffffffffffffffffffff16021790555060608201518160020160146101000a81548160ff021916908360ff160217905550608082015181600301908161325691906153a8565b5060a082015181600401908161326c91906153a8565b5060c0820151816005015560e08201518160060160006101000a81548160ff0219169083151502179055509050506006829080600181540180825580915050600190039060005260206000200160009091909190916101000a81548173ffffffffffffffffffffffffffffffffffffffff021916908373ffffffffffffffffffffffffffffffffffffffff160217905550600c60008373ffffffffffffffffffffffffffffffffffffffff1673ffffffffffffffffffffffffffffffffffffffff16815260200190815260200160002060008082016000905560018201600061335591906144be565b6002820160006101000a81549073ffffffffffffffffffffffffffffffffffffffff02191690556002820160146101000a81549060ff02191690556003820160006133a091906144be565b6004820160006133b091906144be565b60058201600090556006820160006101000a81549060ff0219169055505080602001516040516133e091906154b6565b60405180910390208273ffffffffffffffffffffffffffffffffffffffff167ffe579c15cc6923452a2dfc18cfd63cfc9e61f3481a9fd737f2a2f4e4574ae39760405160405180910390a35050565b60025481565b60035481565b6008602052806000526040600020600091509050806000015490806001018054613464906151cb565b80601f0160208091040260200160405190810160405280929190818152602001828054613490906151cb565b80156134dd5780601f106134b2576101008083540402835291602001916134dd565b820191906000526020600020905b8154815290600101906020018083116134c057829003601f168201915b5050505050908060020160009054906101000a900473ffffffffffffffffffffffffffffffffffffffff16908060020160149054906101000a900460ff169080600301805461352b906151cb565b80601f0160208091040260200160405190810160405280929190818152602001828054613557906151cb565b80156135a45780601f10613579576101008083540402835291602001916135a4565b820191906000526020600020905b81548152906001019060200180831161358757829003601f168201915b5050505050908060040180546135b9906151cb565b80601f01602080910402602001604051908101604052809291908181526020018280546135e5906151cb565b80156136325780601f1061360757610100808354040283529160200191613632565b820191906000526020600020905b81548152906001019060200180831161361557829003601f168201915b5050505050908060050154908060060160009054906101000a900460ff16905088565b61365d614275565b80600460006101000a81548173ffffffffffffffffffffffffffffffffffffffff021916908373ffffffffffffffffffffffffffffffffffffffff1602179055508073ffffffffffffffffffffffffffffffffffffffff167ff7a460565ec579a5fb496fc20f658870956a86cdd691b375a595f20e8f8d6b62336040516136e49190614f15565b60405180910390a250565b60006136f961441f565b905060008160000160089054906101000a900460ff1615905060008260000160009054906101000a900467ffffffffffffffff1690506000808267ffffffffffffffff161480156137475750825b9050600060018367ffffffffffffffff1614801561377c575060003073ffffffffffffffffffffffffffffffffffffffff163b145b90508115801561378a575080155b156137c1576040517ff92ee8a900000000000000000000000000000000000000000000000000000000815260040160405180910390fd5b60018560000160006101000a81548167ffffffffffffffff021916908367ffffffffffffffff16021790555083156138115760018560000160086101000a81548160ff0219169083151502179055505b85600460006101000a81548173ffffffffffffffffffffffffffffffffffffffff021916908373ffffffffffffffffffffffffffffffffffffffff16021790555083156138ae5760008560000160086101000a81548160ff0219169083151502179055507fc7f505b2f371ae2175ee4913f4499e1f2633a7b5936321eed1cdaeb6115181d260016040516138a59190615dcd565b60405180910390a15b505050505050565b600581815481106138c657600080fd5b906000526020600020016000915054906101000a900473ffffffffffffffffffffffffffffffffffffffff1681565b6000600c60008673ffffffffffffffffffffffffffffffffffffffff1673ffffffffffffffffffffffffffffffffffffffff168152602001908152602001600020600001541461397a576040517f08c379a000000000000000000000000000000000000000000000000000000000815260040161397190615bb7565b60405180910390fd5b600a600081548092919061398d90615154565b9190505550604051806101000160405280600a5481526020018681526020018573ffffffffffffffffffffffffffffffffffffffff1681526020018460ff1681526020018381526020018281526020016000815260200160001515815250600c60008673ffffffffffffffffffffffffffffffffffffffff1673ffffffffffffffffffffffffffffffffffffffff168152602001908152602001600020600082015181600001556020820151816001019081613a4991906153a8565b5060408201518160020160006101000a81548173ffffffffffffffffffffffffffffffffffffffff021916908373ffffffffffffffffffffffffffffffffffffffff16021790555060608201518160020160146101000a81548160ff021916908360ff1602179055506080820151816003019081613ac791906153a8565b5060a0820151816004019081613add91906153a8565b5060c0820151816005015560e08201518160060160006101000a81548160ff021916908315150217905550905050600f849080600181540180825580915050600190039060005260206000200160009091909190916101000a81548173ffffffffffffffffffffffffffffffffffffffff021916908373ffffffffffffffffffffffffffffffffffffffff1602179055505050505050565b60068181548110613b8557600080fd5b906000526020600020016000915054906101000a900473ffffffffffffffffffffffffffffffffffffffff1681565b6000600680549050905090565b613bc9614275565b600760008273ffffffffffffffffffffffffffffffffffffffff1673ffffffffffffffffffffffffffffffffffffffff16815260200190815260200160002060060160009054906101000a900460ff1615613c59576040517f08c379a0000000000000000000000000000000000000000000000000000000008152600401613c5090615e34565b60405180910390fd5b6000600d60008373ffffffffffffffffffffffffffffffffffffffff1673ffffffffffffffffffffffffffffffffffffffff1681526020019081526020016000206040518061010001604052908160008201548152602001600182018054613cc0906151cb565b80601f0160208091040260200160405190810160405280929190818152602001828054613cec906151cb565b8015613d395780601f10613d0e57610100808354040283529160200191613d39565b820191906000526020600020905b815481529060010190602001808311613d1c57829003601f168201915b505050505081526020016002820160009054906101000a900473ffffffffffffffffffffffffffffffffffffffff1673ffffffffffffffffffffffffffffffffffffffff1673ffffffffffffffffffffffffffffffffffffffff1681526020016002820160149054906101000a900460ff1660ff1660ff168152602001600382018054613dc5906151cb565b80601f0160208091040260200160405190810160405280929190818152602001828054613df1906151cb565b8015613e3e5780601f10613e1357610100808354040283529160200191613e3e565b820191906000526020600020905b815481529060010190602001808311613e2157829003601f168201915b50505050508152602001600482018054613e57906151cb565b80601f0160208091040260200160405190810160405280929190818152602001828054613e83906151cb565b8015613ed05780601f10613ea557610100808354040283529160200191613ed0565b820191906000526020600020905b815481529060010190602001808311613eb357829003601f168201915b50505050508152602001600582015481526020016006820160009054906101000a900460ff161515151581525050905060026000815480929190613f1390615154565b91905055506040518061010001604052806002548152602001826020015181526020018373ffffffffffffffffffffffffffffffffffffffff168152602001826060015160ff168152602001826080015181526020018260a0015181526020016000815260200160011515815250600760008473ffffffffffffffffffffffffffffffffffffffff1673ffffffffffffffffffffffffffffffffffffffff168152602001908152602001600020600082015181600001556020820151816001019081613fdf91906153a8565b5060408201518160020160006101000a81548173ffffffffffffffffffffffffffffffffffffffff021916908373ffffffffffffffffffffffffffffffffffffffff16021790555060608201518160020160146101000a81548160ff021916908360ff160217905550608082015181600301908161405d91906153a8565b5060a082015181600401908161407391906153a8565b5060c0820151816005015560e08201518160060160006101000a81548160ff0219169083151502179055509050506005829080600181540180825580915050600190039060005260206000200160009091909190916101000a81548173ffffffffffffffffffffffffffffffffffffffff021916908373ffffffffffffffffffffffffffffffffffffffff160217905550600d60008373ffffffffffffffffffffffffffffffffffffffff1673ffffffffffffffffffffffffffffffffffffffff16815260200190815260200160002060008082016000905560018201600061415c91906144be565b6002820160006101000a81549073ffffffffffffffffffffffffffffffffffffffff02191690556002820160146101000a81549060ff02191690556003820160006141a791906144be565b6004820160006141b791906144be565b60058201600090556006820160006101000a81549060ff0219169055505080602001516040516141e791906154b6565b60405180910390208273ffffffffffffffffffffffffffffffffffffffff167f315d9b8a7d71955c1a45dbe38fa8a1f8811097de4cedb8e4a3adc7cfe10da19560405160405180910390a35050565b6010818154811061424657600080fd5b906000526020600020016000915054906101000a900473ffffffffffffffffffffffffffffffffffffffff1681565b600460009054906101000a900473ffffffffffffffffffffffffffffffffffffffff1673ffffffffffffffffffffffffffffffffffffffff163373ffffffffffffffffffffffffffffffffffffffff1614614305576040517f08c379a00000000000000000000000000000000000000000000000000000000081526004016142fc90615ea0565b60405180910390fd5b565b600e600082815260200190815260200160002060070160019054906101000a900460ff1661436a576040517f08c379a000000000000000000000000000000000000000000000000000000000815260040161436190615c23565b60405180910390fd5b600e6000828152602001908152602001600020600801544210156143c3576040517f08c379a00000000000000000000000000000000000000000000000000000000081526004016143ba90615f0c565b60405180910390fd5b600e60008281526020019081526020016000206009015442111561441c576040517f08c379a000000000000000000000000000000000000000000000000000000000815260040161441390615f78565b60405180910390fd5b50565b60008061442a614433565b90508091505090565b60007ff0c57e16840df040f15088dc2f81fe391c3923bec73e23a9662efc9c229c6a0060001b905090565b6040518061010001604052806000815260200160608152602001600073ffffffffffffffffffffffffffffffffffffffff168152602001600060ff1681526020016060815260200160608152602001600081526020016000151581525090565b5080546144ca906151cb565b6000825580601f106144dc57506144fb565b601f0160209004906000526020600020908101906144fa919061457f565b5b50565b508054600082559060005260206000209081019061451c919061457f565b50565b6040518061010001604052806000815260200160608152602001600073ffffffffffffffffffffffffffffffffffffffff168152602001600060ff1681526020016060815260200160608152602001600081526020016000151581525090565b5b80821115614598576000816000905550600101614580565b5090565b6000604051905090565b600080fd5b600080fd5b600080fd5b600080fd5b6000601f19601f8301169050919050565b7f4e487b7100000000000000000000000000000000000000000000000000000000600052604160045260246000fd5b614603826145ba565b810181811067ffffffffffffffff82111715614622576146216145cb565b5b80604052505050565b600061463561459c565b905061464182826145fa565b919050565b600067ffffffffffffffff821115614661576146606145cb565b5b61466a826145ba565b9050602081019050919050565b82818337600083830152505050565b600061469961469484614646565b61462b565b9050828152602081018484840111156146b5576146b46145b5565b5b6146c0848285614677565b509392505050565b600082601f8301126146dd576146dc6145b0565b5b81356146ed848260208601614686565b91505092915050565b600073ffffffffffffffffffffffffffffffffffffffff82169050919050565b6000614721826146f6565b9050919050565b61473181614716565b811461473c57600080fd5b50565b60008135905061474e81614728565b92915050565b600060ff82169050919050565b61476a81614754565b811461477557600080fd5b50565b60008135905061478781614761565b92915050565b600080600080600060a086880312156147a9576147a86145a6565b5b600086013567ffffffffffffffff8111156147c7576147c66145ab565b5b6147d3888289016146c8565b95505060206147e48882890161473f565b94505060406147f588828901614778565b935050606086013567ffffffffffffffff811115614816576148156145ab565b5b614822888289016146c8565b925050608086013567ffffffffffffffff811115614843576148426145ab565b5b61484f888289016146c8565b9150509295509295909350565b6000819050919050565b61486f8161485c565b811461487a57600080fd5b50565b60008135905061488c81614866565b92915050565b600080604083850312156148a9576148a86145a6565b5b60006148b78582860161487d565b92505060206148c88582860161473f565b9150509250929050565b6148db8161485c565b82525050565b60006020820190506148f660008301846148d2565b92915050565b60008060408385031215614913576149126145a6565b5b600083013567ffffffffffffffff811115614931576149306145ab565b5b61493d858286016146c8565b925050602083013567ffffffffffffffff81111561495e5761495d6145ab565b5b61496a858286016146c8565b9150509250929050565b600080fd5b600080fd5b60008083601f840112614994576149936145b0565b5b8235905067ffffffffffffffff8111156149b1576149b0614974565b5b6020830191508360018202830111156149cd576149cc614979565b5b9250929050565b60008115159050919050565b6149e9816149d4565b81146149f457600080fd5b50565b600081359050614a06816149e0565b92915050565b600080600080600080600080600080600060e08c8e031215614a3157614a306145a6565b5b60008c013567ffffffffffffffff811115614a4f57614a4e6145ab565b5b614a5b8e828f0161497e565b9b509b505060208c013567ffffffffffffffff811115614a7e57614a7d6145ab565b5b614a8a8e828f0161497e565b995099505060408c013567ffffffffffffffff811115614aad57614aac6145ab565b5b614ab98e828f0161497e565b97509750506060614acc8e828f016149f7565b9550506080614add8e828f0161487d565b94505060a0614aee8e828f0161487d565b93505060c08c013567ffffffffffffffff811115614b0f57614b0e6145ab565b5b614b1b8e828f0161497e565b92509250509295989b509295989b9093969950565b600080600060608486031215614b4957614b486145a6565b5b6000614b578682870161487d565b935050602084013567ffffffffffffffff811115614b7857614b776145ab565b5b614b84868287016146c8565b925050604084013567ffffffffffffffff811115614ba557614ba46145ab565b5b614bb1868287016146c8565b9150509250925092565b600060208284031215614bd157614bd06145a6565b5b6000614bdf8482850161473f565b91505092915050565b614bf18161485c565b82525050565b600081519050919050565b600082825260208201905092915050565b60005b83811015614c31578082015181840152602081019050614c16565b60008484015250505050565b6000614c4882614bf7565b614c528185614c02565b9350614c62818560208601614c13565b614c6b816145ba565b840191505092915050565b614c7f81614716565b82525050565b614c8e81614754565b82525050565b614c9d816149d4565b82525050565b600061010083016000830151614cbc6000860182614be8565b5060208301518482036020860152614cd48282614c3d565b9150506040830151614ce96040860182614c76565b506060830151614cfc6060860182614c85565b5060808301518482036080860152614d148282614c3d565b91505060a083015184820360a0860152614d2e8282614c3d565b91505060c0830151614d4360c0860182614be8565b5060e0830151614d5660e0860182614c94565b508091505092915050565b60006020820190508181036000830152614d7b8184614ca3565b905092915050565b600060208284031215614d9957614d986145a6565b5b6000614da78482850161487d565b91505092915050565b60008060408385031215614dc757614dc66145a6565b5b6000614dd58582860161473f565b9250506020614de68582860161487d565b9150509250929050565b614df9816149d4565b82525050565b6000602082019050614e146000830184614df0565b92915050565b600082825260208201905092915050565b6000614e3682614bf7565b614e408185614e1a565b9350614e50818560208601614c13565b614e59816145ba565b840191505092915050565b614e6d81614716565b82525050565b614e7c81614754565b82525050565b600061010082019050614e98600083018b6148d2565b8181036020830152614eaa818a614e2b565b9050614eb96040830189614e64565b614ec66060830188614e73565b8181036080830152614ed88187614e2b565b905081810360a0830152614eec8186614e2b565b9050614efb60c08301856148d2565b614f0860e0830184614df0565b9998505050505050505050565b6000602082019050614f2a6000830184614e64565b92915050565b600061010083016000830151614f496000860182614be8565b5060208301518482036020860152614f618282614c3d565b9150506040830151614f766040860182614c76565b506060830151614f896060860182614c85565b5060808301518482036080860152614fa18282614c3d565b91505060a083015184820360a0860152614fbb8282614c3d565b91505060c0830151614fd060c0860182614be8565b5060e0830151614fe360e0860182614c94565b508091505092915050565b600060208201905081810360008301526150088184614f30565b905092915050565b600061012082019050615026600083018c6148d2565b8181036020830152615038818b614e2b565b9050818103604083015261504c818a614e2b565b905081810360608301526150608189614e2b565b905061506f6080830188614df0565b61507c60a0830187614df0565b61508960c08301866148d2565b61509660e08301856148d2565b8181036101008301526150a98184614e2b565b90509a9950505050505050505050565b7f43616e64696461746520616c7265616479206578697374732100000000000000600082015250565b60006150ef601983614e1a565b91506150fa826150b9565b602082019050919050565b6000602082019050818103600083015261511e816150e2565b9050919050565b7f4e487b7100000000000000000000000000000000000000000000000000000000600052601160045260246000fd5b600061515f8261485c565b91507fffffffffffffffffffffffffffffffffffffffffffffffffffffffffffffffff820361519157615190615125565b5b600182019050919050565b7f4e487b7100000000000000000000000000000000000000000000000000000000600052602260045260246000fd5b600060028204905060018216806151e357607f821691505b6020821081036151f6576151f561519c565b5b50919050565b60008190508160005260206000209050919050565b60006020601f8301049050919050565b600082821b905092915050565b60006008830261525e7fffffffffffffffffffffffffffffffffffffffffffffffffffffffffffffffff82615221565b6152688683615221565b95508019841693508086168417925050509392505050565b6000819050919050565b60006152a56152a061529b8461485c565b615280565b61485c565b9050919050565b6000819050919050565b6152bf8361528a565b6152d36152cb826152ac565b84845461522e565b825550505050565b600090565b6152e86152db565b6152f38184846152b6565b505050565b5b818110156153175761530c6000826152e0565b6001810190506152f9565b5050565b601f82111561535c5761532d816151fc565b61533684615211565b81016020851015615345578190505b61535961535185615211565b8301826152f8565b50505b505050565b600082821c905092915050565b600061537f60001984600802615361565b1980831691505092915050565b6000615398838361536e565b9150826002028217905092915050565b6153b182614bf7565b67ffffffffffffffff8111156153ca576153c96145cb565b5b6153d482546151cb565b6153df82828561531b565b600060209050601f8311600181146154125760008415615400578287015190505b61540a858261538c565b865550615472565b601f198416615420866151fc565b60005b8281101561544857848901518255600182019150602085019450602081019050615423565b868310156154655784890151615461601f89168261536e565b8355505b6001600288020188555050505b505050505050565b600081905092915050565b600061549082614bf7565b61549a818561547a565b93506154aa818560208601614c13565b80840191505092915050565b60006154c28284615485565b915081905092915050565b7f416c726561647920766f74656420696e20746869732067726f75702100000000600082015250565b6000615503601c83614e1a565b915061550e826154cd565b602082019050919050565b60006020820190508181036000830152615532816154f6565b9050919050565b7f596f75206d7573742062652061207265676973746572656420766f7465722100600082015250565b600061556f601f83614e1a565b915061557a82615539565b602082019050919050565b6000602082019050818103600083015261559e81615562565b9050919050565b7f596f7520617265206e6f742061207265676973746572656420766f7465722100600082015250565b60006155db601f83614e1a565b91506155e6826155a5565b602082019050919050565b6000602082019050818103600083015261560a816155ce565b9050919050565b6000604082019050818103600083015261562b8185614e2b565b9050818103602083015261563f8184614e2b565b90509392505050565b7f53746172742074696d65206d757374206265206265666f726520656e6420746960008201527f6d65210000000000000000000000000000000000000000000000000000000000602082015250565b60006156a4602383614e1a565b91506156af82615648565b604082019050919050565b600060208201905081810360008301526156d381615697565b9050919050565b7f456e642074696d65206d75737420626520696e20746865206675747572652100600082015250565b6000615710601f83614e1a565b915061571b826156da565b602082019050919050565b6000602082019050818103600083015261573f81615703565b9050919050565b600082905092915050565b61575b8383615746565b67ffffffffffffffff811115615774576157736145cb565b5b61577e82546151cb565b61578982828561531b565b6000601f8311600181146157b857600084156157a6578287013590505b6157b0858261538c565b865550615818565b601f1984166157c6866151fc565b60005b828110156157ee578489013582556001820191506020850194506020810190506157c9565b8683101561580b5784890135615807601f89168261536e565b8355505b6001600288020188555050505b50505050505050565b600061582d8385614e1a565b935061583a838584614677565b615843836145ba565b840190509392505050565b60006060820190508181036000830152615869818688615821565b905061587860208301856148d2565b61588560408301846148d2565b95945050505050565b7f4e6f20737563682067726f757021000000000000000000000000000000000000600082015250565b60006158c4600e83614e1a565b91506158cf8261588e565b602082019050919050565b600060208201905081810360008301526158f3816158b7565b9050919050565b7f596f7520617265206e6f74206120726567697374657265642063616e6469646160008201527f7465210000000000000000000000000000000000000000000000000000000000602082015250565b6000615956602383614e1a565b9150615961826158fa565b604082019050919050565b6000602082019050818103600083015261598581615949565b9050919050565b7f47726f757020646f65736e277420657869737421000000000000000000000000600082015250565b60006159c2601483614e1a565b91506159cd8261598c565b602082019050919050565b600060208201905081810360008301526159f1816159b5565b9050919050565b7f43616e64696461746520646f6573206e6f742065786973742100000000000000600082015250565b6000615a2e601983614e1a565b9150615a39826159f8565b602082019050919050565b60006020820190508181036000830152615a5d81615a21565b9050919050565b7f43616e64696461746520616c726561647920696e2067726f7570210000000000600082015250565b6000615a9a601b83614e1a565b9150615aa582615a64565b602082019050919050565b60006020820190508181036000830152615ac981615a8d565b9050919050565b7f4e6f2067726f7570206578697374732100000000000000000000000000000000600082015250565b6000615b06601083614e1a565b9150615b1182615ad0565b602082019050919050565b60006020820190508181036000830152615b3581615af9565b9050919050565b7f4e487b7100000000000000000000000000000000000000000000000000000000600052603260045260246000fd5b7f416c7265616479206170706c6965642100000000000000000000000000000000600082015250565b6000615ba1601083614e1a565b9150615bac82615b6b565b602082019050919050565b60006020820190508181036000830152615bd081615b94565b9050919050565b7f47726f757020646f6573206e6f74206578697374210000000000000000000000600082015250565b6000615c0d601583614e1a565b9150615c1882615bd7565b602082019050919050565b60006020820190508181036000830152615c3c81615c00565b9050919050565b7f43616e646964617465206e6f7420696e20746869732067726f75702100000000600082015250565b6000615c79601c83614e1a565b9150615c8482615c43565b602082019050919050565b60006020820190508181036000830152615ca881615c6c565b9050919050565b6000615cba8261485c565b9150615cc58361485c565b9250828203905081811115615cdd57615cdc615125565b5b92915050565b7f4e487b7100000000000000000000000000000000000000000000000000000000600052603160045260246000fd5b7f416c726561647920616e20617070726f76656420766f74657221000000000000600082015250565b6000615d48601a83614e1a565b9150615d5382615d12565b602082019050919050565b60006020820190508181036000830152615d7781615d3b565b9050919050565b6000819050919050565b600067ffffffffffffffff82169050919050565b6000615db7615db2615dad84615d7e565b615280565b615d88565b9050919050565b615dc781615d9c565b82525050565b6000602082019050615de26000830184615dbe565b92915050565b7f416c726561647920616e20617070726f7665642063616e646964617465210000600082015250565b6000615e1e601e83614e1a565b9150615e2982615de8565b602082019050919050565b60006020820190508181036000830152615e4d81615e11565b9050919050565b7f4f6e6c79206f7267616e697a65722063616e20646f2069742100000000000000600082015250565b6000615e8a601983614e1a565b9150615e9582615e54565b602082019050919050565b60006020820190508181036000830152615eb981615e7d565b9050919050565b7f566f74696e67206e6f7420737461727465642079657421000000000000000000600082015250565b6000615ef6601783614e1a565b9150615f0182615ec0565b602082019050919050565b60006020820190508181036000830152615f2581615ee9565b9050919050565b7f566f74696e6720656e6465642100000000000000000000000000000000000000600082015250565b6000615f62600d83614e1a565b9150615f6d82615f2c565b602082019050919050565b60006020820190508181036000830152615f9181615f55565b905091905056fea26469706673582212209754b2aefa21496a5617777e7dc2d8bd6fc7cdac7b80d70b28567408217db4fe64736f6c634300081c0033",
  "linkReferences": {},
  "deployedLinkReferences": {}
}