{
  "_format": "hh-sol-artifact-1",
  "contractName": "Voting",
  "sourceName": "contracts/voting.sol",
  "abi": [
    {
      "inputs": [],
      "name": "InvalidInitialization",
      "type": "error"
    },
    {
      "inputs": [],
      "name": "NotInitializing",
      "type": "error"
    },
    {
      "anonymous": false,
      "inputs": [
        {
          "indexed": true,
          "internalType": "address",
          "name": "candidate",
          "type": "address"
        },
        {
          "indexed": false,
          "internalType": "uint256",
          "name": "groupId",
          "type": "uint256"
        }
      ],
      "name": "AddedCandidateToGroup",
      "type": "event"
    },
    {
      "anonymous": false,
      "inputs": [
        {
          "indexed": true,
          "internalType": "address",
          "name": "addr",
          "type": "address"
        },
        {
          "indexed": true,
          "internalType": "string",
          "name": "name",
          "type": "string"
        }
      ],
      "name": "CandidateCreated",
      "type": "event"
    },
    {
      "anonymous": false,
      "inputs": [
        {
          "indexed": true,
          "internalType": "uint256",
          "name": "groupId",
          "type": "uint256"
        },
        {
          "indexed": true,
          "internalType": "address",
          "name": "candidateAddr",
          "type": "address"
        }
      ],
      "name": "CandidateRemovedFromGroup",
      "type": "event"
    },
    {
      "anonymous": false,
      "inputs": [
        {
          "indexed": false,
          "internalType": "address",
          "name": "prevOrganizer",
          "type": "address"
        },
        {
          "indexed": true,
          "internalType": "address",
          "name": "newOrganizer",
          "type": "address"
        }
      ],
      "name": "ChangeOrganizer",
      "type": "event"
    },
    {
      "anonymous": false,
      "inputs": [
        {
          "indexed": true,
          "internalType": "uint256",
          "name": "groupId",
          "type": "uint256"
        },
        {
          "indexed": false,
          "internalType": "string",
          "name": "name",
          "type": "string"
        },
        {
          "indexed": true,
          "internalType": "bool",
          "name": "requiresRegisteredVoters",
          "type": "bool"
        },
        {
          "indexed": false,
          "internalType": "uint256",
          "name": "startTime",
          "type": "uint256"
        },
        {
          "indexed": false,
          "internalType": "uint256",
          "name": "endTime",
          "type": "uint256"
        }
      ],
      "name": "GroupCreated",
      "type": "event"
    },
    {
      "anonymous": false,
      "inputs": [
        {
          "indexed": true,
          "internalType": "uint256",
          "name": "groupId",
          "type": "uint256"
        }
      ],
      "name": "GroupDeleted",
      "type": "event"
    },
    {
      "anonymous": false,
      "inputs": [
        {
          "indexed": true,
          "internalType": "uint256",
          "name": "groupId",
          "type": "uint256"
        },
        {
          "indexed": false,
          "internalType": "string",
          "name": "newImage",
          "type": "string"
        },
        {
          "indexed": false,
          "internalType": "string",
          "name": "newIpfs",
          "type": "string"
        }
      ],
      "name": "GroupImageUpdated",
      "type": "event"
    },
    {
      "anonymous": false,
      "inputs": [
        {
          "indexed": true,
          "internalType": "address",
          "name": "user",
          "type": "address"
        },
        {
          "indexed": false,
          "internalType": "string",
          "name": "newImage",
          "type": "string"
        },
        {
          "indexed": false,
          "internalType": "string",
          "name": "newIpfs",
          "type": "string"
        }
      ],
      "name": "ImageUpdated",
      "type": "event"
    },
    {
      "anonymous": false,
      "inputs": [
        {
          "indexed": false,
          "internalType": "uint64",
          "name": "version",
          "type": "uint64"
        }
      ],
      "name": "Initialized",
      "type": "event"
    },
    {
      "anonymous": false,
      "inputs": [
        {
          "indexed": true,
          "internalType": "address",
          "name": "voter",
          "type": "address"
        },
        {
          "indexed": true,
          "internalType": "address",
          "name": "candidate",
          "type": "address"
        },
        {
          "indexed": true,
          "internalType": "uint256",
          "name": "groupId",
          "type": "uint256"
        }
      ],
      "name": "Voted",
      "type": "event"
    },
    {
      "anonymous": false,
      "inputs": [
        {
          "indexed": true,
          "internalType": "address",
          "name": "addr",
          "type": "address"
        },
        {
          "indexed": true,
          "internalType": "string",
          "name": "name",
          "type": "string"
        }
      ],
      "name": "VoterCreated",
      "type": "event"
    },
    {
      "inputs": [
        {
          "internalType": "address",
          "name": "_addr",
          "type": "address"
        }
      ],
      "name": "addCandidateByApproval",
      "outputs": [],
      "stateMutability": "nonpayable",
      "type": "function"
    },
    {
      "inputs": [
        {
          "internalType": "uint256",
          "name": "_groupId",
          "type": "uint256"
        },
        {
          "internalType": "address",
          "name": "_candidateAddress",
          "type": "address"
        }
      ],
      "name": "addCandidateToGroup",
      "outputs": [],
      "stateMutability": "nonpayable",
      "type": "function"
    },
    {
      "inputs": [
        {
          "internalType": "address",
          "name": "_addr",
          "type": "address"
        }
      ],
      "name": "addVoterByApproval",
      "outputs": [],
      "stateMutability": "nonpayable",
      "type": "function"
    },
    {
      "inputs": [
        {
          "internalType": "string",
          "name": "_name",
          "type": "string"
        },
        {
          "internalType": "address",
          "name": "_addr",
          "type": "address"
        },
        {
          "internalType": "uint8",
          "name": "_age",
          "type": "uint8"
        },
        {
          "internalType": "string",
          "name": "_image",
          "type": "string"
        },
        {
          "internalType": "string",
          "name": "_ipfs",
          "type": "string"
        }
      ],
      "name": "applyToBeCandidate",
      "outputs": [],
      "stateMutability": "nonpayable",
      "type": "function"
    },
    {
      "inputs": [
        {
          "internalType": "string",
          "name": "_name",
          "type": "string"
        },
        {
          "internalType": "address",
          "name": "_addr",
          "type": "address"
        },
        {
          "internalType": "uint8",
          "name": "_age",
          "type": "uint8"
        },
        {
          "internalType": "string",
          "name": "_image",
          "type": "string"
        },
        {
          "internalType": "string",
          "name": "_ipfs",
          "type": "string"
        }
      ],
      "name": "applyToBeVoter",
      "outputs": [],
      "stateMutability": "nonpayable",
      "type": "function"
    },
    {
      "inputs": [
        {
          "internalType": "uint256",
          "name": "",
          "type": "uint256"
        }
      ],
      "name": "candidateAddresses",
      "outputs": [
        {
          "internalType": "address",
          "name": "",
          "type": "address"
        }
      ],
      "stateMutability": "view",
      "type": "function"
    },
    {
      "inputs": [],
      "name": "candidateId",
      "outputs": [
        {
          "internalType": "uint256",
          "name": "",
          "type": "uint256"
        }
      ],
      "stateMutability": "view",
      "type": "function"
    },
    {
      "inputs": [
        {
          "internalType": "address",
          "name": "",
          "type": "address"
        }
      ],
      "name": "candidates",
      "outputs": [
        {
          "internalType": "uint256",
          "name": "id",
          "type": "uint256"
        },
        {
          "internalType": "string",
          "name": "name",
          "type": "string"
        },
        {
          "internalType": "address",
          "name": "candidateAddress",
          "type": "address"
        },
        {
          "internalType": "uint8",
          "name": "age",
          "type": "uint8"
        },
        {
          "internalType": "string",
          "name": "image",
          "type": "string"
        },
        {
          "internalType": "string",
          "name": "ipfs",
          "type": "string"
        },
        {
          "internalType": "uint256",
          "name": "voteCount",
          "type": "uint256"
        },
        {
          "internalType": "bool",
          "name": "exists",
          "type": "bool"
        }
      ],
      "stateMutability": "view",
      "type": "function"
    },
    {
      "inputs": [
        {
          "internalType": "address",
          "name": "",
          "type": "address"
        }
      ],
      "name": "candidatesToBeAllowed",
      "outputs": [
        {
          "internalType": "uint256",
          "name": "id",
          "type": "uint256"
        },
        {
          "internalType": "string",
          "name": "name",
          "type": "string"
        },
        {
          "internalType": "address",
          "name": "candidateAddress",
          "type": "address"
        },
        {
          "internalType": "uint8",
          "name": "age",
          "type": "uint8"
        },
        {
          "internalType": "string",
          "name": "image",
          "type": "string"
        },
        {
          "internalType": "string",
          "name": "ipfs",
          "type": "string"
        },
        {
          "internalType": "uint256",
          "name": "voteCount",
          "type": "uint256"
        },
        {
          "internalType": "bool",
          "name": "exists",
          "type": "bool"
        }
      ],
      "stateMutability": "view",
      "type": "function"
    },
    {
      "inputs": [],
      "name": "candidatesToBeAllowedId",
      "outputs": [
        {
          "internalType": "uint256",
          "name": "",
          "type": "uint256"
        }
      ],
      "stateMutability": "view",
      "type": "function"
    },
    {
      "inputs": [
        {
          "internalType": "address",
          "name": "_addr",
          "type": "address"
        }
      ],
      "name": "changeOwner",
      "outputs": [],
      "stateMutability": "nonpayable",
      "type": "function"
    },
    {
      "inputs": [
        {
          "internalType": "string",
          "name": "_name",
          "type": "string"
        },
        {
          "internalType": "address",
          "name": "_addr",
          "type": "address"
        },
        {
          "internalType": "uint8",
          "name": "_age",
          "type": "uint8"
        },
        {
          "internalType": "string",
          "name": "_image",
          "type": "string"
        },
        {
          "internalType": "string",
          "name": "_ipfs",
          "type": "string"
        }
      ],
      "name": "createCandidate",
      "outputs": [],
      "stateMutability": "nonpayable",
      "type": "function"
    },
    {
      "inputs": [
        {
          "internalType": "string",
          "name": "_name",
          "type": "string"
        },
        {
          "internalType": "string",
          "name": "_image",
          "type": "string"
        },
        {
          "internalType": "string",
          "name": "_ipfs",
          "type": "string"
        },
        {
          "internalType": "bool",
          "name": "_requiresRegisteredVoters",
          "type": "bool"
        },
        {
          "internalType": "uint256",
          "name": "_startTime",
          "type": "uint256"
        },
        {
          "internalType": "uint256",
          "name": "_endTime",
          "type": "uint256"
        }
      ],
      "name": "createGroup",
      "outputs": [],
      "stateMutability": "nonpayable",
      "type": "function"
    },
    {
      "inputs": [
        {
          "internalType": "uint256",
          "name": "_groupId",
          "type": "uint256"
        },
        {
          "internalType": "address",
          "name": "_candidateAddr",
          "type": "address"
        }
      ],
      "name": "deleteCandidateFromGroup",
      "outputs": [],
      "stateMutability": "nonpayable",
      "type": "function"
    },
    {
      "inputs": [
        {
          "internalType": "uint256",
          "name": "_groupId",
          "type": "uint256"
        }
      ],
      "name": "deleteGroup",
      "outputs": [],
      "stateMutability": "nonpayable",
      "type": "function"
    },
    {
      "inputs": [
        {
          "internalType": "address",
          "name": "_addr",
          "type": "address"
        }
      ],
      "name": "getCandidateData",
      "outputs": [
        {
          "components": [
            {
              "internalType": "uint256",
              "name": "id",
              "type": "uint256"
            },
            {
              "internalType": "string",
              "name": "name",
              "type": "string"
            },
            {
              "internalType": "address",
              "name": "candidateAddress",
              "type": "address"
            },
            {
              "internalType": "uint8",
              "name": "age",
              "type": "uint8"
            },
            {
              "internalType": "string",
              "name": "image",
              "type": "string"
            },
            {
              "internalType": "string",
              "name": "ipfs",
              "type": "string"
            },
            {
              "internalType": "uint256",
              "name": "voteCount",
              "type": "uint256"
            },
            {
              "internalType": "bool",
              "name": "exists",
              "type": "bool"
            }
          ],
          "internalType": "struct VotingStorage.Candidate",
          "name": "",
          "type": "tuple"
        }
      ],
      "stateMutability": "view",
      "type": "function"
    },
    {
      "inputs": [],
      "name": "getCandidatesLength",
      "outputs": [
        {
          "internalType": "uint256",
          "name": "",
          "type": "uint256"
        }
      ],
      "stateMutability": "view",
      "type": "function"
    },
    {
      "inputs": [
        {
          "internalType": "address",
          "name": "_addr",
          "type": "address"
        }
      ],
      "name": "getVoterData",
      "outputs": [
        {
          "components": [
            {
              "internalType": "uint256",
              "name": "id",
              "type": "uint256"
            },
            {
              "internalType": "string",
              "name": "name",
              "type": "string"
            },
            {
              "internalType": "address",
              "name": "voterAddress",
              "type": "address"
            },
            {
              "internalType": "uint8",
              "name": "age",
              "type": "uint8"
            },
            {
              "internalType": "string",
              "name": "image",
              "type": "string"
            },
            {
              "internalType": "string",
              "name": "ipfs",
              "type": "string"
            },
            {
              "internalType": "uint256",
              "name": "voteCount",
              "type": "uint256"
            },
            {
              "internalType": "bool",
              "name": "exists",
              "type": "bool"
            }
          ],
          "internalType": "struct VotingStorage.Voter",
          "name": "",
          "type": "tuple"
        }
      ],
      "stateMutability": "view",
      "type": "function"
    },
    {
      "inputs": [],
      "name": "getVotersLength",
      "outputs": [
        {
          "internalType": "uint256",
          "name": "",
          "type": "uint256"
        }
      ],
      "stateMutability": "view",
      "type": "function"
    },
    {
      "inputs": [],
      "name": "groupId",
      "outputs": [
        {
          "internalType": "uint256",
          "name": "",
          "type": "uint256"
        }
      ],
      "stateMutability": "view",
      "type": "function"
    },
    {
      "inputs": [
        {
          "internalType": "uint256",
          "name": "",
          "type": "uint256"
        }
      ],
      "name": "groups",
      "outputs": [
        {
          "internalType": "uint256",
          "name": "id",
          "type": "uint256"
        },
        {
          "internalType": "string",
          "name": "name",
          "type": "string"
        },
        {
          "internalType": "string",
          "name": "image",
          "type": "string"
        },
        {
          "internalType": "string",
          "name": "ipfs",
          "type": "string"
        },
        {
          "internalType": "bool",
          "name": "requiresRegisteredVoters",
          "type": "bool"
        },
        {
          "internalType": "bool",
          "name": "exists",
          "type": "bool"
        },
        {
          "internalType": "uint256",
          "name": "startTime",
          "type": "uint256"
        },
        {
          "internalType": "uint256",
          "name": "endTime",
          "type": "uint256"
        }
      ],
      "stateMutability": "view",
      "type": "function"
    },
    {
      "inputs": [
        {
          "internalType": "address",
          "name": "",
          "type": "address"
        },
        {
          "internalType": "uint256",
          "name": "",
          "type": "uint256"
        }
      ],
      "name": "hasVotedInGroup",
      "outputs": [
        {
          "internalType": "bool",
          "name": "",
          "type": "bool"
        }
      ],
      "stateMutability": "view",
      "type": "function"
    },
    {
      "inputs": [
        {
          "internalType": "address",
          "name": "_organizer",
          "type": "address"
        }
      ],
      "name": "initialize",
      "outputs": [],
      "stateMutability": "nonpayable",
      "type": "function"
    },
    {
      "inputs": [],
      "name": "totalVotes",
      "outputs": [
        {
          "internalType": "uint256",
          "name": "",
          "type": "uint256"
        }
      ],
      "stateMutability": "view",
      "type": "function"
    },
    {
      "inputs": [
        {
          "internalType": "string",
          "name": "_newImage",
          "type": "string"
        },
        {
          "internalType": "string",
          "name": "_newIpfs",
          "type": "string"
        }
      ],
      "name": "updateCandidateImage",
      "outputs": [],
      "stateMutability": "nonpayable",
      "type": "function"
    },
    {
      "inputs": [
        {
          "internalType": "uint256",
          "name": "_groupId",
          "type": "uint256"
        },
        {
          "internalType": "string",
          "name": "_newImage",
          "type": "string"
        },
        {
          "internalType": "string",
          "name": "_newIpfs",
          "type": "string"
        }
      ],
      "name": "updateGroupImage",
      "outputs": [],
      "stateMutability": "nonpayable",
      "type": "function"
    },
    {
      "inputs": [
        {
          "internalType": "string",
          "name": "_newImage",
          "type": "string"
        },
        {
          "internalType": "string",
          "name": "_newIpfs",
          "type": "string"
        }
      ],
      "name": "updateVoterImage",
      "outputs": [],
      "stateMutability": "nonpayable",
      "type": "function"
    },
    {
      "inputs": [
        {
          "internalType": "uint256",
          "name": "_groupId",
          "type": "uint256"
        },
        {
          "internalType": "address",
          "name": "_candidateAddress",
          "type": "address"
        }
      ],
      "name": "vote",
      "outputs": [],
      "stateMutability": "nonpayable",
      "type": "function"
    },
    {
      "inputs": [
        {
          "internalType": "uint256",
          "name": "",
          "type": "uint256"
        }
      ],
      "name": "voterAddresses",
      "outputs": [
        {
          "internalType": "address",
          "name": "",
          "type": "address"
        }
      ],
      "stateMutability": "view",
      "type": "function"
    },
    {
      "inputs": [],
      "name": "voterId",
      "outputs": [
        {
          "internalType": "uint256",
          "name": "",
          "type": "uint256"
        }
      ],
      "stateMutability": "view",
      "type": "function"
    },
    {
      "inputs": [
        {
          "internalType": "address",
          "name": "",
          "type": "address"
        }
      ],
      "name": "voters",
      "outputs": [
        {
          "internalType": "uint256",
          "name": "id",
          "type": "uint256"
        },
        {
          "internalType": "string",
          "name": "name",
          "type": "string"
        },
        {
          "internalType": "address",
          "name": "voterAddress",
          "type": "address"
        },
        {
          "internalType": "uint8",
          "name": "age",
          "type": "uint8"
        },
        {
          "internalType": "string",
          "name": "image",
          "type": "string"
        },
        {
          "internalType": "string",
          "name": "ipfs",
          "type": "string"
        },
        {
          "internalType": "uint256",
          "name": "voteCount",
          "type": "uint256"
        },
        {
          "internalType": "bool",
          "name": "exists",
          "type": "bool"
        }
      ],
      "stateMutability": "view",
      "type": "function"
    },
    {
      "inputs": [
        {
          "internalType": "address",
          "name": "",
          "type": "address"
        }
      ],
      "name": "votersToBeAllowed",
      "outputs": [
        {
          "internalType": "uint256",
          "name": "id",
          "type": "uint256"
        },
        {
          "internalType": "string",
          "name": "name",
          "type": "string"
        },
        {
          "internalType": "address",
          "name": "voterAddress",
          "type": "address"
        },
        {
          "internalType": "uint8",
          "name": "age",
          "type": "uint8"
        },
        {
          "internalType": "string",
          "name": "image",
          "type": "string"
        },
        {
          "internalType": "string",
          "name": "ipfs",
          "type": "string"
        },
        {
          "internalType": "uint256",
          "name": "voteCount",
          "type": "uint256"
        },
        {
          "internalType": "bool",
          "name": "exists",
          "type": "bool"
        }
      ],
      "stateMutability": "view",
      "type": "function"
    },
    {
      "inputs": [],
      "name": "votersToBeAllowedId",
      "outputs": [
        {
          "internalType": "uint256",
          "name": "",
          "type": "uint256"
        }
      ],
      "stateMutability": "view",
      "type": "function"
    },
    {
      "inputs": [],
      "name": "votingOrganizer",
      "outputs": [
        {
          "internalType": "address",
          "name": "",
          "type": "address"
        }
      ],
      "stateMutability": "view",
      "type": "function"
    }
  ],
  "bytecode": "0x6080604052348015600f57600080fd5b50615f418061001f6000396000f3fe608060405234801561001057600080fd5b50600436106102055760003560e01c80635cc48aa71161011a578063a0f44c92116100ad578063d55d73c51161007c578063d55d73c514610609578063d6a4054514610639578063dd0e237314610655578063de2237d314610685578063e8fec1fd146106a357610205565b8063a0f44c921461057c578063a3ec138d1461059a578063a6f9dae1146105d1578063c4d66de8146105ed57610205565b80638fb4cd80116100e95780638fb4cd80146104db57806396324bd41461050b5780639e23690b146105425780639f91e6bf1461055e57610205565b80635cc48aa71461043357806372eea056146104515780637463bc231461046d5780638ab66a90146104a457610205565b80632a466ac71161019d5780634da7f5ae1161016c5780634da7f5ae1461037457806350107586146103905780635744a765146103c057806357b018b4146103f757806358f17f831461041557610205565b80632a466ac7146102f05780633e69982c14610320578063442f5b391461033c57806345d88d2d1461035857610205565b80630d15fd77116101d95780630d15fd771461027a5780631859df65146102985780631d604930146102b657806322795fd5146102d457610205565b80627d99581461020a57806301502d101461022657806302d947ef146102425780630b5351b31461025e575b600080fd5b610224600480360381019061021f91906145d5565b6106bf565b005b610240600480360381019061023b919061489c565b61085d565b005b61025c6004803603810190610257919061496b565b610a79565b005b610278600480360381019061027391906149ab565b610ee7565b005b61028261106a565b60405161028f9190614a32565b60405180910390f35b6102a0611070565b6040516102ad9190614a32565b60405180910390f35b6102be61107d565b6040516102cb9190614a32565b60405180910390f35b6102ee60048036038101906102e99190614a4d565b611083565b005b61030a60048036038101906103059190614ad8565b611175565b6040516103179190614c7e565b60405180910390f35b61033a600480360381019061033591906149ab565b611427565b005b6103566004803603810190610351919061496b565b6115aa565b005b610372600480360381019061036d9190614ca0565b6118bc565b005b61038e6004803603810190610389919061489c565b611b64565b005b6103aa60048036038101906103a59190614ccd565b611e11565b6040516103b79190614d1c565b60405180910390f35b6103da60048036038101906103d59190614ad8565b611e40565b6040516103ee989796959493929190614d9f565b60405180910390f35b6103ff61205a565b60405161040c9190614a32565b60405180910390f35b61041d612060565b60405161042a9190614a32565b60405180910390f35b61043b612066565b6040516104489190614e32565b60405180910390f35b61046b6004803603810190610466919061496b565b61208c565b005b61048760048036038101906104829190614ad8565b61243e565b60405161049b989796959493929190614d9f565b60405180910390f35b6104be60048036038101906104b99190614ad8565b612658565b6040516104d2989796959493929190614d9f565b60405180910390f35b6104f560048036038101906104f09190614ad8565b612872565b6040516105029190614f0b565b60405180910390f35b61052560048036038101906105209190614ca0565b612b24565b604051610539989796959493929190614f2d565b60405180910390f35b61055c60048036038101906105579190614ad8565b612d1e565b005b610566613393565b6040516105739190614a32565b60405180910390f35b610584613399565b6040516105919190614a32565b60405180910390f35b6105b460048036038101906105af9190614ad8565b61339f565b6040516105c8989796959493929190614d9f565b60405180910390f35b6105eb60048036038101906105e69190614ad8565b6135b9565b005b61060760048036038101906106029190614ad8565b613653565b005b610623600480360381019061061e9190614ca0565b61381a565b6040516106309190614e32565b60405180910390f35b610653600480360381019061064e919061489c565b613859565b005b61066f600480360381019061066a9190614ca0565b613b06565b60405161067c9190614e32565b60405180910390f35b61068d613b45565b60405161069a9190614a32565b60405180910390f35b6106bd60048036038101906106b89190614ad8565b613b52565b005b6106c76141c7565b808210610709576040517f08c379a000000000000000000000000000000000000000000000000000000000815260040161070090615032565b60405180910390fd5b42811161074b576040517f08c379a00000000000000000000000000000000000000000000000000000000081526004016107429061509e565b60405180910390fd5b6003600081548092919061075e906150ed565b91905055506000600e6000600354815260200190815260200160002090506003548160000181905550898982600101918261079a92919061534c565b5087878260020191826107ae92919061534c565b5085858260030191826107c292919061534c565b50838160070160006101000a81548160ff02191690831515021790555060018160070160016101000a81548160ff0219169083151502179055508281600801819055508181600901819055508315156003547fbb20abc750af3ecbf4c7cede72f601071ccc06b8a45978b84e8c54b4075400228c8c87876040516108499493929190615449565b60405180910390a350505050505050505050565b6108656141c7565b600760008573ffffffffffffffffffffffffffffffffffffffff1673ffffffffffffffffffffffffffffffffffffffff16815260200190815260200160002060060160009054906101000a900460ff16156108f5576040517f08c379a00000000000000000000000000000000000000000000000000000000081526004016108ec906154d5565b60405180910390fd5b60026000815480929190610908906150ed565b91905055506000600760008673ffffffffffffffffffffffffffffffffffffffff1673ffffffffffffffffffffffffffffffffffffffff168152602001908152602001600020905060025481600001819055508581600101908161096c91906154f5565b50848160020160006101000a81548173ffffffffffffffffffffffffffffffffffffffff021916908373ffffffffffffffffffffffffffffffffffffffff160217905550838160020160146101000a81548160ff021916908360ff160217905550828160030190816109de91906154f5565b50818160040190816109f091906154f5565b506000816005018190555060018160060160006101000a81548160ff02191690831515021790555085604051610a269190615603565b60405180910390208573ffffffffffffffffffffffffffffffffffffffff167f315d9b8a7d71955c1a45dbe38fa8a1f8811097de4cedb8e4a3adc7cfe10da19560405160405180910390a3505050505050565b81610a8381614259565b600e600084815260200190815260200160002060050160008373ffffffffffffffffffffffffffffffffffffffff1673ffffffffffffffffffffffffffffffffffffffff16815260200190815260200160002060009054906101000a900460ff16610b23576040517f08c379a0000000000000000000000000000000000000000000000000000000008152600401610b1a90615666565b60405180910390fd5b600960003373ffffffffffffffffffffffffffffffffffffffff1673ffffffffffffffffffffffffffffffffffffffff168152602001908152602001600020600084815260200190815260200160002060009054906101000a900460ff1615610bc1576040517f08c379a0000000000000000000000000000000000000000000000000000000008152600401610bb8906156d2565b60405180910390fd5b6000600760008473ffffffffffffffffffffffffffffffffffffffff1673ffffffffffffffffffffffffffffffffffffffff16815260200190815260200160002090508273ffffffffffffffffffffffffffffffffffffffff163373ffffffffffffffffffffffffffffffffffffffff1603610c72576040517f08c379a0000000000000000000000000000000000000000000000000000000008152600401610c699061573e565b60405180910390fd5b600e600085815260200190815260200160002060070160009054906101000a900460ff1615610d8357600860003373ffffffffffffffffffffffffffffffffffffffff1673ffffffffffffffffffffffffffffffffffffffff16815260200190815260200160002060060160009054906101000a900460ff16610d2a576040517f08c379a0000000000000000000000000000000000000000000000000000000008152600401610d21906157aa565b60405180910390fd5b600860003373ffffffffffffffffffffffffffffffffffffffff1673ffffffffffffffffffffffffffffffffffffffff1681526020019081526020016000206005016000815480929190610d7d906150ed565b91905055505b806005016000815480929190610d98906150ed565b9190505550600e600085815260200190815260200160002060060160008473ffffffffffffffffffffffffffffffffffffffff1673ffffffffffffffffffffffffffffffffffffffff1681526020019081526020016000206000815480929190610e01906150ed565b91905055506001600960003373ffffffffffffffffffffffffffffffffffffffff1673ffffffffffffffffffffffffffffffffffffffff168152602001908152602001600020600086815260200190815260200160002060006101000a81548160ff021916908315150217905550600080815480929190610e81906150ed565b9190505550838373ffffffffffffffffffffffffffffffffffffffff163373ffffffffffffffffffffffffffffffffffffffff167f174ba19ba3c8bb5c679c87e51db79fff7c3f04bb84c1fd55b7dacb470b674aa660405160405180910390a450505050565b600860003373ffffffffffffffffffffffffffffffffffffffff1673ffffffffffffffffffffffffffffffffffffffff16815260200190815260200160002060060160009054906101000a900460ff16610f76576040517f08c379a0000000000000000000000000000000000000000000000000000000008152600401610f6d90615816565b60405180910390fd5b81600860003373ffffffffffffffffffffffffffffffffffffffff1673ffffffffffffffffffffffffffffffffffffffff1681526020019081526020016000206003019081610fc591906154f5565b5080600860003373ffffffffffffffffffffffffffffffffffffffff1673ffffffffffffffffffffffffffffffffffffffff168152602001908152602001600020600401908161101591906154f5565b503373ffffffffffffffffffffffffffffffffffffffff167f7a8ac81ab7cc0529a626364c8a0455eac81c033e2b0e7a0677922c3133a4e29f838360405161105e929190615836565b60405180910390a25050565b60005481565b6000600580549050905090565b600b5481565b61108b6141c7565b600e600084815260200190815260200160002060070160019054906101000a900460ff166110ee576040517f08c379a00000000000000000000000000000000000000000000000000000000081526004016110e5906158b9565b60405180910390fd5b81600e6000858152602001908152602001600020600201908161111191906154f5565b5080600e6000858152602001908152602001600020600301908161113591906154f5565b50827f5b0454a518b42dc7b8ef64a805f66978c1b6e536e568b0e32160007b24710e698383604051611168929190615836565b60405180910390a2505050565b61117d6143b0565b600760008373ffffffffffffffffffffffffffffffffffffffff1673ffffffffffffffffffffffffffffffffffffffff16815260200190815260200160002060405180610100016040529081600082015481526020016001820180546111e29061516f565b80601f016020809104026020016040519081016040528092919081815260200182805461120e9061516f565b801561125b5780601f106112305761010080835404028352916020019161125b565b820191906000526020600020905b81548152906001019060200180831161123e57829003601f168201915b505050505081526020016002820160009054906101000a900473ffffffffffffffffffffffffffffffffffffffff1673ffffffffffffffffffffffffffffffffffffffff1673ffffffffffffffffffffffffffffffffffffffff1681526020016002820160149054906101000a900460ff1660ff1660ff1681526020016003820180546112e79061516f565b80601f01602080910402602001604051908101604052809291908181526020018280546113139061516f565b80156113605780601f1061133557610100808354040283529160200191611360565b820191906000526020600020905b81548152906001019060200180831161134357829003601f168201915b505050505081526020016004820180546113799061516f565b80601f01602080910402602001604051908101604052809291908181526020018280546113a59061516f565b80156113f25780601f106113c7576101008083540402835291602001916113f2565b820191906000526020600020905b8154815290600101906020018083116113d557829003601f168201915b50505050508152602001600582015481526020016006820160009054906101000a900460ff1615151515815250509050919050565b600760003373ffffffffffffffffffffffffffffffffffffffff1673ffffffffffffffffffffffffffffffffffffffff16815260200190815260200160002060060160009054906101000a900460ff166114b6576040517f08c379a00000000000000000000000000000000000000000000000000000000081526004016114ad9061594b565b60405180910390fd5b81600760003373ffffffffffffffffffffffffffffffffffffffff1673ffffffffffffffffffffffffffffffffffffffff168152602001908152602001600020600301908161150591906154f5565b5080600760003373ffffffffffffffffffffffffffffffffffffffff1673ffffffffffffffffffffffffffffffffffffffff168152602001908152602001600020600401908161155591906154f5565b503373ffffffffffffffffffffffffffffffffffffffff167f7a8ac81ab7cc0529a626364c8a0455eac81c033e2b0e7a0677922c3133a4e29f838360405161159e929190615836565b60405180910390a25050565b6115b26141c7565b600e600083815260200190815260200160002060070160019054906101000a900460ff16611615576040517f08c379a000000000000000000000000000000000000000000000000000000000815260040161160c906159b7565b60405180910390fd5b600073ffffffffffffffffffffffffffffffffffffffff16600760008373ffffffffffffffffffffffffffffffffffffffff1673ffffffffffffffffffffffffffffffffffffffff16815260200190815260200160002060020160009054906101000a900473ffffffffffffffffffffffffffffffffffffffff1673ffffffffffffffffffffffffffffffffffffffff16036116e6576040517f08c379a00000000000000000000000000000000000000000000000000000000081526004016116dd90615a23565b60405180910390fd5b600e600083815260200190815260200160002060050160008273ffffffffffffffffffffffffffffffffffffffff1673ffffffffffffffffffffffffffffffffffffffff16815260200190815260200160002060009054906101000a900460ff1615611787576040517f08c379a000000000000000000000000000000000000000000000000000000000815260040161177e90615a8f565b60405180910390fd5b600e6000838152602001908152602001600020600401819080600181540180825580915050600190039060005260206000200160009091909190916101000a81548173ffffffffffffffffffffffffffffffffffffffff021916908373ffffffffffffffffffffffffffffffffffffffff1602179055506001600e600084815260200190815260200160002060050160008373ffffffffffffffffffffffffffffffffffffffff1673ffffffffffffffffffffffffffffffffffffffff16815260200190815260200160002060006101000a81548160ff0219169083151502179055508073ffffffffffffffffffffffffffffffffffffffff167f87d4c30c7e9c7f4f2f74f171678d253bfc5b2d8fc939be21c22e9b127c7da1a3836040516118b09190614a32565b60405180910390a25050565b6118c46141c7565b600e600082815260200190815260200160002060070160019054906101000a900460ff16611927576040517f08c379a000000000000000000000000000000000000000000000000000000000815260040161191e90615afb565b60405180910390fd5b6000600e6000838152602001908152602001600020600401905060005b8180549050811015611a9c576000600e6000858152602001908152602001600020600501600084848154811061197d5761197c615b1b565b5b9060005260206000200160009054906101000a900473ffffffffffffffffffffffffffffffffffffffff1673ffffffffffffffffffffffffffffffffffffffff1673ffffffffffffffffffffffffffffffffffffffff16815260200190815260200160002060006101000a81548160ff0219169083151502179055506000600e60008581526020019081526020016000206006016000848481548110611a2657611a25615b1b565b5b9060005260206000200160009054906101000a900473ffffffffffffffffffffffffffffffffffffffff1673ffffffffffffffffffffffffffffffffffffffff1673ffffffffffffffffffffffffffffffffffffffff168152602001908152602001600020819055508080600101915050611944565b50600e6000838152602001908152602001600020600080820160009055600182016000611ac99190614410565b600282016000611ad99190614410565b600382016000611ae99190614410565b600482016000611af99190614450565b6007820160006101000a81549060ff02191690556007820160016101000a81549060ff0219169055600882016000905560098201600090555050817f05f39787bb37d43683a578f1d720308a1e4cd944934f11f73c9564925aca900d60405160405180910390a25050565b600760008573ffffffffffffffffffffffffffffffffffffffff1673ffffffffffffffffffffffffffffffffffffffff16815260200190815260200160002060060160009054906101000a900460ff1615611bf4576040517f08c379a0000000000000000000000000000000000000000000000000000000008152600401611beb90615b96565b60405180910390fd5b6000600d60008673ffffffffffffffffffffffffffffffffffffffff1673ffffffffffffffffffffffffffffffffffffffff1681526020019081526020016000206000015414611c79576040517f08c379a0000000000000000000000000000000000000000000000000000000008152600401611c7090615c02565b60405180910390fd5b600b6000815480929190611c8c906150ed565b9190505550604051806101000160405280600b5481526020018681526020018573ffffffffffffffffffffffffffffffffffffffff1681526020018460ff1681526020018381526020018281526020016000815260200160001515815250600d60008673ffffffffffffffffffffffffffffffffffffffff1673ffffffffffffffffffffffffffffffffffffffff168152602001908152602001600020600082015181600001556020820151816001019081611d4891906154f5565b5060408201518160020160006101000a81548173ffffffffffffffffffffffffffffffffffffffff021916908373ffffffffffffffffffffffffffffffffffffffff16021790555060608201518160020160146101000a81548160ff021916908360ff1602179055506080820151816003019081611dc691906154f5565b5060a0820151816004019081611ddc91906154f5565b5060c0820151816005015560e08201518160060160006101000a81548160ff0219169083151502179055509050505050505050565b60096020528160005260406000206020528060005260406000206000915091509054906101000a900460ff1681565b600c602052806000526040600020600091509050806000015490806001018054611e699061516f565b80601f0160208091040260200160405190810160405280929190818152602001828054611e959061516f565b8015611ee25780601f10611eb757610100808354040283529160200191611ee2565b820191906000526020600020905b815481529060010190602001808311611ec557829003601f168201915b5050505050908060020160009054906101000a900473ffffffffffffffffffffffffffffffffffffffff16908060020160149054906101000a900460ff1690806003018054611f309061516f565b80601f0160208091040260200160405190810160405280929190818152602001828054611f5c9061516f565b8015611fa95780601f10611f7e57610100808354040283529160200191611fa9565b820191906000526020600020905b815481529060010190602001808311611f8c57829003601f168201915b505050505090806004018054611fbe9061516f565b80601f0160208091040260200160405190810160405280929190818152602001828054611fea9061516f565b80156120375780601f1061200c57610100808354040283529160200191612037565b820191906000526020600020905b81548152906001019060200180831161201a57829003601f168201915b5050505050908060050154908060060160009054906101000a900460ff16905088565b600a5481565b60015481565b600460009054906101000a900473ffffffffffffffffffffffffffffffffffffffff1681565b6120946141c7565b600e600083815260200190815260200160002060070160019054906101000a900460ff166120f7576040517f08c379a00000000000000000000000000000000000000000000000000000000081526004016120ee90615c6e565b60405180910390fd5b600e600083815260200190815260200160002060050160008273ffffffffffffffffffffffffffffffffffffffff1673ffffffffffffffffffffffffffffffffffffffff16815260200190815260200160002060009054906101000a900460ff16612197576040517f08c379a000000000000000000000000000000000000000000000000000000000815260040161218e90615666565b60405180910390fd5b6000600e600084815260200190815260200160002060050160008373ffffffffffffffffffffffffffffffffffffffff1673ffffffffffffffffffffffffffffffffffffffff16815260200190815260200160002060006101000a81548160ff021916908315150217905550600e600083815260200190815260200160002060060160008273ffffffffffffffffffffffffffffffffffffffff1673ffffffffffffffffffffffffffffffffffffffff168152602001908152602001600020600090556000600e6000848152602001908152602001600020600401905060005b81805490508110156123f4578273ffffffffffffffffffffffffffffffffffffffff168282815481106122ad576122ac615b1b565b5b9060005260206000200160009054906101000a900473ffffffffffffffffffffffffffffffffffffffff1673ffffffffffffffffffffffffffffffffffffffff16036123e75781600183805490506123059190615c8e565b8154811061231657612315615b1b565b5b9060005260206000200160009054906101000a900473ffffffffffffffffffffffffffffffffffffffff1682828154811061235457612353615b1b565b5b9060005260206000200160006101000a81548173ffffffffffffffffffffffffffffffffffffffff021916908373ffffffffffffffffffffffffffffffffffffffff160217905550818054806123ad576123ac615cc2565b5b6001900381819060005260206000200160006101000a81549073ffffffffffffffffffffffffffffffffffffffff021916905590556123f4565b8080600101915050612277565b508173ffffffffffffffffffffffffffffffffffffffff16837f19f4cb769a462bec6c45ca9cd4feeed63307779833a27f011a5cfa025fd1e92260405160405180910390a3505050565b600d6020528060005260406000206000915090508060000154908060010180546124679061516f565b80601f01602080910402602001604051908101604052809291908181526020018280546124939061516f565b80156124e05780601f106124b5576101008083540402835291602001916124e0565b820191906000526020600020905b8154815290600101906020018083116124c357829003601f168201915b5050505050908060020160009054906101000a900473ffffffffffffffffffffffffffffffffffffffff16908060020160149054906101000a900460ff169080600301805461252e9061516f565b80601f016020809104026020016040519081016040528092919081815260200182805461255a9061516f565b80156125a75780601f1061257c576101008083540402835291602001916125a7565b820191906000526020600020905b81548152906001019060200180831161258a57829003601f168201915b5050505050908060040180546125bc9061516f565b80601f01602080910402602001604051908101604052809291908181526020018280546125e89061516f565b80156126355780601f1061260a57610100808354040283529160200191612635565b820191906000526020600020905b81548152906001019060200180831161261857829003601f168201915b5050505050908060050154908060060160009054906101000a900460ff16905088565b60076020528060005260406000206000915090508060000154908060010180546126819061516f565b80601f01602080910402602001604051908101604052809291908181526020018280546126ad9061516f565b80156126fa5780601f106126cf576101008083540402835291602001916126fa565b820191906000526020600020905b8154815290600101906020018083116126dd57829003601f168201915b5050505050908060020160009054906101000a900473ffffffffffffffffffffffffffffffffffffffff16908060020160149054906101000a900460ff16908060030180546127489061516f565b80601f01602080910402602001604051908101604052809291908181526020018280546127749061516f565b80156127c15780601f10612796576101008083540402835291602001916127c1565b820191906000526020600020905b8154815290600101906020018083116127a457829003601f168201915b5050505050908060040180546127d69061516f565b80601f01602080910402602001604051908101604052809291908181526020018280546128029061516f565b801561284f5780601f106128245761010080835404028352916020019161284f565b820191906000526020600020905b81548152906001019060200180831161283257829003601f168201915b5050505050908060050154908060060160009054906101000a900460ff16905088565b61287a614471565b600860008373ffffffffffffffffffffffffffffffffffffffff1673ffffffffffffffffffffffffffffffffffffffff16815260200190815260200160002060405180610100016040529081600082015481526020016001820180546128df9061516f565b80601f016020809104026020016040519081016040528092919081815260200182805461290b9061516f565b80156129585780601f1061292d57610100808354040283529160200191612958565b820191906000526020600020905b81548152906001019060200180831161293b57829003601f168201915b505050505081526020016002820160009054906101000a900473ffffffffffffffffffffffffffffffffffffffff1673ffffffffffffffffffffffffffffffffffffffff1673ffffffffffffffffffffffffffffffffffffffff1681526020016002820160149054906101000a900460ff1660ff1660ff1681526020016003820180546129e49061516f565b80601f0160208091040260200160405190810160405280929190818152602001828054612a109061516f565b8015612a5d5780601f10612a3257610100808354040283529160200191612a5d565b820191906000526020600020905b815481529060010190602001808311612a4057829003601f168201915b50505050508152602001600482018054612a769061516f565b80601f0160208091040260200160405190810160405280929190818152602001828054612aa29061516f565b8015612aef5780601f10612ac457610100808354040283529160200191612aef565b820191906000526020600020905b815481529060010190602001808311612ad257829003601f168201915b50505050508152602001600582015481526020016006820160009054906101000a900460ff1615151515815250509050919050565b600e602052806000526040600020600091509050806000015490806001018054612b4d9061516f565b80601f0160208091040260200160405190810160405280929190818152602001828054612b799061516f565b8015612bc65780601f10612b9b57610100808354040283529160200191612bc6565b820191906000526020600020905b815481529060010190602001808311612ba957829003601f168201915b505050505090806002018054612bdb9061516f565b80601f0160208091040260200160405190810160405280929190818152602001828054612c079061516f565b8015612c545780601f10612c2957610100808354040283529160200191612c54565b820191906000526020600020905b815481529060010190602001808311612c3757829003601f168201915b505050505090806003018054612c699061516f565b80601f0160208091040260200160405190810160405280929190818152602001828054612c959061516f565b8015612ce25780601f10612cb757610100808354040283529160200191612ce2565b820191906000526020600020905b815481529060010190602001808311612cc557829003601f168201915b5050505050908060070160009054906101000a900460ff16908060070160019054906101000a900460ff16908060080154908060090154905088565b612d266141c7565b600860008273ffffffffffffffffffffffffffffffffffffffff1673ffffffffffffffffffffffffffffffffffffffff16815260200190815260200160002060060160009054906101000a900460ff1615612db6576040517f08c379a0000000000000000000000000000000000000000000000000000000008152600401612dad90615d3d565b60405180910390fd5b6000600c60008373ffffffffffffffffffffffffffffffffffffffff1673ffffffffffffffffffffffffffffffffffffffff1681526020019081526020016000206040518061010001604052908160008201548152602001600182018054612e1d9061516f565b80601f0160208091040260200160405190810160405280929190818152602001828054612e499061516f565b8015612e965780601f10612e6b57610100808354040283529160200191612e96565b820191906000526020600020905b815481529060010190602001808311612e7957829003601f168201915b505050505081526020016002820160009054906101000a900473ffffffffffffffffffffffffffffffffffffffff1673ffffffffffffffffffffffffffffffffffffffff1673ffffffffffffffffffffffffffffffffffffffff1681526020016002820160149054906101000a900460ff1660ff1660ff168152602001600382018054612f229061516f565b80601f0160208091040260200160405190810160405280929190818152602001828054612f4e9061516f565b8015612f9b5780601f10612f7057610100808354040283529160200191612f9b565b820191906000526020600020905b815481529060010190602001808311612f7e57829003601f168201915b50505050508152602001600482018054612fb49061516f565b80601f0160208091040260200160405190810160405280929190818152602001828054612fe09061516f565b801561302d5780601f106130025761010080835404028352916020019161302d565b820191906000526020600020905b81548152906001019060200180831161301057829003601f168201915b50505050508152602001600582015481526020016006820160009054906101000a900460ff161515151581525050905060016000815480929190613070906150ed565b91905055506040518061010001604052806001548152602001826020015181526020018373ffffffffffffffffffffffffffffffffffffffff168152602001826060015160ff168152602001826080015181526020018260a0015181526020016000815260200160011515815250600860008473ffffffffffffffffffffffffffffffffffffffff1673ffffffffffffffffffffffffffffffffffffffff16815260200190815260200160002060008201518160000155602082015181600101908161313c91906154f5565b5060408201518160020160006101000a81548173ffffffffffffffffffffffffffffffffffffffff021916908373ffffffffffffffffffffffffffffffffffffffff16021790555060608201518160020160146101000a81548160ff021916908360ff16021790555060808201518160030190816131ba91906154f5565b5060a08201518160040190816131d091906154f5565b5060c0820151816005015560e08201518160060160006101000a81548160ff0219169083151502179055509050506006829080600181540180825580915050600190039060005260206000200160009091909190916101000a81548173ffffffffffffffffffffffffffffffffffffffff021916908373ffffffffffffffffffffffffffffffffffffffff160217905550600c60008373ffffffffffffffffffffffffffffffffffffffff1673ffffffffffffffffffffffffffffffffffffffff1681526020019081526020016000206000808201600090556001820160006132b99190614410565b6002820160006101000a81549073ffffffffffffffffffffffffffffffffffffffff02191690556002820160146101000a81549060ff02191690556003820160006133049190614410565b6004820160006133149190614410565b60058201600090556006820160006101000a81549060ff0219169055505080602001516040516133449190615603565b60405180910390208273ffffffffffffffffffffffffffffffffffffffff167ffe579c15cc6923452a2dfc18cfd63cfc9e61f3481a9fd737f2a2f4e4574ae39760405160405180910390a35050565b60025481565b60035481565b60086020528060005260406000206000915090508060000154908060010180546133c89061516f565b80601f01602080910402602001604051908101604052809291908181526020018280546133f49061516f565b80156134415780601f1061341657610100808354040283529160200191613441565b820191906000526020600020905b81548152906001019060200180831161342457829003601f168201915b5050505050908060020160009054906101000a900473ffffffffffffffffffffffffffffffffffffffff16908060020160149054906101000a900460ff169080600301805461348f9061516f565b80601f01602080910402602001604051908101604052809291908181526020018280546134bb9061516f565b80156135085780601f106134dd57610100808354040283529160200191613508565b820191906000526020600020905b8154815290600101906020018083116134eb57829003601f168201915b50505050509080600401805461351d9061516f565b80601f01602080910402602001604051908101604052809291908181526020018280546135499061516f565b80156135965780601f1061356b57610100808354040283529160200191613596565b820191906000526020600020905b81548152906001019060200180831161357957829003601f168201915b5050505050908060050154908060060160009054906101000a900460ff16905088565b6135c16141c7565b80600460006101000a81548173ffffffffffffffffffffffffffffffffffffffff021916908373ffffffffffffffffffffffffffffffffffffffff1602179055508073ffffffffffffffffffffffffffffffffffffffff167ff7a460565ec579a5fb496fc20f658870956a86cdd691b375a595f20e8f8d6b62336040516136489190614e32565b60405180910390a250565b600061365d614371565b905060008160000160089054906101000a900460ff1615905060008260000160009054906101000a900467ffffffffffffffff1690506000808267ffffffffffffffff161480156136ab5750825b9050600060018367ffffffffffffffff161480156136e0575060003073ffffffffffffffffffffffffffffffffffffffff163b145b9050811580156136ee575080155b15613725576040517ff92ee8a900000000000000000000000000000000000000000000000000000000815260040160405180910390fd5b60018560000160006101000a81548167ffffffffffffffff021916908367ffffffffffffffff16021790555083156137755760018560000160086101000a81548160ff0219169083151502179055505b85600460006101000a81548173ffffffffffffffffffffffffffffffffffffffff021916908373ffffffffffffffffffffffffffffffffffffffff16021790555083156138125760008560000160086101000a81548160ff0219169083151502179055507fc7f505b2f371ae2175ee4913f4499e1f2633a7b5936321eed1cdaeb6115181d260016040516138099190615dac565b60405180910390a15b505050505050565b6005818154811061382a57600080fd5b906000526020600020016000915054906101000a900473ffffffffffffffffffffffffffffffffffffffff1681565b600860008573ffffffffffffffffffffffffffffffffffffffff1673ffffffffffffffffffffffffffffffffffffffff16815260200190815260200160002060060160009054906101000a900460ff16156138e9576040517f08c379a00000000000000000000000000000000000000000000000000000000081526004016138e090615d3d565b60405180910390fd5b6000600c60008673ffffffffffffffffffffffffffffffffffffffff1673ffffffffffffffffffffffffffffffffffffffff168152602001908152602001600020600001541461396e576040517f08c379a000000000000000000000000000000000000000000000000000000000815260040161396590615c02565b60405180910390fd5b600a6000815480929190613981906150ed565b9190505550604051806101000160405280600a5481526020018681526020018573ffffffffffffffffffffffffffffffffffffffff1681526020018460ff1681526020018381526020018281526020016000815260200160001515815250600c60008673ffffffffffffffffffffffffffffffffffffffff1673ffffffffffffffffffffffffffffffffffffffff168152602001908152602001600020600082015181600001556020820151816001019081613a3d91906154f5565b5060408201518160020160006101000a81548173ffffffffffffffffffffffffffffffffffffffff021916908373ffffffffffffffffffffffffffffffffffffffff16021790555060608201518160020160146101000a81548160ff021916908360ff1602179055506080820151816003019081613abb91906154f5565b5060a0820151816004019081613ad191906154f5565b5060c0820151816005015560e08201518160060160006101000a81548160ff0219169083151502179055509050505050505050565b60068181548110613b1657600080fd5b906000526020600020016000915054906101000a900473ffffffffffffffffffffffffffffffffffffffff1681565b6000600680549050905090565b613b5a6141c7565b600760008273ffffffffffffffffffffffffffffffffffffffff1673ffffffffffffffffffffffffffffffffffffffff16815260200190815260200160002060060160009054906101000a900460ff1615613bea576040517f08c379a0000000000000000000000000000000000000000000000000000000008152600401613be190615b96565b60405180910390fd5b6000600d60008373ffffffffffffffffffffffffffffffffffffffff1673ffffffffffffffffffffffffffffffffffffffff1681526020019081526020016000206040518061010001604052908160008201548152602001600182018054613c519061516f565b80601f0160208091040260200160405190810160405280929190818152602001828054613c7d9061516f565b8015613cca5780601f10613c9f57610100808354040283529160200191613cca565b820191906000526020600020905b815481529060010190602001808311613cad57829003601f168201915b505050505081526020016002820160009054906101000a900473ffffffffffffffffffffffffffffffffffffffff1673ffffffffffffffffffffffffffffffffffffffff1673ffffffffffffffffffffffffffffffffffffffff1681526020016002820160149054906101000a900460ff1660ff1660ff168152602001600382018054613d569061516f565b80601f0160208091040260200160405190810160405280929190818152602001828054613d829061516f565b8015613dcf5780601f10613da457610100808354040283529160200191613dcf565b820191906000526020600020905b815481529060010190602001808311613db257829003601f168201915b50505050508152602001600482018054613de89061516f565b80601f0160208091040260200160405190810160405280929190818152602001828054613e149061516f565b8015613e615780601f10613e3657610100808354040283529160200191613e61565b820191906000526020600020905b815481529060010190602001808311613e4457829003601f168201915b50505050508152602001600582015481526020016006820160009054906101000a900460ff161515151581525050905060026000815480929190613ea4906150ed565b91905055506040518061010001604052806002548152602001826020015181526020018373ffffffffffffffffffffffffffffffffffffffff168152602001826060015160ff168152602001826080015181526020018260a0015181526020016000815260200160011515815250600760008473ffffffffffffffffffffffffffffffffffffffff1673ffffffffffffffffffffffffffffffffffffffff168152602001908152602001600020600082015181600001556020820151816001019081613f7091906154f5565b5060408201518160020160006101000a81548173ffffffffffffffffffffffffffffffffffffffff021916908373ffffffffffffffffffffffffffffffffffffffff16021790555060608201518160020160146101000a81548160ff021916908360ff1602179055506080820151816003019081613fee91906154f5565b5060a082015181600401908161400491906154f5565b5060c0820151816005015560e08201518160060160006101000a81548160ff0219169083151502179055509050506005829080600181540180825580915050600190039060005260206000200160009091909190916101000a81548173ffffffffffffffffffffffffffffffffffffffff021916908373ffffffffffffffffffffffffffffffffffffffff160217905550600d60008373ffffffffffffffffffffffffffffffffffffffff1673ffffffffffffffffffffffffffffffffffffffff1681526020019081526020016000206000808201600090556001820160006140ed9190614410565b6002820160006101000a81549073ffffffffffffffffffffffffffffffffffffffff02191690556002820160146101000a81549060ff02191690556003820160006141389190614410565b6004820160006141489190614410565b60058201600090556006820160006101000a81549060ff0219169055505080602001516040516141789190615603565b60405180910390208273ffffffffffffffffffffffffffffffffffffffff167f315d9b8a7d71955c1a45dbe38fa8a1f8811097de4cedb8e4a3adc7cfe10da19560405160405180910390a35050565b600460009054906101000a900473ffffffffffffffffffffffffffffffffffffffff1673ffffffffffffffffffffffffffffffffffffffff163373ffffffffffffffffffffffffffffffffffffffff1614614257576040517f08c379a000000000000000000000000000000000000000000000000000000000815260040161424e90615e13565b60405180910390fd5b565b600e600082815260200190815260200160002060070160019054906101000a900460ff166142bc576040517f08c379a00000000000000000000000000000000000000000000000000000000081526004016142b390615c6e565b60405180910390fd5b600e600082815260200190815260200160002060080154421015614315576040517f08c379a000000000000000000000000000000000000000000000000000000000815260040161430c90615e7f565b60405180910390fd5b600e60008281526020019081526020016000206009015442111561436e576040517f08c379a000000000000000000000000000000000000000000000000000000000815260040161436590615eeb565b60405180910390fd5b50565b60008061437c614385565b90508091505090565b60007ff0c57e16840df040f15088dc2f81fe391c3923bec73e23a9662efc9c229c6a0060001b905090565b6040518061010001604052806000815260200160608152602001600073ffffffffffffffffffffffffffffffffffffffff168152602001600060ff1681526020016060815260200160608152602001600081526020016000151581525090565b50805461441c9061516f565b6000825580601f1061442e575061444d565b601f01602090049060005260206000209081019061444c91906144d1565b5b50565b508054600082559060005260206000209081019061446e91906144d1565b50565b6040518061010001604052806000815260200160608152602001600073ffffffffffffffffffffffffffffffffffffffff168152602001600060ff1681526020016060815260200160608152602001600081526020016000151581525090565b5b808211156144ea5760008160009055506001016144d2565b5090565b6000604051905090565b600080fd5b600080fd5b600080fd5b600080fd5b600080fd5b60008083601f84011261452757614526614502565b5b8235905067ffffffffffffffff81111561454457614543614507565b5b6020830191508360018202830111156145605761455f61450c565b5b9250929050565b60008115159050919050565b61457c81614567565b811461458757600080fd5b50565b60008135905061459981614573565b92915050565b6000819050919050565b6145b28161459f565b81146145bd57600080fd5b50565b6000813590506145cf816145a9565b92915050565b600080600080600080600080600060c08a8c0312156145f7576145f66144f8565b5b60008a013567ffffffffffffffff811115614615576146146144fd565b5b6146218c828d01614511565b995099505060208a013567ffffffffffffffff811115614644576146436144fd565b5b6146508c828d01614511565b975097505060408a013567ffffffffffffffff811115614673576146726144fd565b5b61467f8c828d01614511565b955095505060606146928c828d0161458a565b93505060806146a38c828d016145c0565b92505060a06146b48c828d016145c0565b9150509295985092959850929598565b600080fd5b6000601f19601f8301169050919050565b7f4e487b7100000000000000000000000000000000000000000000000000000000600052604160045260246000fd5b614712826146c9565b810181811067ffffffffffffffff82111715614731576147306146da565b5b80604052505050565b60006147446144ee565b90506147508282614709565b919050565b600067ffffffffffffffff8211156147705761476f6146da565b5b614779826146c9565b9050602081019050919050565b82818337600083830152505050565b60006147a86147a384614755565b61473a565b9050828152602081018484840111156147c4576147c36146c4565b5b6147cf848285614786565b509392505050565b600082601f8301126147ec576147eb614502565b5b81356147fc848260208601614795565b91505092915050565b600073ffffffffffffffffffffffffffffffffffffffff82169050919050565b600061483082614805565b9050919050565b61484081614825565b811461484b57600080fd5b50565b60008135905061485d81614837565b92915050565b600060ff82169050919050565b61487981614863565b811461488457600080fd5b50565b60008135905061489681614870565b92915050565b600080600080600060a086880312156148b8576148b76144f8565b5b600086013567ffffffffffffffff8111156148d6576148d56144fd565b5b6148e2888289016147d7565b95505060206148f38882890161484e565b945050604061490488828901614887565b935050606086013567ffffffffffffffff811115614925576149246144fd565b5b614931888289016147d7565b925050608086013567ffffffffffffffff811115614952576149516144fd565b5b61495e888289016147d7565b9150509295509295909350565b60008060408385031215614982576149816144f8565b5b6000614990858286016145c0565b92505060206149a18582860161484e565b9150509250929050565b600080604083850312156149c2576149c16144f8565b5b600083013567ffffffffffffffff8111156149e0576149df6144fd565b5b6149ec858286016147d7565b925050602083013567ffffffffffffffff811115614a0d57614a0c6144fd565b5b614a19858286016147d7565b9150509250929050565b614a2c8161459f565b82525050565b6000602082019050614a476000830184614a23565b92915050565b600080600060608486031215614a6657614a656144f8565b5b6000614a74868287016145c0565b935050602084013567ffffffffffffffff811115614a9557614a946144fd565b5b614aa1868287016147d7565b925050604084013567ffffffffffffffff811115614ac257614ac16144fd565b5b614ace868287016147d7565b9150509250925092565b600060208284031215614aee57614aed6144f8565b5b6000614afc8482850161484e565b91505092915050565b614b0e8161459f565b82525050565b600081519050919050565b600082825260208201905092915050565b60005b83811015614b4e578082015181840152602081019050614b33565b60008484015250505050565b6000614b6582614b14565b614b6f8185614b1f565b9350614b7f818560208601614b30565b614b88816146c9565b840191505092915050565b614b9c81614825565b82525050565b614bab81614863565b82525050565b614bba81614567565b82525050565b600061010083016000830151614bd96000860182614b05565b5060208301518482036020860152614bf18282614b5a565b9150506040830151614c066040860182614b93565b506060830151614c196060860182614ba2565b5060808301518482036080860152614c318282614b5a565b91505060a083015184820360a0860152614c4b8282614b5a565b91505060c0830151614c6060c0860182614b05565b5060e0830151614c7360e0860182614bb1565b508091505092915050565b60006020820190508181036000830152614c988184614bc0565b905092915050565b600060208284031215614cb657614cb56144f8565b5b6000614cc4848285016145c0565b91505092915050565b60008060408385031215614ce457614ce36144f8565b5b6000614cf28582860161484e565b9250506020614d03858286016145c0565b9150509250929050565b614d1681614567565b82525050565b6000602082019050614d316000830184614d0d565b92915050565b600082825260208201905092915050565b6000614d5382614b14565b614d5d8185614d37565b9350614d6d818560208601614b30565b614d76816146c9565b840191505092915050565b614d8a81614825565b82525050565b614d9981614863565b82525050565b600061010082019050614db5600083018b614a23565b8181036020830152614dc7818a614d48565b9050614dd66040830189614d81565b614de36060830188614d90565b8181036080830152614df58187614d48565b905081810360a0830152614e098186614d48565b9050614e1860c0830185614a23565b614e2560e0830184614d0d565b9998505050505050505050565b6000602082019050614e476000830184614d81565b92915050565b600061010083016000830151614e666000860182614b05565b5060208301518482036020860152614e7e8282614b5a565b9150506040830151614e936040860182614b93565b506060830151614ea66060860182614ba2565b5060808301518482036080860152614ebe8282614b5a565b91505060a083015184820360a0860152614ed88282614b5a565b91505060c0830151614eed60c0860182614b05565b5060e0830151614f0060e0860182614bb1565b508091505092915050565b60006020820190508181036000830152614f258184614e4d565b905092915050565b600061010082019050614f43600083018b614a23565b8181036020830152614f55818a614d48565b90508181036040830152614f698189614d48565b90508181036060830152614f7d8188614d48565b9050614f8c6080830187614d0d565b614f9960a0830186614d0d565b614fa660c0830185614a23565b614fb360e0830184614a23565b9998505050505050505050565b7f53746172742074696d65206d757374206265206265666f726520656e6420746960008201527f6d65210000000000000000000000000000000000000000000000000000000000602082015250565b600061501c602383614d37565b915061502782614fc0565b604082019050919050565b6000602082019050818103600083015261504b8161500f565b9050919050565b7f456e642074696d65206d75737420626520696e20746865206675747572652100600082015250565b6000615088601f83614d37565b915061509382615052565b602082019050919050565b600060208201905081810360008301526150b78161507b565b9050919050565b7f4e487b7100000000000000000000000000000000000000000000000000000000600052601160045260246000fd5b60006150f88261459f565b91507fffffffffffffffffffffffffffffffffffffffffffffffffffffffffffffffff820361512a576151296150be565b5b600182019050919050565b600082905092915050565b7f4e487b7100000000000000000000000000000000000000000000000000000000600052602260045260246000fd5b6000600282049050600182168061518757607f821691505b60208210810361519a57615199615140565b5b50919050565b60008190508160005260206000209050919050565b60006020601f8301049050919050565b600082821b905092915050565b6000600883026152027fffffffffffffffffffffffffffffffffffffffffffffffffffffffffffffffff826151c5565b61520c86836151c5565b95508019841693508086168417925050509392505050565b6000819050919050565b600061524961524461523f8461459f565b615224565b61459f565b9050919050565b6000819050919050565b6152638361522e565b61527761526f82615250565b8484546151d2565b825550505050565b600090565b61528c61527f565b61529781848461525a565b505050565b5b818110156152bb576152b0600082615284565b60018101905061529d565b5050565b601f821115615300576152d1816151a0565b6152da846151b5565b810160208510156152e9578190505b6152fd6152f5856151b5565b83018261529c565b50505b505050565b600082821c905092915050565b600061532360001984600802615305565b1980831691505092915050565b600061533c8383615312565b9150826002028217905092915050565b6153568383615135565b67ffffffffffffffff81111561536f5761536e6146da565b5b615379825461516f565b6153848282856152bf565b6000601f8311600181146153b357600084156153a1578287013590505b6153ab8582615330565b865550615413565b601f1984166153c1866151a0565b60005b828110156153e9578489013582556001820191506020850194506020810190506153c4565b868310156154065784890135615402601f891682615312565b8355505b6001600288020188555050505b50505050505050565b60006154288385614d37565b9350615435838584614786565b61543e836146c9565b840190509392505050565b6000606082019050818103600083015261546481868861541c565b90506154736020830185614a23565b6154806040830184614a23565b95945050505050565b7f43616e64696461746520616c7265616479206578697374732100000000000000600082015250565b60006154bf601983614d37565b91506154ca82615489565b602082019050919050565b600060208201905081810360008301526154ee816154b2565b9050919050565b6154fe82614b14565b67ffffffffffffffff811115615517576155166146da565b5b615521825461516f565b61552c8282856152bf565b600060209050601f83116001811461555f576000841561554d578287015190505b6155578582615330565b8655506155bf565b601f19841661556d866151a0565b60005b8281101561559557848901518255600182019150602085019450602081019050615570565b868310156155b257848901516155ae601f891682615312565b8355505b6001600288020188555050505b505050505050565b600081905092915050565b60006155dd82614b14565b6155e781856155c7565b93506155f7818560208601614b30565b80840191505092915050565b600061560f82846155d2565b915081905092915050565b7f43616e646964617465206e6f7420696e20746869732067726f75702100000000600082015250565b6000615650601c83614d37565b915061565b8261561a565b602082019050919050565b6000602082019050818103600083015261567f81615643565b9050919050565b7f416c726561647920766f74656420696e20746869732067726f75702100000000600082015250565b60006156bc601c83614d37565b91506156c782615686565b602082019050919050565b600060208201905081810360008301526156eb816156af565b9050919050565b7f596f752063616e6e6f7420766f746520666f7220796f757273656c6621000000600082015250565b6000615728601d83614d37565b9150615733826156f2565b602082019050919050565b600060208201905081810360008301526157578161571b565b9050919050565b7f596f75206d7573742062652061207265676973746572656420766f7465722100600082015250565b6000615794601f83614d37565b915061579f8261575e565b602082019050919050565b600060208201905081810360008301526157c381615787565b9050919050565b7f596f7520617265206e6f742061207265676973746572656420766f7465722100600082015250565b6000615800601f83614d37565b915061580b826157ca565b602082019050919050565b6000602082019050818103600083015261582f816157f3565b9050919050565b600060408201905081810360008301526158508185614d48565b905081810360208301526158648184614d48565b90509392505050565b7f4e6f20737563682067726f757021000000000000000000000000000000000000600082015250565b60006158a3600e83614d37565b91506158ae8261586d565b602082019050919050565b600060208201905081810360008301526158d281615896565b9050919050565b7f596f7520617265206e6f74206120726567697374657265642063616e6469646160008201527f7465210000000000000000000000000000000000000000000000000000000000602082015250565b6000615935602383614d37565b9150615940826158d9565b604082019050919050565b6000602082019050818103600083015261596481615928565b9050919050565b7f47726f757020646f65736e277420657869737421000000000000000000000000600082015250565b60006159a1601483614d37565b91506159ac8261596b565b602082019050919050565b600060208201905081810360008301526159d081615994565b9050919050565b7f43616e64696461746520646f6573206e6f742065786973742100000000000000600082015250565b6000615a0d601983614d37565b9150615a18826159d7565b602082019050919050565b60006020820190508181036000830152615a3c81615a00565b9050919050565b7f43616e64696461746520616c726561647920696e2067726f7570210000000000600082015250565b6000615a79601b83614d37565b9150615a8482615a43565b602082019050919050565b60006020820190508181036000830152615aa881615a6c565b9050919050565b7f4e6f2067726f7570206578697374732100000000000000000000000000000000600082015250565b6000615ae5601083614d37565b9150615af082615aaf565b602082019050919050565b60006020820190508181036000830152615b1481615ad8565b9050919050565b7f4e487b7100000000000000000000000000000000000000000000000000000000600052603260045260246000fd5b7f416c726561647920616e20617070726f7665642063616e646964617465210000600082015250565b6000615b80601e83614d37565b9150615b8b82615b4a565b602082019050919050565b60006020820190508181036000830152615baf81615b73565b9050919050565b7f416c7265616479206170706c6965642100000000000000000000000000000000600082015250565b6000615bec601083614d37565b9150615bf782615bb6565b602082019050919050565b60006020820190508181036000830152615c1b81615bdf565b9050919050565b7f47726f757020646f6573206e6f74206578697374210000000000000000000000600082015250565b6000615c58601583614d37565b9150615c6382615c22565b602082019050919050565b60006020820190508181036000830152615c8781615c4b565b9050919050565b6000615c998261459f565b9150615ca48361459f565b9250828203905081811115615cbc57615cbb6150be565b5b92915050565b7f4e487b7100000000000000000000000000000000000000000000000000000000600052603160045260246000fd5b7f416c726561647920616e20617070726f76656420766f74657221000000000000600082015250565b6000615d27601a83614d37565b9150615d3282615cf1565b602082019050919050565b60006020820190508181036000830152615d5681615d1a565b9050919050565b6000819050919050565b600067ffffffffffffffff82169050919050565b6000615d96615d91615d8c84615d5d565b615224565b615d67565b9050919050565b615da681615d7b565b82525050565b6000602082019050615dc16000830184615d9d565b92915050565b7f4f6e6c79206f7267616e697a65722063616e20646f2069742100000000000000600082015250565b6000615dfd601983614d37565b9150615e0882615dc7565b602082019050919050565b60006020820190508181036000830152615e2c81615df0565b9050919050565b7f566f74696e67206e6f7420737461727465642079657421000000000000000000600082015250565b6000615e69601783614d37565b9150615e7482615e33565b602082019050919050565b60006020820190508181036000830152615e9881615e5c565b9050919050565b7f566f74696e6720656e6465642100000000000000000000000000000000000000600082015250565b6000615ed5600d83614d37565b9150615ee082615e9f565b602082019050919050565b60006020820190508181036000830152615f0481615ec8565b905091905056fea2646970667358221220938c823fb3f84bce2b4b90aa47c1ab39f4cc0920eb659d72ab9ffa33b9c0c43b64736f6c634300081c0033",
  "linkReferences": {},
  "deployedLinkReferences": {}
}