{
  "_format": "hh-sol-artifact-1",
  "contractName": "Voting",
  "sourceName": "contracts/voting.sol",
  "abi": [
    {
      "inputs": [],
      "name": "InvalidInitialization",
      "type": "error"
    },
    {
      "inputs": [],
      "name": "NotInitializing",
      "type": "error"
    },
    {
      "anonymous": false,
      "inputs": [
        {
          "indexed": true,
          "internalType": "address",
          "name": "candidate",
          "type": "address"
        },
        {
          "indexed": false,
          "internalType": "uint256",
          "name": "groupId",
          "type": "uint256"
        }
      ],
      "name": "AddedCandidateToGroup",
      "type": "event"
    },
    {
      "anonymous": false,
      "inputs": [
        {
          "indexed": true,
          "internalType": "address",
          "name": "addr",
          "type": "address"
        },
        {
          "indexed": true,
          "internalType": "string",
          "name": "name",
          "type": "string"
        }
      ],
      "name": "CandidateCreated",
      "type": "event"
    },
    {
      "anonymous": false,
      "inputs": [
        {
          "indexed": true,
          "internalType": "uint256",
          "name": "groupId",
          "type": "uint256"
        },
        {
          "indexed": true,
          "internalType": "address",
          "name": "candidateAddr",
          "type": "address"
        }
      ],
      "name": "CandidateRemovedFromGroup",
      "type": "event"
    },
    {
      "anonymous": false,
      "inputs": [
        {
          "indexed": false,
          "internalType": "address",
          "name": "prevOrganizer",
          "type": "address"
        },
        {
          "indexed": true,
          "internalType": "address",
          "name": "newOrganizer",
          "type": "address"
        }
      ],
      "name": "ChangeOrganizer",
      "type": "event"
    },
    {
      "anonymous": false,
      "inputs": [
        {
          "indexed": true,
          "internalType": "uint256",
          "name": "groupId",
          "type": "uint256"
        },
        {
          "indexed": false,
          "internalType": "string",
          "name": "name",
          "type": "string"
        },
        {
          "indexed": true,
          "internalType": "bool",
          "name": "requiresRegisteredVoters",
          "type": "bool"
        },
        {
          "indexed": false,
          "internalType": "uint256",
          "name": "startTime",
          "type": "uint256"
        },
        {
          "indexed": false,
          "internalType": "uint256",
          "name": "endTime",
          "type": "uint256"
        }
      ],
      "name": "GroupCreated",
      "type": "event"
    },
    {
      "anonymous": false,
      "inputs": [
        {
          "indexed": true,
          "internalType": "uint256",
          "name": "groupId",
          "type": "uint256"
        }
      ],
      "name": "GroupDeleted",
      "type": "event"
    },
    {
      "anonymous": false,
      "inputs": [
        {
          "indexed": true,
          "internalType": "uint256",
          "name": "groupId",
          "type": "uint256"
        },
        {
          "indexed": false,
          "internalType": "string",
          "name": "newImage",
          "type": "string"
        },
        {
          "indexed": false,
          "internalType": "string",
          "name": "newIpfs",
          "type": "string"
        }
      ],
      "name": "GroupImageUpdated",
      "type": "event"
    },
    {
      "anonymous": false,
      "inputs": [
        {
          "indexed": true,
          "internalType": "address",
          "name": "user",
          "type": "address"
        },
        {
          "indexed": false,
          "internalType": "string",
          "name": "newImage",
          "type": "string"
        },
        {
          "indexed": false,
          "internalType": "string",
          "name": "newIpfs",
          "type": "string"
        }
      ],
      "name": "ImageUpdated",
      "type": "event"
    },
    {
      "anonymous": false,
      "inputs": [
        {
          "indexed": false,
          "internalType": "uint64",
          "name": "version",
          "type": "uint64"
        }
      ],
      "name": "Initialized",
      "type": "event"
    },
    {
      "anonymous": false,
      "inputs": [
        {
          "indexed": true,
          "internalType": "address",
          "name": "voter",
          "type": "address"
        },
        {
          "indexed": true,
          "internalType": "address",
          "name": "candidate",
          "type": "address"
        },
        {
          "indexed": true,
          "internalType": "uint256",
          "name": "groupId",
          "type": "uint256"
        }
      ],
      "name": "Voted",
      "type": "event"
    },
    {
      "anonymous": false,
      "inputs": [
        {
          "indexed": true,
          "internalType": "address",
          "name": "addr",
          "type": "address"
        },
        {
          "indexed": true,
          "internalType": "string",
          "name": "name",
          "type": "string"
        }
      ],
      "name": "VoterCreated",
      "type": "event"
    },
    {
      "inputs": [
        {
          "internalType": "address",
          "name": "_addr",
          "type": "address"
        }
      ],
      "name": "addCandidateByApproval",
      "outputs": [],
      "stateMutability": "nonpayable",
      "type": "function"
    },
    {
      "inputs": [
        {
          "internalType": "uint256",
          "name": "_groupId",
          "type": "uint256"
        },
        {
          "internalType": "address",
          "name": "_candidateAddress",
          "type": "address"
        }
      ],
      "name": "addCandidateToGroup",
      "outputs": [],
      "stateMutability": "nonpayable",
      "type": "function"
    },
    {
      "inputs": [
        {
          "internalType": "address",
          "name": "_addr",
          "type": "address"
        }
      ],
      "name": "addVoterByApproval",
      "outputs": [],
      "stateMutability": "nonpayable",
      "type": "function"
    },
    {
      "inputs": [
        {
          "internalType": "string",
          "name": "_name",
          "type": "string"
        },
        {
          "internalType": "address",
          "name": "_addr",
          "type": "address"
        },
        {
          "internalType": "uint8",
          "name": "_age",
          "type": "uint8"
        },
        {
          "internalType": "string",
          "name": "_image",
          "type": "string"
        },
        {
          "internalType": "string",
          "name": "_ipfs",
          "type": "string"
        }
      ],
      "name": "applyToBeCandidate",
      "outputs": [],
      "stateMutability": "nonpayable",
      "type": "function"
    },
    {
      "inputs": [
        {
          "internalType": "string",
          "name": "_name",
          "type": "string"
        },
        {
          "internalType": "address",
          "name": "_addr",
          "type": "address"
        },
        {
          "internalType": "uint8",
          "name": "_age",
          "type": "uint8"
        },
        {
          "internalType": "string",
          "name": "_image",
          "type": "string"
        },
        {
          "internalType": "string",
          "name": "_ipfs",
          "type": "string"
        }
      ],
      "name": "applyToBeVoter",
      "outputs": [],
      "stateMutability": "nonpayable",
      "type": "function"
    },
    {
      "inputs": [
        {
          "internalType": "uint256",
          "name": "",
          "type": "uint256"
        }
      ],
      "name": "candidateAddresses",
      "outputs": [
        {
          "internalType": "address",
          "name": "",
          "type": "address"
        }
      ],
      "stateMutability": "view",
      "type": "function"
    },
    {
      "inputs": [],
      "name": "candidateId",
      "outputs": [
        {
          "internalType": "uint256",
          "name": "",
          "type": "uint256"
        }
      ],
      "stateMutability": "view",
      "type": "function"
    },
    {
      "inputs": [
        {
          "internalType": "address",
          "name": "",
          "type": "address"
        }
      ],
      "name": "candidates",
      "outputs": [
        {
          "internalType": "uint256",
          "name": "id",
          "type": "uint256"
        },
        {
          "internalType": "string",
          "name": "name",
          "type": "string"
        },
        {
          "internalType": "address",
          "name": "candidateAddress",
          "type": "address"
        },
        {
          "internalType": "uint8",
          "name": "age",
          "type": "uint8"
        },
        {
          "internalType": "string",
          "name": "image",
          "type": "string"
        },
        {
          "internalType": "string",
          "name": "ipfs",
          "type": "string"
        },
        {
          "internalType": "uint256",
          "name": "voteCount",
          "type": "uint256"
        },
        {
          "internalType": "bool",
          "name": "exists",
          "type": "bool"
        }
      ],
      "stateMutability": "view",
      "type": "function"
    },
    {
      "inputs": [
        {
          "internalType": "address",
          "name": "",
          "type": "address"
        }
      ],
      "name": "candidatesToBeAllowed",
      "outputs": [
        {
          "internalType": "uint256",
          "name": "id",
          "type": "uint256"
        },
        {
          "internalType": "string",
          "name": "name",
          "type": "string"
        },
        {
          "internalType": "address",
          "name": "candidateAddress",
          "type": "address"
        },
        {
          "internalType": "uint8",
          "name": "age",
          "type": "uint8"
        },
        {
          "internalType": "string",
          "name": "image",
          "type": "string"
        },
        {
          "internalType": "string",
          "name": "ipfs",
          "type": "string"
        },
        {
          "internalType": "uint256",
          "name": "voteCount",
          "type": "uint256"
        },
        {
          "internalType": "bool",
          "name": "exists",
          "type": "bool"
        }
      ],
      "stateMutability": "view",
      "type": "function"
    },
    {
      "inputs": [],
      "name": "candidatesToBeAllowedId",
      "outputs": [
        {
          "internalType": "uint256",
          "name": "",
          "type": "uint256"
        }
      ],
      "stateMutability": "view",
      "type": "function"
    },
    {
      "inputs": [
        {
          "internalType": "address",
          "name": "_addr",
          "type": "address"
        }
      ],
      "name": "changeOwner",
      "outputs": [],
      "stateMutability": "nonpayable",
      "type": "function"
    },
    {
      "inputs": [
        {
          "internalType": "string",
          "name": "_name",
          "type": "string"
        },
        {
          "internalType": "address",
          "name": "_addr",
          "type": "address"
        },
        {
          "internalType": "uint8",
          "name": "_age",
          "type": "uint8"
        },
        {
          "internalType": "string",
          "name": "_image",
          "type": "string"
        },
        {
          "internalType": "string",
          "name": "_ipfs",
          "type": "string"
        }
      ],
      "name": "createCandidate",
      "outputs": [],
      "stateMutability": "nonpayable",
      "type": "function"
    },
    {
      "inputs": [
        {
          "internalType": "string",
          "name": "_name",
          "type": "string"
        },
        {
          "internalType": "string",
          "name": "_image",
          "type": "string"
        },
        {
          "internalType": "string",
          "name": "_ipfs",
          "type": "string"
        },
        {
          "internalType": "bool",
          "name": "_requiresRegisteredVoters",
          "type": "bool"
        },
        {
          "internalType": "uint256",
          "name": "_startTime",
          "type": "uint256"
        },
        {
          "internalType": "uint256",
          "name": "_endTime",
          "type": "uint256"
        },
        {
          "internalType": "string",
          "name": "_description",
          "type": "string"
        }
      ],
      "name": "createGroup",
      "outputs": [],
      "stateMutability": "nonpayable",
      "type": "function"
    },
    {
      "inputs": [
        {
          "internalType": "uint256",
          "name": "_groupId",
          "type": "uint256"
        },
        {
          "internalType": "address",
          "name": "_candidateAddr",
          "type": "address"
        }
      ],
      "name": "deleteCandidateFromGroup",
      "outputs": [],
      "stateMutability": "nonpayable",
      "type": "function"
    },
    {
      "inputs": [
        {
          "internalType": "uint256",
          "name": "_groupId",
          "type": "uint256"
        }
      ],
      "name": "deleteGroup",
      "outputs": [],
      "stateMutability": "nonpayable",
      "type": "function"
    },
    {
      "inputs": [
        {
          "internalType": "address",
          "name": "_addr",
          "type": "address"
        }
      ],
      "name": "getCandidateData",
      "outputs": [
        {
          "components": [
            {
              "internalType": "uint256",
              "name": "id",
              "type": "uint256"
            },
            {
              "internalType": "string",
              "name": "name",
              "type": "string"
            },
            {
              "internalType": "address",
              "name": "candidateAddress",
              "type": "address"
            },
            {
              "internalType": "uint8",
              "name": "age",
              "type": "uint8"
            },
            {
              "internalType": "string",
              "name": "image",
              "type": "string"
            },
            {
              "internalType": "string",
              "name": "ipfs",
              "type": "string"
            },
            {
              "internalType": "uint256",
              "name": "voteCount",
              "type": "uint256"
            },
            {
              "internalType": "bool",
              "name": "exists",
              "type": "bool"
            }
          ],
          "internalType": "struct VotingStorage.Candidate",
          "name": "",
          "type": "tuple"
        }
      ],
      "stateMutability": "view",
      "type": "function"
    },
    {
      "inputs": [],
      "name": "getCandidatesLength",
      "outputs": [
        {
          "internalType": "uint256",
          "name": "",
          "type": "uint256"
        }
      ],
      "stateMutability": "view",
      "type": "function"
    },
    {
      "inputs": [
        {
          "internalType": "address",
          "name": "_addr",
          "type": "address"
        }
      ],
      "name": "getVoterData",
      "outputs": [
        {
          "components": [
            {
              "internalType": "uint256",
              "name": "id",
              "type": "uint256"
            },
            {
              "internalType": "string",
              "name": "name",
              "type": "string"
            },
            {
              "internalType": "address",
              "name": "voterAddress",
              "type": "address"
            },
            {
              "internalType": "uint8",
              "name": "age",
              "type": "uint8"
            },
            {
              "internalType": "string",
              "name": "image",
              "type": "string"
            },
            {
              "internalType": "string",
              "name": "ipfs",
              "type": "string"
            },
            {
              "internalType": "uint256",
              "name": "voteCount",
              "type": "uint256"
            },
            {
              "internalType": "bool",
              "name": "exists",
              "type": "bool"
            }
          ],
          "internalType": "struct VotingStorage.Voter",
          "name": "",
          "type": "tuple"
        }
      ],
      "stateMutability": "view",
      "type": "function"
    },
    {
      "inputs": [],
      "name": "getVotersLength",
      "outputs": [
        {
          "internalType": "uint256",
          "name": "",
          "type": "uint256"
        }
      ],
      "stateMutability": "view",
      "type": "function"
    },
    {
      "inputs": [],
      "name": "groupId",
      "outputs": [
        {
          "internalType": "uint256",
          "name": "",
          "type": "uint256"
        }
      ],
      "stateMutability": "view",
      "type": "function"
    },
    {
      "inputs": [
        {
          "internalType": "uint256",
          "name": "",
          "type": "uint256"
        }
      ],
      "name": "groups",
      "outputs": [
        {
          "internalType": "uint256",
          "name": "id",
          "type": "uint256"
        },
        {
          "internalType": "string",
          "name": "name",
          "type": "string"
        },
        {
          "internalType": "string",
          "name": "image",
          "type": "string"
        },
        {
          "internalType": "string",
          "name": "ipfs",
          "type": "string"
        },
        {
          "internalType": "bool",
          "name": "requiresRegisteredVoters",
          "type": "bool"
        },
        {
          "internalType": "bool",
          "name": "exists",
          "type": "bool"
        },
        {
          "internalType": "uint256",
          "name": "startTime",
          "type": "uint256"
        },
        {
          "internalType": "uint256",
          "name": "endTime",
          "type": "uint256"
        },
        {
          "internalType": "string",
          "name": "description",
          "type": "string"
        }
      ],
      "stateMutability": "view",
      "type": "function"
    },
    {
      "inputs": [
        {
          "internalType": "address",
          "name": "",
          "type": "address"
        },
        {
          "internalType": "uint256",
          "name": "",
          "type": "uint256"
        }
      ],
      "name": "hasVotedInGroup",
      "outputs": [
        {
          "internalType": "bool",
          "name": "",
          "type": "bool"
        }
      ],
      "stateMutability": "view",
      "type": "function"
    },
    {
      "inputs": [
        {
          "internalType": "address",
          "name": "_organizer",
          "type": "address"
        }
      ],
      "name": "initialize",
      "outputs": [],
      "stateMutability": "nonpayable",
      "type": "function"
    },
    {
      "inputs": [],
      "name": "totalVotes",
      "outputs": [
        {
          "internalType": "uint256",
          "name": "",
          "type": "uint256"
        }
      ],
      "stateMutability": "view",
      "type": "function"
    },
    {
      "inputs": [
        {
          "internalType": "string",
          "name": "_newImage",
          "type": "string"
        },
        {
          "internalType": "string",
          "name": "_newIpfs",
          "type": "string"
        }
      ],
      "name": "updateCandidateImage",
      "outputs": [],
      "stateMutability": "nonpayable",
      "type": "function"
    },
    {
      "inputs": [
        {
          "internalType": "uint256",
          "name": "_groupId",
          "type": "uint256"
        },
        {
          "internalType": "string",
          "name": "_newImage",
          "type": "string"
        },
        {
          "internalType": "string",
          "name": "_newIpfs",
          "type": "string"
        }
      ],
      "name": "updateGroupImage",
      "outputs": [],
      "stateMutability": "nonpayable",
      "type": "function"
    },
    {
      "inputs": [
        {
          "internalType": "string",
          "name": "_newImage",
          "type": "string"
        },
        {
          "internalType": "string",
          "name": "_newIpfs",
          "type": "string"
        }
      ],
      "name": "updateVoterImage",
      "outputs": [],
      "stateMutability": "nonpayable",
      "type": "function"
    },
    {
      "inputs": [
        {
          "internalType": "uint256",
          "name": "_groupId",
          "type": "uint256"
        },
        {
          "internalType": "address",
          "name": "_candidateAddress",
          "type": "address"
        }
      ],
      "name": "vote",
      "outputs": [],
      "stateMutability": "nonpayable",
      "type": "function"
    },
    {
      "inputs": [
        {
          "internalType": "uint256",
          "name": "",
          "type": "uint256"
        }
      ],
      "name": "voterAddresses",
      "outputs": [
        {
          "internalType": "address",
          "name": "",
          "type": "address"
        }
      ],
      "stateMutability": "view",
      "type": "function"
    },
    {
      "inputs": [],
      "name": "voterId",
      "outputs": [
        {
          "internalType": "uint256",
          "name": "",
          "type": "uint256"
        }
      ],
      "stateMutability": "view",
      "type": "function"
    },
    {
      "inputs": [
        {
          "internalType": "address",
          "name": "",
          "type": "address"
        }
      ],
      "name": "voters",
      "outputs": [
        {
          "internalType": "uint256",
          "name": "id",
          "type": "uint256"
        },
        {
          "internalType": "string",
          "name": "name",
          "type": "string"
        },
        {
          "internalType": "address",
          "name": "voterAddress",
          "type": "address"
        },
        {
          "internalType": "uint8",
          "name": "age",
          "type": "uint8"
        },
        {
          "internalType": "string",
          "name": "image",
          "type": "string"
        },
        {
          "internalType": "string",
          "name": "ipfs",
          "type": "string"
        },
        {
          "internalType": "uint256",
          "name": "voteCount",
          "type": "uint256"
        },
        {
          "internalType": "bool",
          "name": "exists",
          "type": "bool"
        }
      ],
      "stateMutability": "view",
      "type": "function"
    },
    {
      "inputs": [
        {
          "internalType": "address",
          "name": "",
          "type": "address"
        }
      ],
      "name": "votersToBeAllowed",
      "outputs": [
        {
          "internalType": "uint256",
          "name": "id",
          "type": "uint256"
        },
        {
          "internalType": "string",
          "name": "name",
          "type": "string"
        },
        {
          "internalType": "address",
          "name": "voterAddress",
          "type": "address"
        },
        {
          "internalType": "uint8",
          "name": "age",
          "type": "uint8"
        },
        {
          "internalType": "string",
          "name": "image",
          "type": "string"
        },
        {
          "internalType": "string",
          "name": "ipfs",
          "type": "string"
        },
        {
          "internalType": "uint256",
          "name": "voteCount",
          "type": "uint256"
        },
        {
          "internalType": "bool",
          "name": "exists",
          "type": "bool"
        }
      ],
      "stateMutability": "view",
      "type": "function"
    },
    {
      "inputs": [],
      "name": "votersToBeAllowedId",
      "outputs": [
        {
          "internalType": "uint256",
          "name": "",
          "type": "uint256"
        }
      ],
      "stateMutability": "view",
      "type": "function"
    },
    {
      "inputs": [],
      "name": "votingOrganizer",
      "outputs": [
        {
          "internalType": "address",
          "name": "",
          "type": "address"
        }
      ],
      "stateMutability": "view",
      "type": "function"
    }
  ],
  "bytecode": "0x6080604052348015600f57600080fd5b50615ec88061001f6000396000f3fe608060405234801561001057600080fd5b50600436106102065760003560e01c80635cc48aa71161011a578063a0f44c92116100ad578063d55d73c51161007c578063d55d73c51461060b578063d6a405451461063b578063dd0e237314610657578063de2237d314610687578063e8fec1fd146106a557610206565b8063a0f44c921461057e578063a3ec138d1461059c578063a6f9dae1146105d3578063c4d66de8146105ef57610206565b80638fb4cd80116100e95780638fb4cd80146104dc57806396324bd41461050c5780639e23690b146105445780639f91e6bf1461056057610206565b80635cc48aa71461043457806372eea056146104525780637463bc231461046e5780638ab66a90146104a557610206565b80632a466ac71161019d5780634da7f5ae1161016c5780634da7f5ae1461037557806350107586146103915780635744a765146103c157806357b018b4146103f857806358f17f831461041657610206565b80632a466ac7146102f15780633e69982c14610321578063442f5b391461033d57806345d88d2d1461035957610206565b80630fea346b116101d95780630fea346b1461027d5780631859df65146102995780631d604930146102b757806322795fd5146102d557610206565b806301502d101461020b57806302d947ef146102275780630b5351b3146102435780630d15fd771461025f575b600080fd5b61022560048036038101906102209190614687565b6106c1565b005b610241600480360381019061023c919061478c565b6108dd565b005b61025d600480360381019061025891906147cc565b610c3d565b005b610267610dc0565b6040516102749190614853565b60405180910390f35b61029760048036038101906102929190614906565b610dc6565b005b6102a1610f7a565b6040516102ae9190614853565b60405180910390f35b6102bf610f87565b6040516102cc9190614853565b60405180910390f35b6102ef60048036038101906102ea9190614a2a565b610f8d565b005b61030b60048036038101906103069190614ab5565b61107f565b6040516103189190614c5b565b60405180910390f35b61033b600480360381019061033691906147cc565b611331565b005b6103576004803603810190610352919061478c565b6114b4565b005b610373600480360381019061036e9190614c7d565b6117c6565b005b61038f600480360381019061038a9190614687565b611a7e565b005b6103ab60048036038101906103a69190614caa565b611d2b565b6040516103b89190614cf9565b60405180910390f35b6103db60048036038101906103d69190614ab5565b611d5a565b6040516103ef989796959493929190614d7c565b60405180910390f35b610400611f74565b60405161040d9190614853565b60405180910390f35b61041e611f7a565b60405161042b9190614853565b60405180910390f35b61043c611f80565b6040516104499190614e0f565b60405180910390f35b61046c6004803603810190610467919061478c565b611fa6565b005b61048860048036038101906104839190614ab5565b612358565b60405161049c989796959493929190614d7c565b60405180910390f35b6104bf60048036038101906104ba9190614ab5565b612572565b6040516104d3989796959493929190614d7c565b60405180910390f35b6104f660048036038101906104f19190614ab5565b61278c565b6040516105039190614ee8565b60405180910390f35b61052660048036038101906105219190614c7d565b612a3e565b60405161053b99989796959493929190614f0a565b60405180910390f35b61055e60048036038101906105599190614ab5565b612cc6565b005b61056861333b565b6040516105759190614853565b60405180910390f35b610586613341565b6040516105939190614853565b60405180910390f35b6105b660048036038101906105b19190614ab5565b613347565b6040516105ca989796959493929190614d7c565b60405180910390f35b6105ed60048036038101906105e89190614ab5565b613561565b005b61060960048036038101906106049190614ab5565b6135fb565b005b61062560048036038101906106209190614c7d565b6137c2565b6040516106329190614e0f565b60405180910390f35b61065560048036038101906106509190614687565b613801565b005b610671600480360381019061066c9190614c7d565b613aae565b60405161067e9190614e0f565b60405180910390f35b61068f613aed565b60405161069c9190614853565b60405180910390f35b6106bf60048036038101906106ba9190614ab5565b613afa565b005b6106c961416f565b600760008573ffffffffffffffffffffffffffffffffffffffff1673ffffffffffffffffffffffffffffffffffffffff16815260200190815260200160002060060160009054906101000a900460ff1615610759576040517f08c379a000000000000000000000000000000000000000000000000000000000815260040161075090614fff565b60405180910390fd5b6002600081548092919061076c9061504e565b91905055506000600760008673ffffffffffffffffffffffffffffffffffffffff1673ffffffffffffffffffffffffffffffffffffffff16815260200190815260200160002090506002548160000181905550858160010190816107d091906152a2565b50848160020160006101000a81548173ffffffffffffffffffffffffffffffffffffffff021916908373ffffffffffffffffffffffffffffffffffffffff160217905550838160020160146101000a81548160ff021916908360ff1602179055508281600301908161084291906152a2565b508181600401908161085491906152a2565b506000816005018190555060018160060160006101000a81548160ff0219169083151502179055508560405161088a91906153b0565b60405180910390208573ffffffffffffffffffffffffffffffffffffffff167f315d9b8a7d71955c1a45dbe38fa8a1f8811097de4cedb8e4a3adc7cfe10da19560405160405180910390a3505050505050565b816108e781614201565b600960003373ffffffffffffffffffffffffffffffffffffffff1673ffffffffffffffffffffffffffffffffffffffff168152602001908152602001600020600084815260200190815260200160002060009054906101000a900460ff1615610985576040517f08c379a000000000000000000000000000000000000000000000000000000000815260040161097c90615413565b60405180910390fd5b6000600760008473ffffffffffffffffffffffffffffffffffffffff1673ffffffffffffffffffffffffffffffffffffffff1681526020019081526020016000209050600e600085815260200190815260200160002060070160009054906101000a900460ff1615610ad957600860003373ffffffffffffffffffffffffffffffffffffffff1673ffffffffffffffffffffffffffffffffffffffff16815260200190815260200160002060060160009054906101000a900460ff16610a80576040517f08c379a0000000000000000000000000000000000000000000000000000000008152600401610a779061547f565b60405180910390fd5b600860003373ffffffffffffffffffffffffffffffffffffffff1673ffffffffffffffffffffffffffffffffffffffff1681526020019081526020016000206005016000815480929190610ad39061504e565b91905055505b806005016000815480929190610aee9061504e565b9190505550600e600085815260200190815260200160002060060160008473ffffffffffffffffffffffffffffffffffffffff1673ffffffffffffffffffffffffffffffffffffffff1681526020019081526020016000206000815480929190610b579061504e565b91905055506001600960003373ffffffffffffffffffffffffffffffffffffffff1673ffffffffffffffffffffffffffffffffffffffff168152602001908152602001600020600086815260200190815260200160002060006101000a81548160ff021916908315150217905550600080815480929190610bd79061504e565b9190505550838373ffffffffffffffffffffffffffffffffffffffff163373ffffffffffffffffffffffffffffffffffffffff167f174ba19ba3c8bb5c679c87e51db79fff7c3f04bb84c1fd55b7dacb470b674aa660405160405180910390a450505050565b600860003373ffffffffffffffffffffffffffffffffffffffff1673ffffffffffffffffffffffffffffffffffffffff16815260200190815260200160002060060160009054906101000a900460ff16610ccc576040517f08c379a0000000000000000000000000000000000000000000000000000000008152600401610cc3906154eb565b60405180910390fd5b81600860003373ffffffffffffffffffffffffffffffffffffffff1673ffffffffffffffffffffffffffffffffffffffff1681526020019081526020016000206003019081610d1b91906152a2565b5080600860003373ffffffffffffffffffffffffffffffffffffffff1673ffffffffffffffffffffffffffffffffffffffff1681526020019081526020016000206004019081610d6b91906152a2565b503373ffffffffffffffffffffffffffffffffffffffff167f7a8ac81ab7cc0529a626364c8a0455eac81c033e2b0e7a0677922c3133a4e29f8383604051610db492919061550b565b60405180910390a25050565b60005481565b610dce61416f565b828410610e10576040517f08c379a0000000000000000000000000000000000000000000000000000000008152600401610e07906155b4565b60405180910390fd5b428311610e52576040517f08c379a0000000000000000000000000000000000000000000000000000000008152600401610e4990615620565b60405180910390fd5b60036000815480929190610e659061504e565b91905055506000600e60006003548152602001908152602001600020905060035481600001819055508b8b826001019182610ea192919061564b565b508989826002019182610eb592919061564b565b508787826003019182610ec992919061564b565b50858160070160006101000a81548160ff02191690831515021790555060018160070160016101000a81548160ff021916908315150217905550848160080181905550838160090181905550828282600a019182610f2892919061564b565b508515156003547fbb20abc750af3ecbf4c7cede72f601071ccc06b8a45978b84e8c54b4075400228e8e8989604051610f649493929190615748565b60405180910390a3505050505050505050505050565b6000600580549050905090565b600b5481565b610f9561416f565b600e600084815260200190815260200160002060070160019054906101000a900460ff16610ff8576040517f08c379a0000000000000000000000000000000000000000000000000000000008152600401610fef906157d4565b60405180910390fd5b81600e6000858152602001908152602001600020600201908161101b91906152a2565b5080600e6000858152602001908152602001600020600301908161103f91906152a2565b50827f5b0454a518b42dc7b8ef64a805f66978c1b6e536e568b0e32160007b24710e69838360405161107292919061550b565b60405180910390a2505050565b611087614358565b600760008373ffffffffffffffffffffffffffffffffffffffff1673ffffffffffffffffffffffffffffffffffffffff16815260200190815260200160002060405180610100016040529081600082015481526020016001820180546110ec906150c5565b80601f0160208091040260200160405190810160405280929190818152602001828054611118906150c5565b80156111655780601f1061113a57610100808354040283529160200191611165565b820191906000526020600020905b81548152906001019060200180831161114857829003601f168201915b505050505081526020016002820160009054906101000a900473ffffffffffffffffffffffffffffffffffffffff1673ffffffffffffffffffffffffffffffffffffffff1673ffffffffffffffffffffffffffffffffffffffff1681526020016002820160149054906101000a900460ff1660ff1660ff1681526020016003820180546111f1906150c5565b80601f016020809104026020016040519081016040528092919081815260200182805461121d906150c5565b801561126a5780601f1061123f5761010080835404028352916020019161126a565b820191906000526020600020905b81548152906001019060200180831161124d57829003601f168201915b50505050508152602001600482018054611283906150c5565b80601f01602080910402602001604051908101604052809291908181526020018280546112af906150c5565b80156112fc5780601f106112d1576101008083540402835291602001916112fc565b820191906000526020600020905b8154815290600101906020018083116112df57829003601f168201915b50505050508152602001600582015481526020016006820160009054906101000a900460ff1615151515815250509050919050565b600760003373ffffffffffffffffffffffffffffffffffffffff1673ffffffffffffffffffffffffffffffffffffffff16815260200190815260200160002060060160009054906101000a900460ff166113c0576040517f08c379a00000000000000000000000000000000000000000000000000000000081526004016113b790615866565b60405180910390fd5b81600760003373ffffffffffffffffffffffffffffffffffffffff1673ffffffffffffffffffffffffffffffffffffffff168152602001908152602001600020600301908161140f91906152a2565b5080600760003373ffffffffffffffffffffffffffffffffffffffff1673ffffffffffffffffffffffffffffffffffffffff168152602001908152602001600020600401908161145f91906152a2565b503373ffffffffffffffffffffffffffffffffffffffff167f7a8ac81ab7cc0529a626364c8a0455eac81c033e2b0e7a0677922c3133a4e29f83836040516114a892919061550b565b60405180910390a25050565b6114bc61416f565b600e600083815260200190815260200160002060070160019054906101000a900460ff1661151f576040517f08c379a0000000000000000000000000000000000000000000000000000000008152600401611516906158d2565b60405180910390fd5b600073ffffffffffffffffffffffffffffffffffffffff16600760008373ffffffffffffffffffffffffffffffffffffffff1673ffffffffffffffffffffffffffffffffffffffff16815260200190815260200160002060020160009054906101000a900473ffffffffffffffffffffffffffffffffffffffff1673ffffffffffffffffffffffffffffffffffffffff16036115f0576040517f08c379a00000000000000000000000000000000000000000000000000000000081526004016115e79061593e565b60405180910390fd5b600e600083815260200190815260200160002060050160008273ffffffffffffffffffffffffffffffffffffffff1673ffffffffffffffffffffffffffffffffffffffff16815260200190815260200160002060009054906101000a900460ff1615611691576040517f08c379a0000000000000000000000000000000000000000000000000000000008152600401611688906159aa565b60405180910390fd5b600e6000838152602001908152602001600020600401819080600181540180825580915050600190039060005260206000200160009091909190916101000a81548173ffffffffffffffffffffffffffffffffffffffff021916908373ffffffffffffffffffffffffffffffffffffffff1602179055506001600e600084815260200190815260200160002060050160008373ffffffffffffffffffffffffffffffffffffffff1673ffffffffffffffffffffffffffffffffffffffff16815260200190815260200160002060006101000a81548160ff0219169083151502179055508073ffffffffffffffffffffffffffffffffffffffff167f87d4c30c7e9c7f4f2f74f171678d253bfc5b2d8fc939be21c22e9b127c7da1a3836040516117ba9190614853565b60405180910390a25050565b6117ce61416f565b600e600082815260200190815260200160002060070160019054906101000a900460ff16611831576040517f08c379a000000000000000000000000000000000000000000000000000000000815260040161182890615a16565b60405180910390fd5b6000600e6000838152602001908152602001600020600401905060005b81805490508110156119a6576000600e6000858152602001908152602001600020600501600084848154811061188757611886615a36565b5b9060005260206000200160009054906101000a900473ffffffffffffffffffffffffffffffffffffffff1673ffffffffffffffffffffffffffffffffffffffff1673ffffffffffffffffffffffffffffffffffffffff16815260200190815260200160002060006101000a81548160ff0219169083151502179055506000600e600085815260200190815260200160002060060160008484815481106119305761192f615a36565b5b9060005260206000200160009054906101000a900473ffffffffffffffffffffffffffffffffffffffff1673ffffffffffffffffffffffffffffffffffffffff1673ffffffffffffffffffffffffffffffffffffffff16815260200190815260200160002081905550808060010191505061184e565b50600e60008381526020019081526020016000206000808201600090556001820160006119d391906143b8565b6002820160006119e391906143b8565b6003820160006119f391906143b8565b600482016000611a0391906143f8565b6007820160006101000a81549060ff02191690556007820160016101000a81549060ff021916905560088201600090556009820160009055600a82016000611a4b91906143b8565b5050817f05f39787bb37d43683a578f1d720308a1e4cd944934f11f73c9564925aca900d60405160405180910390a25050565b600760008573ffffffffffffffffffffffffffffffffffffffff1673ffffffffffffffffffffffffffffffffffffffff16815260200190815260200160002060060160009054906101000a900460ff1615611b0e576040517f08c379a0000000000000000000000000000000000000000000000000000000008152600401611b0590615ab1565b60405180910390fd5b6000600d60008673ffffffffffffffffffffffffffffffffffffffff1673ffffffffffffffffffffffffffffffffffffffff1681526020019081526020016000206000015414611b93576040517f08c379a0000000000000000000000000000000000000000000000000000000008152600401611b8a90615b1d565b60405180910390fd5b600b6000815480929190611ba69061504e565b9190505550604051806101000160405280600b5481526020018681526020018573ffffffffffffffffffffffffffffffffffffffff1681526020018460ff1681526020018381526020018281526020016000815260200160001515815250600d60008673ffffffffffffffffffffffffffffffffffffffff1673ffffffffffffffffffffffffffffffffffffffff168152602001908152602001600020600082015181600001556020820151816001019081611c6291906152a2565b5060408201518160020160006101000a81548173ffffffffffffffffffffffffffffffffffffffff021916908373ffffffffffffffffffffffffffffffffffffffff16021790555060608201518160020160146101000a81548160ff021916908360ff1602179055506080820151816003019081611ce091906152a2565b5060a0820151816004019081611cf691906152a2565b5060c0820151816005015560e08201518160060160006101000a81548160ff0219169083151502179055509050505050505050565b60096020528160005260406000206020528060005260406000206000915091509054906101000a900460ff1681565b600c602052806000526040600020600091509050806000015490806001018054611d83906150c5565b80601f0160208091040260200160405190810160405280929190818152602001828054611daf906150c5565b8015611dfc5780601f10611dd157610100808354040283529160200191611dfc565b820191906000526020600020905b815481529060010190602001808311611ddf57829003601f168201915b5050505050908060020160009054906101000a900473ffffffffffffffffffffffffffffffffffffffff16908060020160149054906101000a900460ff1690806003018054611e4a906150c5565b80601f0160208091040260200160405190810160405280929190818152602001828054611e76906150c5565b8015611ec35780601f10611e9857610100808354040283529160200191611ec3565b820191906000526020600020905b815481529060010190602001808311611ea657829003601f168201915b505050505090806004018054611ed8906150c5565b80601f0160208091040260200160405190810160405280929190818152602001828054611f04906150c5565b8015611f515780601f10611f2657610100808354040283529160200191611f51565b820191906000526020600020905b815481529060010190602001808311611f3457829003601f168201915b5050505050908060050154908060060160009054906101000a900460ff16905088565b600a5481565b60015481565b600460009054906101000a900473ffffffffffffffffffffffffffffffffffffffff1681565b611fae61416f565b600e600083815260200190815260200160002060070160019054906101000a900460ff16612011576040517f08c379a000000000000000000000000000000000000000000000000000000000815260040161200890615b89565b60405180910390fd5b600e600083815260200190815260200160002060050160008273ffffffffffffffffffffffffffffffffffffffff1673ffffffffffffffffffffffffffffffffffffffff16815260200190815260200160002060009054906101000a900460ff166120b1576040517f08c379a00000000000000000000000000000000000000000000000000000000081526004016120a890615bf5565b60405180910390fd5b6000600e600084815260200190815260200160002060050160008373ffffffffffffffffffffffffffffffffffffffff1673ffffffffffffffffffffffffffffffffffffffff16815260200190815260200160002060006101000a81548160ff021916908315150217905550600e600083815260200190815260200160002060060160008273ffffffffffffffffffffffffffffffffffffffff1673ffffffffffffffffffffffffffffffffffffffff168152602001908152602001600020600090556000600e6000848152602001908152602001600020600401905060005b818054905081101561230e578273ffffffffffffffffffffffffffffffffffffffff168282815481106121c7576121c6615a36565b5b9060005260206000200160009054906101000a900473ffffffffffffffffffffffffffffffffffffffff1673ffffffffffffffffffffffffffffffffffffffff160361230157816001838054905061221f9190615c15565b815481106122305761222f615a36565b5b9060005260206000200160009054906101000a900473ffffffffffffffffffffffffffffffffffffffff1682828154811061226e5761226d615a36565b5b9060005260206000200160006101000a81548173ffffffffffffffffffffffffffffffffffffffff021916908373ffffffffffffffffffffffffffffffffffffffff160217905550818054806122c7576122c6615c49565b5b6001900381819060005260206000200160006101000a81549073ffffffffffffffffffffffffffffffffffffffff0219169055905561230e565b8080600101915050612191565b508173ffffffffffffffffffffffffffffffffffffffff16837f19f4cb769a462bec6c45ca9cd4feeed63307779833a27f011a5cfa025fd1e92260405160405180910390a3505050565b600d602052806000526040600020600091509050806000015490806001018054612381906150c5565b80601f01602080910402602001604051908101604052809291908181526020018280546123ad906150c5565b80156123fa5780601f106123cf576101008083540402835291602001916123fa565b820191906000526020600020905b8154815290600101906020018083116123dd57829003601f168201915b5050505050908060020160009054906101000a900473ffffffffffffffffffffffffffffffffffffffff16908060020160149054906101000a900460ff1690806003018054612448906150c5565b80601f0160208091040260200160405190810160405280929190818152602001828054612474906150c5565b80156124c15780601f10612496576101008083540402835291602001916124c1565b820191906000526020600020905b8154815290600101906020018083116124a457829003601f168201915b5050505050908060040180546124d6906150c5565b80601f0160208091040260200160405190810160405280929190818152602001828054612502906150c5565b801561254f5780601f106125245761010080835404028352916020019161254f565b820191906000526020600020905b81548152906001019060200180831161253257829003601f168201915b5050505050908060050154908060060160009054906101000a900460ff16905088565b600760205280600052604060002060009150905080600001549080600101805461259b906150c5565b80601f01602080910402602001604051908101604052809291908181526020018280546125c7906150c5565b80156126145780601f106125e957610100808354040283529160200191612614565b820191906000526020600020905b8154815290600101906020018083116125f757829003601f168201915b5050505050908060020160009054906101000a900473ffffffffffffffffffffffffffffffffffffffff16908060020160149054906101000a900460ff1690806003018054612662906150c5565b80601f016020809104026020016040519081016040528092919081815260200182805461268e906150c5565b80156126db5780601f106126b0576101008083540402835291602001916126db565b820191906000526020600020905b8154815290600101906020018083116126be57829003601f168201915b5050505050908060040180546126f0906150c5565b80601f016020809104026020016040519081016040528092919081815260200182805461271c906150c5565b80156127695780601f1061273e57610100808354040283529160200191612769565b820191906000526020600020905b81548152906001019060200180831161274c57829003601f168201915b5050505050908060050154908060060160009054906101000a900460ff16905088565b612794614419565b600860008373ffffffffffffffffffffffffffffffffffffffff1673ffffffffffffffffffffffffffffffffffffffff16815260200190815260200160002060405180610100016040529081600082015481526020016001820180546127f9906150c5565b80601f0160208091040260200160405190810160405280929190818152602001828054612825906150c5565b80156128725780601f1061284757610100808354040283529160200191612872565b820191906000526020600020905b81548152906001019060200180831161285557829003601f168201915b505050505081526020016002820160009054906101000a900473ffffffffffffffffffffffffffffffffffffffff1673ffffffffffffffffffffffffffffffffffffffff1673ffffffffffffffffffffffffffffffffffffffff1681526020016002820160149054906101000a900460ff1660ff1660ff1681526020016003820180546128fe906150c5565b80601f016020809104026020016040519081016040528092919081815260200182805461292a906150c5565b80156129775780601f1061294c57610100808354040283529160200191612977565b820191906000526020600020905b81548152906001019060200180831161295a57829003601f168201915b50505050508152602001600482018054612990906150c5565b80601f01602080910402602001604051908101604052809291908181526020018280546129bc906150c5565b8015612a095780601f106129de57610100808354040283529160200191612a09565b820191906000526020600020905b8154815290600101906020018083116129ec57829003601f168201915b50505050508152602001600582015481526020016006820160009054906101000a900460ff1615151515815250509050919050565b600e602052806000526040600020600091509050806000015490806001018054612a67906150c5565b80601f0160208091040260200160405190810160405280929190818152602001828054612a93906150c5565b8015612ae05780601f10612ab557610100808354040283529160200191612ae0565b820191906000526020600020905b815481529060010190602001808311612ac357829003601f168201915b505050505090806002018054612af5906150c5565b80601f0160208091040260200160405190810160405280929190818152602001828054612b21906150c5565b8015612b6e5780601f10612b4357610100808354040283529160200191612b6e565b820191906000526020600020905b815481529060010190602001808311612b5157829003601f168201915b505050505090806003018054612b83906150c5565b80601f0160208091040260200160405190810160405280929190818152602001828054612baf906150c5565b8015612bfc5780601f10612bd157610100808354040283529160200191612bfc565b820191906000526020600020905b815481529060010190602001808311612bdf57829003601f168201915b5050505050908060070160009054906101000a900460ff16908060070160019054906101000a900460ff169080600801549080600901549080600a018054612c43906150c5565b80601f0160208091040260200160405190810160405280929190818152602001828054612c6f906150c5565b8015612cbc5780601f10612c9157610100808354040283529160200191612cbc565b820191906000526020600020905b815481529060010190602001808311612c9f57829003601f168201915b5050505050905089565b612cce61416f565b600860008273ffffffffffffffffffffffffffffffffffffffff1673ffffffffffffffffffffffffffffffffffffffff16815260200190815260200160002060060160009054906101000a900460ff1615612d5e576040517f08c379a0000000000000000000000000000000000000000000000000000000008152600401612d5590615cc4565b60405180910390fd5b6000600c60008373ffffffffffffffffffffffffffffffffffffffff1673ffffffffffffffffffffffffffffffffffffffff1681526020019081526020016000206040518061010001604052908160008201548152602001600182018054612dc5906150c5565b80601f0160208091040260200160405190810160405280929190818152602001828054612df1906150c5565b8015612e3e5780601f10612e1357610100808354040283529160200191612e3e565b820191906000526020600020905b815481529060010190602001808311612e2157829003601f168201915b505050505081526020016002820160009054906101000a900473ffffffffffffffffffffffffffffffffffffffff1673ffffffffffffffffffffffffffffffffffffffff1673ffffffffffffffffffffffffffffffffffffffff1681526020016002820160149054906101000a900460ff1660ff1660ff168152602001600382018054612eca906150c5565b80601f0160208091040260200160405190810160405280929190818152602001828054612ef6906150c5565b8015612f435780601f10612f1857610100808354040283529160200191612f43565b820191906000526020600020905b815481529060010190602001808311612f2657829003601f168201915b50505050508152602001600482018054612f5c906150c5565b80601f0160208091040260200160405190810160405280929190818152602001828054612f88906150c5565b8015612fd55780601f10612faa57610100808354040283529160200191612fd5565b820191906000526020600020905b815481529060010190602001808311612fb857829003601f168201915b50505050508152602001600582015481526020016006820160009054906101000a900460ff1615151515815250509050600160008154809291906130189061504e565b91905055506040518061010001604052806001548152602001826020015181526020018373ffffffffffffffffffffffffffffffffffffffff168152602001826060015160ff168152602001826080015181526020018260a0015181526020016000815260200160011515815250600860008473ffffffffffffffffffffffffffffffffffffffff1673ffffffffffffffffffffffffffffffffffffffff1681526020019081526020016000206000820151816000015560208201518160010190816130e491906152a2565b5060408201518160020160006101000a81548173ffffffffffffffffffffffffffffffffffffffff021916908373ffffffffffffffffffffffffffffffffffffffff16021790555060608201518160020160146101000a81548160ff021916908360ff160217905550608082015181600301908161316291906152a2565b5060a082015181600401908161317891906152a2565b5060c0820151816005015560e08201518160060160006101000a81548160ff0219169083151502179055509050506006829080600181540180825580915050600190039060005260206000200160009091909190916101000a81548173ffffffffffffffffffffffffffffffffffffffff021916908373ffffffffffffffffffffffffffffffffffffffff160217905550600c60008373ffffffffffffffffffffffffffffffffffffffff1673ffffffffffffffffffffffffffffffffffffffff16815260200190815260200160002060008082016000905560018201600061326191906143b8565b6002820160006101000a81549073ffffffffffffffffffffffffffffffffffffffff02191690556002820160146101000a81549060ff02191690556003820160006132ac91906143b8565b6004820160006132bc91906143b8565b60058201600090556006820160006101000a81549060ff0219169055505080602001516040516132ec91906153b0565b60405180910390208273ffffffffffffffffffffffffffffffffffffffff167ffe579c15cc6923452a2dfc18cfd63cfc9e61f3481a9fd737f2a2f4e4574ae39760405160405180910390a35050565b60025481565b60035481565b6008602052806000526040600020600091509050806000015490806001018054613370906150c5565b80601f016020809104026020016040519081016040528092919081815260200182805461339c906150c5565b80156133e95780601f106133be576101008083540402835291602001916133e9565b820191906000526020600020905b8154815290600101906020018083116133cc57829003601f168201915b5050505050908060020160009054906101000a900473ffffffffffffffffffffffffffffffffffffffff16908060020160149054906101000a900460ff1690806003018054613437906150c5565b80601f0160208091040260200160405190810160405280929190818152602001828054613463906150c5565b80156134b05780601f10613485576101008083540402835291602001916134b0565b820191906000526020600020905b81548152906001019060200180831161349357829003601f168201915b5050505050908060040180546134c5906150c5565b80601f01602080910402602001604051908101604052809291908181526020018280546134f1906150c5565b801561353e5780601f106135135761010080835404028352916020019161353e565b820191906000526020600020905b81548152906001019060200180831161352157829003601f168201915b5050505050908060050154908060060160009054906101000a900460ff16905088565b61356961416f565b80600460006101000a81548173ffffffffffffffffffffffffffffffffffffffff021916908373ffffffffffffffffffffffffffffffffffffffff1602179055508073ffffffffffffffffffffffffffffffffffffffff167ff7a460565ec579a5fb496fc20f658870956a86cdd691b375a595f20e8f8d6b62336040516135f09190614e0f565b60405180910390a250565b6000613605614319565b905060008160000160089054906101000a900460ff1615905060008260000160009054906101000a900467ffffffffffffffff1690506000808267ffffffffffffffff161480156136535750825b9050600060018367ffffffffffffffff16148015613688575060003073ffffffffffffffffffffffffffffffffffffffff163b145b905081158015613696575080155b156136cd576040517ff92ee8a900000000000000000000000000000000000000000000000000000000815260040160405180910390fd5b60018560000160006101000a81548167ffffffffffffffff021916908367ffffffffffffffff160217905550831561371d5760018560000160086101000a81548160ff0219169083151502179055505b85600460006101000a81548173ffffffffffffffffffffffffffffffffffffffff021916908373ffffffffffffffffffffffffffffffffffffffff16021790555083156137ba5760008560000160086101000a81548160ff0219169083151502179055507fc7f505b2f371ae2175ee4913f4499e1f2633a7b5936321eed1cdaeb6115181d260016040516137b19190615d33565b60405180910390a15b505050505050565b600581815481106137d257600080fd5b906000526020600020016000915054906101000a900473ffffffffffffffffffffffffffffffffffffffff1681565b600860008573ffffffffffffffffffffffffffffffffffffffff1673ffffffffffffffffffffffffffffffffffffffff16815260200190815260200160002060060160009054906101000a900460ff1615613891576040517f08c379a000000000000000000000000000000000000000000000000000000000815260040161388890615cc4565b60405180910390fd5b6000600c60008673ffffffffffffffffffffffffffffffffffffffff1673ffffffffffffffffffffffffffffffffffffffff1681526020019081526020016000206000015414613916576040517f08c379a000000000000000000000000000000000000000000000000000000000815260040161390d90615b1d565b60405180910390fd5b600a60008154809291906139299061504e565b9190505550604051806101000160405280600a5481526020018681526020018573ffffffffffffffffffffffffffffffffffffffff1681526020018460ff1681526020018381526020018281526020016000815260200160001515815250600c60008673ffffffffffffffffffffffffffffffffffffffff1673ffffffffffffffffffffffffffffffffffffffff1681526020019081526020016000206000820151816000015560208201518160010190816139e591906152a2565b5060408201518160020160006101000a81548173ffffffffffffffffffffffffffffffffffffffff021916908373ffffffffffffffffffffffffffffffffffffffff16021790555060608201518160020160146101000a81548160ff021916908360ff1602179055506080820151816003019081613a6391906152a2565b5060a0820151816004019081613a7991906152a2565b5060c0820151816005015560e08201518160060160006101000a81548160ff0219169083151502179055509050505050505050565b60068181548110613abe57600080fd5b906000526020600020016000915054906101000a900473ffffffffffffffffffffffffffffffffffffffff1681565b6000600680549050905090565b613b0261416f565b600760008273ffffffffffffffffffffffffffffffffffffffff1673ffffffffffffffffffffffffffffffffffffffff16815260200190815260200160002060060160009054906101000a900460ff1615613b92576040517f08c379a0000000000000000000000000000000000000000000000000000000008152600401613b8990615ab1565b60405180910390fd5b6000600d60008373ffffffffffffffffffffffffffffffffffffffff1673ffffffffffffffffffffffffffffffffffffffff1681526020019081526020016000206040518061010001604052908160008201548152602001600182018054613bf9906150c5565b80601f0160208091040260200160405190810160405280929190818152602001828054613c25906150c5565b8015613c725780601f10613c4757610100808354040283529160200191613c72565b820191906000526020600020905b815481529060010190602001808311613c5557829003601f168201915b505050505081526020016002820160009054906101000a900473ffffffffffffffffffffffffffffffffffffffff1673ffffffffffffffffffffffffffffffffffffffff1673ffffffffffffffffffffffffffffffffffffffff1681526020016002820160149054906101000a900460ff1660ff1660ff168152602001600382018054613cfe906150c5565b80601f0160208091040260200160405190810160405280929190818152602001828054613d2a906150c5565b8015613d775780601f10613d4c57610100808354040283529160200191613d77565b820191906000526020600020905b815481529060010190602001808311613d5a57829003601f168201915b50505050508152602001600482018054613d90906150c5565b80601f0160208091040260200160405190810160405280929190818152602001828054613dbc906150c5565b8015613e095780601f10613dde57610100808354040283529160200191613e09565b820191906000526020600020905b815481529060010190602001808311613dec57829003601f168201915b50505050508152602001600582015481526020016006820160009054906101000a900460ff161515151581525050905060026000815480929190613e4c9061504e565b91905055506040518061010001604052806002548152602001826020015181526020018373ffffffffffffffffffffffffffffffffffffffff168152602001826060015160ff168152602001826080015181526020018260a0015181526020016000815260200160011515815250600760008473ffffffffffffffffffffffffffffffffffffffff1673ffffffffffffffffffffffffffffffffffffffff168152602001908152602001600020600082015181600001556020820151816001019081613f1891906152a2565b5060408201518160020160006101000a81548173ffffffffffffffffffffffffffffffffffffffff021916908373ffffffffffffffffffffffffffffffffffffffff16021790555060608201518160020160146101000a81548160ff021916908360ff1602179055506080820151816003019081613f9691906152a2565b5060a0820151816004019081613fac91906152a2565b5060c0820151816005015560e08201518160060160006101000a81548160ff0219169083151502179055509050506005829080600181540180825580915050600190039060005260206000200160009091909190916101000a81548173ffffffffffffffffffffffffffffffffffffffff021916908373ffffffffffffffffffffffffffffffffffffffff160217905550600d60008373ffffffffffffffffffffffffffffffffffffffff1673ffffffffffffffffffffffffffffffffffffffff16815260200190815260200160002060008082016000905560018201600061409591906143b8565b6002820160006101000a81549073ffffffffffffffffffffffffffffffffffffffff02191690556002820160146101000a81549060ff02191690556003820160006140e091906143b8565b6004820160006140f091906143b8565b60058201600090556006820160006101000a81549060ff02191690555050806020015160405161412091906153b0565b60405180910390208273ffffffffffffffffffffffffffffffffffffffff167f315d9b8a7d71955c1a45dbe38fa8a1f8811097de4cedb8e4a3adc7cfe10da19560405160405180910390a35050565b600460009054906101000a900473ffffffffffffffffffffffffffffffffffffffff1673ffffffffffffffffffffffffffffffffffffffff163373ffffffffffffffffffffffffffffffffffffffff16146141ff576040517f08c379a00000000000000000000000000000000000000000000000000000000081526004016141f690615d9a565b60405180910390fd5b565b600e600082815260200190815260200160002060070160019054906101000a900460ff16614264576040517f08c379a000000000000000000000000000000000000000000000000000000000815260040161425b90615b89565b60405180910390fd5b600e6000828152602001908152602001600020600801544210156142bd576040517f08c379a00000000000000000000000000000000000000000000000000000000081526004016142b490615e06565b60405180910390fd5b600e600082815260200190815260200160002060090154421115614316576040517f08c379a000000000000000000000000000000000000000000000000000000000815260040161430d90615e72565b60405180910390fd5b50565b60008061432461432d565b90508091505090565b60007ff0c57e16840df040f15088dc2f81fe391c3923bec73e23a9662efc9c229c6a0060001b905090565b6040518061010001604052806000815260200160608152602001600073ffffffffffffffffffffffffffffffffffffffff168152602001600060ff1681526020016060815260200160608152602001600081526020016000151581525090565b5080546143c4906150c5565b6000825580601f106143d657506143f5565b601f0160209004906000526020600020908101906143f49190614479565b5b50565b50805460008255906000526020600020908101906144169190614479565b50565b6040518061010001604052806000815260200160608152602001600073ffffffffffffffffffffffffffffffffffffffff168152602001600060ff1681526020016060815260200160608152602001600081526020016000151581525090565b5b8082111561449257600081600090555060010161447a565b5090565b6000604051905090565b600080fd5b600080fd5b600080fd5b600080fd5b6000601f19601f8301169050919050565b7f4e487b7100000000000000000000000000000000000000000000000000000000600052604160045260246000fd5b6144fd826144b4565b810181811067ffffffffffffffff8211171561451c5761451b6144c5565b5b80604052505050565b600061452f614496565b905061453b82826144f4565b919050565b600067ffffffffffffffff82111561455b5761455a6144c5565b5b614564826144b4565b9050602081019050919050565b82818337600083830152505050565b600061459361458e84614540565b614525565b9050828152602081018484840111156145af576145ae6144af565b5b6145ba848285614571565b509392505050565b600082601f8301126145d7576145d66144aa565b5b81356145e7848260208601614580565b91505092915050565b600073ffffffffffffffffffffffffffffffffffffffff82169050919050565b600061461b826145f0565b9050919050565b61462b81614610565b811461463657600080fd5b50565b60008135905061464881614622565b92915050565b600060ff82169050919050565b6146648161464e565b811461466f57600080fd5b50565b6000813590506146818161465b565b92915050565b600080600080600060a086880312156146a3576146a26144a0565b5b600086013567ffffffffffffffff8111156146c1576146c06144a5565b5b6146cd888289016145c2565b95505060206146de88828901614639565b94505060406146ef88828901614672565b935050606086013567ffffffffffffffff8111156147105761470f6144a5565b5b61471c888289016145c2565b925050608086013567ffffffffffffffff81111561473d5761473c6144a5565b5b614749888289016145c2565b9150509295509295909350565b6000819050919050565b61476981614756565b811461477457600080fd5b50565b60008135905061478681614760565b92915050565b600080604083850312156147a3576147a26144a0565b5b60006147b185828601614777565b92505060206147c285828601614639565b9150509250929050565b600080604083850312156147e3576147e26144a0565b5b600083013567ffffffffffffffff811115614801576148006144a5565b5b61480d858286016145c2565b925050602083013567ffffffffffffffff81111561482e5761482d6144a5565b5b61483a858286016145c2565b9150509250929050565b61484d81614756565b82525050565b60006020820190506148686000830184614844565b92915050565b600080fd5b600080fd5b60008083601f84011261488e5761488d6144aa565b5b8235905067ffffffffffffffff8111156148ab576148aa61486e565b5b6020830191508360018202830111156148c7576148c6614873565b5b9250929050565b60008115159050919050565b6148e3816148ce565b81146148ee57600080fd5b50565b600081359050614900816148da565b92915050565b600080600080600080600080600080600060e08c8e03121561492b5761492a6144a0565b5b60008c013567ffffffffffffffff811115614949576149486144a5565b5b6149558e828f01614878565b9b509b505060208c013567ffffffffffffffff811115614978576149776144a5565b5b6149848e828f01614878565b995099505060408c013567ffffffffffffffff8111156149a7576149a66144a5565b5b6149b38e828f01614878565b975097505060606149c68e828f016148f1565b95505060806149d78e828f01614777565b94505060a06149e88e828f01614777565b93505060c08c013567ffffffffffffffff811115614a0957614a086144a5565b5b614a158e828f01614878565b92509250509295989b509295989b9093969950565b600080600060608486031215614a4357614a426144a0565b5b6000614a5186828701614777565b935050602084013567ffffffffffffffff811115614a7257614a716144a5565b5b614a7e868287016145c2565b925050604084013567ffffffffffffffff811115614a9f57614a9e6144a5565b5b614aab868287016145c2565b9150509250925092565b600060208284031215614acb57614aca6144a0565b5b6000614ad984828501614639565b91505092915050565b614aeb81614756565b82525050565b600081519050919050565b600082825260208201905092915050565b60005b83811015614b2b578082015181840152602081019050614b10565b60008484015250505050565b6000614b4282614af1565b614b4c8185614afc565b9350614b5c818560208601614b0d565b614b65816144b4565b840191505092915050565b614b7981614610565b82525050565b614b888161464e565b82525050565b614b97816148ce565b82525050565b600061010083016000830151614bb66000860182614ae2565b5060208301518482036020860152614bce8282614b37565b9150506040830151614be36040860182614b70565b506060830151614bf66060860182614b7f565b5060808301518482036080860152614c0e8282614b37565b91505060a083015184820360a0860152614c288282614b37565b91505060c0830151614c3d60c0860182614ae2565b5060e0830151614c5060e0860182614b8e565b508091505092915050565b60006020820190508181036000830152614c758184614b9d565b905092915050565b600060208284031215614c9357614c926144a0565b5b6000614ca184828501614777565b91505092915050565b60008060408385031215614cc157614cc06144a0565b5b6000614ccf85828601614639565b9250506020614ce085828601614777565b9150509250929050565b614cf3816148ce565b82525050565b6000602082019050614d0e6000830184614cea565b92915050565b600082825260208201905092915050565b6000614d3082614af1565b614d3a8185614d14565b9350614d4a818560208601614b0d565b614d53816144b4565b840191505092915050565b614d6781614610565b82525050565b614d768161464e565b82525050565b600061010082019050614d92600083018b614844565b8181036020830152614da4818a614d25565b9050614db36040830189614d5e565b614dc06060830188614d6d565b8181036080830152614dd28187614d25565b905081810360a0830152614de68186614d25565b9050614df560c0830185614844565b614e0260e0830184614cea565b9998505050505050505050565b6000602082019050614e246000830184614d5e565b92915050565b600061010083016000830151614e436000860182614ae2565b5060208301518482036020860152614e5b8282614b37565b9150506040830151614e706040860182614b70565b506060830151614e836060860182614b7f565b5060808301518482036080860152614e9b8282614b37565b91505060a083015184820360a0860152614eb58282614b37565b91505060c0830151614eca60c0860182614ae2565b5060e0830151614edd60e0860182614b8e565b508091505092915050565b60006020820190508181036000830152614f028184614e2a565b905092915050565b600061012082019050614f20600083018c614844565b8181036020830152614f32818b614d25565b90508181036040830152614f46818a614d25565b90508181036060830152614f5a8189614d25565b9050614f696080830188614cea565b614f7660a0830187614cea565b614f8360c0830186614844565b614f9060e0830185614844565b818103610100830152614fa38184614d25565b90509a9950505050505050505050565b7f43616e64696461746520616c7265616479206578697374732100000000000000600082015250565b6000614fe9601983614d14565b9150614ff482614fb3565b602082019050919050565b6000602082019050818103600083015261501881614fdc565b9050919050565b7f4e487b7100000000000000000000000000000000000000000000000000000000600052601160045260246000fd5b600061505982614756565b91507fffffffffffffffffffffffffffffffffffffffffffffffffffffffffffffffff820361508b5761508a61501f565b5b600182019050919050565b7f4e487b7100000000000000000000000000000000000000000000000000000000600052602260045260246000fd5b600060028204905060018216806150dd57607f821691505b6020821081036150f0576150ef615096565b5b50919050565b60008190508160005260206000209050919050565b60006020601f8301049050919050565b600082821b905092915050565b6000600883026151587fffffffffffffffffffffffffffffffffffffffffffffffffffffffffffffffff8261511b565b615162868361511b565b95508019841693508086168417925050509392505050565b6000819050919050565b600061519f61519a61519584614756565b61517a565b614756565b9050919050565b6000819050919050565b6151b983615184565b6151cd6151c5826151a6565b848454615128565b825550505050565b600090565b6151e26151d5565b6151ed8184846151b0565b505050565b5b81811015615211576152066000826151da565b6001810190506151f3565b5050565b601f82111561525657615227816150f6565b6152308461510b565b8101602085101561523f578190505b61525361524b8561510b565b8301826151f2565b50505b505050565b600082821c905092915050565b60006152796000198460080261525b565b1980831691505092915050565b60006152928383615268565b9150826002028217905092915050565b6152ab82614af1565b67ffffffffffffffff8111156152c4576152c36144c5565b5b6152ce82546150c5565b6152d9828285615215565b600060209050601f83116001811461530c57600084156152fa578287015190505b6153048582615286565b86555061536c565b601f19841661531a866150f6565b60005b828110156153425784890151825560018201915060208501945060208101905061531d565b8683101561535f578489015161535b601f891682615268565b8355505b6001600288020188555050505b505050505050565b600081905092915050565b600061538a82614af1565b6153948185615374565b93506153a4818560208601614b0d565b80840191505092915050565b60006153bc828461537f565b915081905092915050565b7f416c726561647920766f74656420696e20746869732067726f75702100000000600082015250565b60006153fd601c83614d14565b9150615408826153c7565b602082019050919050565b6000602082019050818103600083015261542c816153f0565b9050919050565b7f596f75206d7573742062652061207265676973746572656420766f7465722100600082015250565b6000615469601f83614d14565b915061547482615433565b602082019050919050565b600060208201905081810360008301526154988161545c565b9050919050565b7f596f7520617265206e6f742061207265676973746572656420766f7465722100600082015250565b60006154d5601f83614d14565b91506154e08261549f565b602082019050919050565b60006020820190508181036000830152615504816154c8565b9050919050565b600060408201905081810360008301526155258185614d25565b905081810360208301526155398184614d25565b90509392505050565b7f53746172742074696d65206d757374206265206265666f726520656e6420746960008201527f6d65210000000000000000000000000000000000000000000000000000000000602082015250565b600061559e602383614d14565b91506155a982615542565b604082019050919050565b600060208201905081810360008301526155cd81615591565b9050919050565b7f456e642074696d65206d75737420626520696e20746865206675747572652100600082015250565b600061560a601f83614d14565b9150615615826155d4565b602082019050919050565b60006020820190508181036000830152615639816155fd565b9050919050565b600082905092915050565b6156558383615640565b67ffffffffffffffff81111561566e5761566d6144c5565b5b61567882546150c5565b615683828285615215565b6000601f8311600181146156b257600084156156a0578287013590505b6156aa8582615286565b865550615712565b601f1984166156c0866150f6565b60005b828110156156e8578489013582556001820191506020850194506020810190506156c3565b868310156157055784890135615701601f891682615268565b8355505b6001600288020188555050505b50505050505050565b60006157278385614d14565b9350615734838584614571565b61573d836144b4565b840190509392505050565b6000606082019050818103600083015261576381868861571b565b90506157726020830185614844565b61577f6040830184614844565b95945050505050565b7f4e6f20737563682067726f757021000000000000000000000000000000000000600082015250565b60006157be600e83614d14565b91506157c982615788565b602082019050919050565b600060208201905081810360008301526157ed816157b1565b9050919050565b7f596f7520617265206e6f74206120726567697374657265642063616e6469646160008201527f7465210000000000000000000000000000000000000000000000000000000000602082015250565b6000615850602383614d14565b915061585b826157f4565b604082019050919050565b6000602082019050818103600083015261587f81615843565b9050919050565b7f47726f757020646f65736e277420657869737421000000000000000000000000600082015250565b60006158bc601483614d14565b91506158c782615886565b602082019050919050565b600060208201905081810360008301526158eb816158af565b9050919050565b7f43616e64696461746520646f6573206e6f742065786973742100000000000000600082015250565b6000615928601983614d14565b9150615933826158f2565b602082019050919050565b600060208201905081810360008301526159578161591b565b9050919050565b7f43616e64696461746520616c726561647920696e2067726f7570210000000000600082015250565b6000615994601b83614d14565b915061599f8261595e565b602082019050919050565b600060208201905081810360008301526159c381615987565b9050919050565b7f4e6f2067726f7570206578697374732100000000000000000000000000000000600082015250565b6000615a00601083614d14565b9150615a0b826159ca565b602082019050919050565b60006020820190508181036000830152615a2f816159f3565b9050919050565b7f4e487b7100000000000000000000000000000000000000000000000000000000600052603260045260246000fd5b7f416c726561647920616e20617070726f7665642063616e646964617465210000600082015250565b6000615a9b601e83614d14565b9150615aa682615a65565b602082019050919050565b60006020820190508181036000830152615aca81615a8e565b9050919050565b7f416c7265616479206170706c6965642100000000000000000000000000000000600082015250565b6000615b07601083614d14565b9150615b1282615ad1565b602082019050919050565b60006020820190508181036000830152615b3681615afa565b9050919050565b7f47726f757020646f6573206e6f74206578697374210000000000000000000000600082015250565b6000615b73601583614d14565b9150615b7e82615b3d565b602082019050919050565b60006020820190508181036000830152615ba281615b66565b9050919050565b7f43616e646964617465206e6f7420696e20746869732067726f75702100000000600082015250565b6000615bdf601c83614d14565b9150615bea82615ba9565b602082019050919050565b60006020820190508181036000830152615c0e81615bd2565b9050919050565b6000615c2082614756565b9150615c2b83614756565b9250828203905081811115615c4357615c4261501f565b5b92915050565b7f4e487b7100000000000000000000000000000000000000000000000000000000600052603160045260246000fd5b7f416c726561647920616e20617070726f76656420766f74657221000000000000600082015250565b6000615cae601a83614d14565b9150615cb982615c78565b602082019050919050565b60006020820190508181036000830152615cdd81615ca1565b9050919050565b6000819050919050565b600067ffffffffffffffff82169050919050565b6000615d1d615d18615d1384615ce4565b61517a565b615cee565b9050919050565b615d2d81615d02565b82525050565b6000602082019050615d486000830184615d24565b92915050565b7f4f6e6c79206f7267616e697a65722063616e20646f2069742100000000000000600082015250565b6000615d84601983614d14565b9150615d8f82615d4e565b602082019050919050565b60006020820190508181036000830152615db381615d77565b9050919050565b7f566f74696e67206e6f7420737461727465642079657421000000000000000000600082015250565b6000615df0601783614d14565b9150615dfb82615dba565b602082019050919050565b60006020820190508181036000830152615e1f81615de3565b9050919050565b7f566f74696e6720656e6465642100000000000000000000000000000000000000600082015250565b6000615e5c600d83614d14565b9150615e6782615e26565b602082019050919050565b60006020820190508181036000830152615e8b81615e4f565b905091905056fea26469706673582212202ed75c16078e58dedb7b92a13fa33673bcd36388a89592d064189a1df4726dad64736f6c634300081c0033",
  "linkReferences": {},
  "deployedLinkReferences": {}
}